:020000040800F2
:10000000E009002079020008B1290008EF25000866
:10001000AD2700086F0400085D30000800000000F4
:10002000000000000000000000000000992D000802
:100030009305000800000000B3290008E52F000820
:10004000930200089302000893020008930200083C
:10005000930200089302000893020008930200082C
:10006000930200089302000893020008CD040008E0
:10007000D9040008930200089302000893020008C4
:1000800093020008930200089302000893020008FC
:100090009302000899050008A505000893020008CE
:1000A00093020008930200089302000893020008DC
:1000B00093020008930200089302000893020008CC
:1000C000930200089302000893020008B529000873
:1000D00093020008930200089302000893020008AC
:1000E000930200089302000893020008930200089C
:1000F000930200089302000893020008930200088C
:10010000930200089302000893020008930200087B
:10011000930200089302000893020008930200086B
:10012000930200089302000893020008930200085B
:10013000930200089302000893020008930200084B
:10014000930200089302000893020008930200083B
:10015000930200089302000893020008930200082B
:10016000930200089302000893020008930200081B
:10017000930200089302000893020008930200080B
:100180009302000851060008930200089302000839
:100190009302000800000000B1050008BD0500083A
:1001A000C9050008D505000893020008930200085D
:1001B00093020008930200089302000893020008CB
:1001C00093020008930200089302000893020008BB
:1001D000930200089302000800F002F800F03CF8D7
:1001E0000AA090E8000C82448344AAF10107DA4592
:1001F00001D100F031F8AFF2090EBAE80F0013F0A8
:10020000010F18BFFB1A43F001031847D02E00005E
:10021000F02E0000103A24BF78C878C1FAD85207EF
:1002200024BF30C830C144BF04680C607047000070
:100230000023002400250026103A28BF78C1FBD8EF
:10024000520728BF30C148BF0B6070471FB502F08E
:100250002BFF1FBD10B510BD00F0CFF81146FFF702
:10026000F5FF02F00CFF00F0EDF803B4FFF7F2FF2A
:1002700003BC00F0F5F80000094880470948004732
:10028000FEE7FEE7FEE7FEE7FEE7FEE7FEE7FEE746
:10029000FEE7FEE704480549054A064B70470000A3
:1002A0004D300008D9010008E0030020E0090020DB
:1002B000E0050020E0050020032A40F2308010F025
:1002C000030C00F0158011F8013BBCF1020F6244F1
:1002D00098BF11F801CB00F8013B38BF11F8013B82
:1002E000A2F1040298BF00F801CB38BF00F8013B2F
:1002F00011F0030300F04F80083AC0F0088051F875
:10030000043B083A51F804CBA0E80810F5E7121DA9
:100310005CBF51F8043B40F8043BAFF30080D207C8
:1003200024BF11F8013B11F801CB48BF11F8012B94
:1003300024BF00F8013B00F801CB48BF00F8012BB7
:1003400070474FF0000200B5134694469646203998
:1003500022BFA0E80C50A0E80C50B1F12001BFF47E
:10036000F7AF090728BFA0E80C5048BF0CC05DF8E4
:1003700004EB890028BF40F8042B08BF704748BF32
:1003800020F8022B11F0804F18BF00F8012B7047A6
:1003900070477047704710B5203AC0F00B80B1E845
:1003A0001850203AA0E81850B1E81850A0E81850AA
:1003B000BFF4F5AF5FEA027C24BFB1E81850A0E8B3
:1003C000185044BF18C918C0BDE810405FEA827CCD
:1003D00024BF51F8043B40F8043B08BF7047D207E4
:1003E00028BF31F8023B48BF11F8012B28BF20F885
:1003F000023B48BF00F8012B7047754600F02CF80F
:10040000AE4605006946534620F00700854618B001
:1004100020B5FFF73FFFBDE820404FF000064FF04A
:1004200000074FF000084FF0000B21F00701AC4629
:10043000ACE8C009ACE8C009ACE8C009ACE8C00948
:100440008D46704710B50446AFF300802046BDE8E6
:100450001040FFF70ABF0000004870477C030020EF
:1004600001491820ABBEFEE7260002007047FEE7F8
:10047000034610B50020024603E09C5C6040521C1D
:1004800092B28A42F9D310BD30B587B00024054638
:10049000019401200294CDE9034040F2FF70CDE9C0
:1004A000054001A9284600F0AAFA08B100F072F848
:1004B0000222002311462846009400F0CEFA0028BC
:1004C00001D000F067F807B030BD0000014800F02F
:1004D000FCB80000BC020020014800F0F6B80000A3
:1004E0001C03002010B501680E4CCAB21423083A50
:1004F000A14203D2B2FBF3F20B4904E0B2FBF3F2E8
:10050000094920310832436C02F01F0223F0030333
:100510001944816404498031C1640121914001651D
:1005200010BD000008040240000802400179084A9A
:1005300001F07F0102EB81024265054A4432491E07
:10054000826501F01F0201219140C16570470000E2
:10055000FC08024030B5D0E913456560446D14B124
:10056000D0E91645656090F8444004F01F05012469
:10057000AC40056C6C60046863608368102B036892
:1005800003D099600068C26030BD9A600068C160A5
:1005900030BD704772B6FEE7014800F006BB0000B0
:1005A0002C010020014800F000BB00002C010020BD
:1005B000014800F0FABA000090010020014800F064
:1005C000F4BA000090010020014800F0EEBA0000EB
:1005D000F4010020014800F0E8BA0000F401002016
:1005E000F0B5D1E901650C692C430D68C6B145F041
:1005F00080452C43D1E90665354391F820704E695A
:10060000406D46EA076635438E8903EBC30300EB72
:10061000C30045EA0645E0E8024500230B4D0FE024
:1006200044EA8544E6E7D418D65CE77846EA0766EC
:10063000A77864783F0447EA0424264340C01B1D82
:10064000CC682C5D9C42EED8F0BD0000BB300008A9
:10065000704770B590F82520002401212346022A16
:1006600007D00422C26380F8251080F824300124CA
:1006700029E00268156825F0010515600268156813
:1006800025F00E051560826C156825F480751560DF
:1006900090F84420056C02F01F0201FA02F26A6031
:1006A000D0E913255560426D32B1156825F4807587
:1006B0001560D0E91625556080F8251080F82430A3
:1006C000816B01B18847204670BDF0B4016C0C68A5
:1006D00001680D6890F8442002F01F06042202FA17
:1006E00006F3234211D06B070FD50B689B0603D48A
:1006F0000B6823F004030B6090F8441001F01F0115
:100700008A40016C4A60016B1DE0022303FA06F780
:1007100027424FF0000C4FF0010218D0AF0716D55A
:100720000C68A40605D40C6824F00A040C6080F858
:10073000252090F8441001F01F018B40016C4B60A4
:1007400080F824C0C16A00291AD0F0BC08470823E9
:10075000B340234214D02B0712D50B6823F00E03AD
:100760000B6090F84410036C01F01F0102FA01F1D4
:100770005960C26380F8252080F824C0416BE2E70D
:10078000F0BC704770B504000CD02C4A21681420CE
:10079000914209D22A4A0A44B2FBF0F08000606418
:1007A00028480AE0012070BD244A52420A44B2FBA4
:1007B000F0F080006064214808382064022084F84A
:1007C00025000A6847F6F0708243D4E90203184313
:1007D000D4E904352B431843A3691843E36918434C
:1007E000236A1843104308602046FFF77BFEA06889
:1007F0000025B0F5804F00D165602079A16C00F034
:100800007F000860D4E9130141606068401E03283E
:1008100008D82046FFF78AFE606D0560D4E916010E
:10082000416002E06565A565E565E563012084F842
:10083000250084F82450002070BD00000804024008
:10084000F8FFFDBF0000024070B5044690F8240098
:10085000002501280CD0012084F8240094F825609C
:100860000020012E06D084F824000225284670BD01
:10087000022070BD022684F82560E06320680668C7
:1008800026F0010606602046FFF764FE206B002874
:100890002068016802D041F00E0106E021F0040159
:1008A00001602068016841F00A010160A06C0168E4
:1008B000C90303D5016841F480710160606D18B10E
:1008C000016841F4807101602068016841F0010114
:1008D0000160CBE730B590F85C30012B07D0022BDC
:1008E00005D0016E41F002010166012030BD0468AF
:1008F000A36D4D0701D0DD071DD011F0380F01D0D9
:100900009D0718D511F4E07F01D05D0713D511F4D0
:10091000F05F01D01D070ED511F4604F01D0DD0648
:1009200009D511F4403F01D09D0604D511F47C0F88
:1009300005D05D0603D4E56D45F00105E5654C077E
:1009400001D0DC071DD111F0380F01D09C0718D45D
:1009500011F4E07F01D05C0713D411F4F05F01D0F3
:100960001C070ED411F4604F01D0DC0609D411F439
:10097000403F01D09C0604D411F47C0F06D05B06E6
:1009800004D50368DC6D44F00204DC650B0604D575
:10099000036853F8DC4F14431C60CB0504D503688F
:1009A00053F8E04F14431C600068426D0A434265EF
:1009B000002030BD70B5044690F85C00022803D0DA
:1009C000206E40F0080007E02068D0F8C4309B0299
:1009D00005D5206E40F400702066012070BDD0F86F
:1009E000C400C0F301452B462046FFF7F9FD2168FE
:1009F0000120A840C1F8CC00A065002070BD10B552
:100A000090F85C20012A07D0022A05D0016E41F03F
:100A100002010166012010BD0A687AB10B7B0A69E8
:100A20000C7A42EA43734A69406C496842EA84722C
:100A300000EBC100C0E90032002010BD0B7A4A690A
:100A40000C8A42EA83720B7B006CDB06496843EA3E
:100A500004431A4340F82120EEE730B590F85C508B
:100A6000039C012D05D0016E41F0040101660120B7
:100A700030BD0901006841EA820141EA430150F8B2
:100A8000802F214322F03F0211430160002030BD3E
:100A900070477047F0B590F85C40022C03D0016EAF
:100AA00041F0080162E00468402947D0D4F898502A
:100AB0002D0758D0D4F89850D4F89860C5F3012584
:100AC000F60106D5D4F88040E40502D56D1C05F08A
:100AD0000305C46C05EBC50604EBC604266816F0D6
:100AE00080465660266844D026F060461660266828
:100AF0002C4F06F00056966040CC06F0004616617A
:100B000034F8046BB6B2D66154F8046CC6F30346ED
:100B1000D66054F8046C06F48016566154F8046CE0
:100B200006F40016966154F8046CC6F30666166265
:100B300054F8046CF60F5662002622E0D4F8905068
:100B40002D0710D0D4F89050D4F89060C5F301254B
:100B5000F60106D5D4F88040A40502D56D1C05F039
:100B60000305846CB6E7016E41F4807101660120D3
:100B7000F0BDC6F38A46B9E714F806C003F806C00C
:100B8000761CD2F80CC017F80CC0B445F4D8006835
:100B9000402903D0C0F89C500020F0BDC0F894500C
:100BA000FAE70000BB30000870472DE9F05F04460B
:100BB0000068016D426D01F4E05102EA0108016D27
:100BC000426D01F0070102EA0109016D426D01F079
:100BD000380102EA010A016D476D01F471010F400D
:100BE000016D426D01F46021456D02EA010B016D5A
:100BF000CE43710607D4E943490604D44021016578
:100C00002046FFF7D1FFF0050ED4E843C0050BD412
:100C10002068D0F8D820D0F8E01011404FF480724E
:100C20000265204600F073FAB8F1000005D0216893
:100C300008654146204600F06CFAB9F1000005D085
:100C4000216808654946204600F046FABAF10000DE
:100C500005D0216808655146204600F03FFAB005EE
:100C600009D4E843800506D421684FF40070086574
:100C7000204600F04FFA30060DD4E84300060AD4AF
:100C80002068D0F8D420D0F8DC1011408022026512
:100C9000204600F03DFAB00409D4E843800406D4AD
:100CA00021684FF400500865204600F02FFA300408
:100CB00009D4E843000406D421684FF400400865D5
:100CC000204600F022FA70040AD4E843400407D416
:100CD00021684FF480400865206E40F08000206657
:100CE000BBF1000005D02168086559462046FFF792
:100CF000D0FE27B120680765206E38432066206E3D
:100D0000002802D02046FFF7C3FEBDE8F09F000098
:100D10002DE9F041040006D0DFF8F48194F85C007E
:100D2000002518B107E00120BDE8F08184F85D508E
:100D3000204600F0F9F82068816921F010018161F6
:100D400000F004FB0646032705E000BF00F0FEFAB2
:100D5000801B0A2811D8206880690007F6D4206813
:100D6000816941F00101816100F0F0FA06460BE073
:100D700000F0ECFA801B0A2806D9206E40F0010032
:100D8000206684F85C70CEE720688069C007EFD0E9
:100D90002068816941F0020181612168414502D1E9
:100DA0005C4960680860207C01282068816937D030
:100DB00041F040018161607C01282068816932D066
:100DC00021F480418161A07C0128206881692DD0B7
:100DD00041F48051816120688169A26821F44071E9
:100DE000114381612068816921F0A401816120683B
:100DF000016921F010010161E068012819D010B3E8
:100E000002281BD02068816941F08001816120683F
:100E1000016941F010010161E06803280ED012E081
:100E200021F04001C6E741F48041CBE721F4805135
:100E3000D0E72068816941F0040103E020688169FE
:100E400041F020018161207EE26940066FF0FF01E0
:100E500001EB0222A0F100701043226AA38A521E05
:100E600010430A0202EB034318432368D861A068C9
:100E7000B0F5407F10D1D4E90A0301EB0321401EF5
:100E80000843216B131303EB01110843A18C02EB00
:100E9000014108432168C860206850F8C01FE26B18
:100EA000114301601D4A21681B48914200D11C4832
:100EB0001C4A914201D100F5D460206451F8802F82
:100EC000A38E22F4F81242EA03420A6000F1700194
:100ED0006164216851F8802F94F8383022F07062F4
:100EE00042EA03620A6000F1B001A164D831E16412
:100EF000D831216518316165D83100E020C08842C1
:100F0000FCD3A5652566012084F85C0000200BE772
:100F1000006400400065004000A4004000680040FC
:100F200050A70040006C00402DE9F0479CB00446FB
:100F3000142115A8FFF705FA54216846FFF701FAB6
:100F40005F4B2068991400260A035E4D02275E4C11
:100F50004FF003084FF009094FF0904A984236D1FC
:100F600068460E92009100F0F7FA08B1FFF712FB05
:100F70002868401C2860012807D1A06D40F000704F
:100F8000A065A06D00F000701A90E06C40F00100C8
:100F9000E064E06C17AA00F001001A904FF4C05012
:100FA000CDE9150782E8400315A9504600F0B4F8D2
:100FB00000220121152000F037FA152000F026FA52
:100FC00000220121162000F02FFA162038E03F4BB6
:100FD00098423AD168460E92009100F0BDFA08B1ED
:100FE000FFF7D8FA2868401C2860012807D1A06DB7
:100FF00040F00070A065A06D00F000701A90E06CE9
:1010000040F00200E064E06C17AA00F002001A90C1
:101010004FF44050CDE9150782E8400315A92C484C
:1010200000F07AF800220121562000F0FDF9562048
:1010300000F0ECF900220121572000F0F5F95720CB
:1010400000F0E4F91CB0BDE8F087224B9842F9D1DA
:1010500068460E92009100F07FFA08B1FFF79AFA05
:101060002868401C2860012807D1A06D40F000705E
:10107000A065A06D00F000701A90E06C40F00100D7
:10108000E064E06C179600F001001A904FF4014004
:10109000CDE915070B20CDE9188015A9504600F0C1
:1010A0003BF800220121582000F0BEF9582000F042
:1010B000ADF900220121592000F0B6F95920BFE70F
:1010C000006400402400002000100240006800403E
:1010D00000040048006C004001F060BE704790F8CA
:1010E0005C10012905D0016E41F004010166012068
:1010F0007047022180F85C1001688A6922F00102C1
:101100008A61002101660846704770477047704742
:1011100070477047704700002DE9F04FDFF80C92E0
:10112000002301260325A9F1040B85B00F2709F13F
:10113000040AABF1040EF1E006FA03FC12EA0C0219
:101140007ED00C7904F00304012C01D0022C20D1B4
:10115000846800945C0005FA04F80494009C24EA76
:1011600008040094D1F80C80049C08FA04F8009C50
:1011700048EA0408C0F80880446824EA0C0491F89E
:1011800004C0CCF3001C0CFA03FC4CEA040CC0F8BD
:1011900004C00C79E443A40702D18C68012C0ED062
:1011A000C4684FEA430805FA08FC24EA0C04D1F8A5
:1011B00008C00CFA08FC4CEA040CC0F80CC00C790E
:1011C00004F00304022C16D1DC0800EB840CCDF8EB
:1011D00008C0DCF820C05C074FEAD46807FA08F4BE
:1011E0002CEA040C0C6904FA08F444EA0C04DDF857
:1011F00008C0CCF8204004684FEA430805FA08FC10
:1012000024EA0C0491F804C00CF0030C0CFA08FC5E
:101210004CEA040CC0F800C04C6814F4403F7CD089
:10122000434CD4F860C04CF0010CC4F860C0246E8C
:1012300023F0030C04F0010400943E4C644400E0ED
:101240006BE00294A4684FEA837C4FEA1C7807FAAB
:1012500008FC24EA0C04B0F1904F06D0DFF8D8C0A7
:10126000604505D14FF0010C20E04FF0000C1DE06F
:10127000DFF8C8C0604502D14FF0020C16E0DFF87D
:10128000C0C0604502D14FF0030C0FE0DFF8B4C0DE
:10129000604502D14FF0040C08E0DFF8ACC06045B7
:1012A00002D14FF0050C01E04FF0060C0CFA08FCDF
:1012B0004CEA040C029CC4F808C0D9F80040CC46A3
:1012C000D1F8048094435FEAC82800D51443CCF8D1
:1012D0000040DAF80040D446D1F8048094435FEA35
:1012E000882800D51443CCF80040DBF80040DC46E9
:1012F000D1F8048094435FEA883800D51443CCF8D1
:101300000040DEF80040F446D1F8048094435FEAE0
:10131000C83800D51443CCF800405B1C0C6822464A
:10132000DC407FF409AF05B0BDE8F08F0804014050
:10133000001002400000014000040048000800487E
:10134000000C004800100048001400480148806864
:10135000704700002800002002488168426811445C
:10136000816070472800002010B50024032000F0A1
:101370007BF80F2000F008F808B1012401E000F02C
:1013800025F8204610BD000070B50E4E054600241D
:10139000706898B14FF47A71B1FBF0F00A490968AE
:1013A000B1FBF0F001F00FF940B9102D06D2002288
:1013B0002946501E00F038F8356000E00124204630
:1013C00070BD000028000020340000200E4808B541
:1013D000016E41F001010166016E01F00101009111
:1013E000816D41F080518165806D002200F0805058
:1013F00000901146512000F017F8512000F006F837
:10140000BDE8084000F0A0B800100240002809DB49
:1014100000F01F02012191404009800000F1E0200E
:10142000C0F8001170470000F0B40E4B1B680C466A
:10143000C3F30223C3F10705042D00D90425191DA8
:10144000072901D2002300E0DB1E012606FA05F180
:10145000491E214099409E40761E16403143F0BC03
:1014600001F0FDBD0CED00E0064900F00702086840
:101470004FF6FF03184040EA0220034A1043086079
:10148000704700000CED00E00000FA052B492C4BE2
:101490000A6832214A432B4940B1B0F5007F086801
:1014A00029D020F4C06040F480602CE00868C0F3CC
:1014B0004120022804D051F8800F20F4807022E0EF
:1014C000D1F8800020F48070C1F88000086820F412
:1014D000C06040F400700860B2FBF3F0401C00E014
:1014E000401E4A69520501D50028F9D148694005D6
:1014F0000AD503207047C0F34120022806D051F8D6
:10150000800F40F48070086000207047D1F88000A0
:1015100040F48070C1F88000086820F4C06040F496
:1015200000700860B2FBF3F0401C00E0401E4A6906
:101530005205DBD50028F9D1D8E70000340000209F
:1015400040420F00007000400248816841F4804131
:1015500081607047007000402DE9F8430446006840
:101560000026BB4D00035ED5A86D0027C00008D43F
:10157000A86D40F08050A865A86D012700F080504C
:101580000090DFF8D092D9F8001041F48071C9F8CA
:101590000010FFF7DBFE804606E000BFFFF7D6FE37
:1015A000A0EB080002282BD8D9F80000C005F5D51B
:1015B000D5F8900010F4407014D0216D814211D004
:1015C000D5F89000D5F8901020F4407041F48031A7
:1015D000C5F89010D5F8901021F48031C5F890101E
:1015E000C5F89000C00711D0FFF7B0FE804641F269
:1015F000883907E0FFF7AAFEA0EB0801494501D9A9
:1016000003260BE0D5F890008007F3D5D5F89000BD
:10161000216D20F440700843C5F890001FB1A86DFB
:1016200020F08050A8652078C00707D0D5F8880042
:10163000616820F003000843C5F88800207880071F
:1016400007D5D5F88800A16820F00C000843C5F83C
:1016500088002078400707D5D5F88800E16820F099
:1016600030000843C5F888002078000707D5D5F872
:101670008800216920F0C0000843C5F88800207860
:10168000C00607D5D5F88800616920F4407008438A
:10169000C5F888002078800607D5D5F88800A169AC
:1016A00020F440600843C5F888002078400607D53C
:1016B000D5F88800E16920F440500843C5F8880057
:1016C0002078000607D5D5F88800216A20F440402C
:1016D0000843C5F888002088C00507D5D5F88800DC
:1016E000616A20F440300843C5F888002068800310
:1016F00007D5D5F89C00A16A20F003000843C5F87F
:101700009C002088800507D5D5F88800E16A20F480
:1017100040200843C5F88800208840050FD5D5F83B
:101720008800216B20F440100843C5F88800206B26
:10173000B0F5801F03D1E86840F48010E86020888D
:1017400000050FD5D5F88800616B20F440000843F0
:10175000C5F88800606BB0F5800F03D1E86840F4ED
:101760008010E8602088C0040FD5D5F88800A16BF0
:1017700020F040700843C5F88800A06BB0F1807F6E
:1017800003D1E86840F48010E86020884FF00061E1
:1017900080040ED5D5F88800E26B20F0406010433D
:1017A000C5F88800E06B884203D1E86840F48010F7
:1017B000E860208840040ED5D5F88800226C20F01F
:1017C00040601043C5F88800206C884203D1E86867
:1017D00040F48010E860208800040FD5D5F8880018
:1017E000616C20F040500843C5F88800606CB0F18F
:1017F000805F03D1E86840F48030E8602068C0036F
:101800000FD5D5F88800A16C20F040400843C5F8FA
:101810008800A06CB0F1804F03D1E86840F48030BC
:10182000E860206840030FD5D5F89C00E16C20F4F7
:1018300040100843C5F89C00E06CB0F5001F03D1D0
:10184000E86840F48010E8603046BDE8F8830000A6
:1018500000100240007000402DE9F0470E460500E0
:101860004FF0000725D0DFF8AC81D8F8000000F079
:101870000F00B0420CD2D8F8001021F00F01314314
:10188000C8F80010D8F8000000F00F00B04210D1E6
:101890002968614CC80741F2883A5AD06868DFF875
:1018A0007C91032808D0022820682DD0400500280C
:1018B0002CDB0120BDE8F08720688001F9D5E068C5
:1018C00000F00302E068C0F30310401C032A19D0A3
:1018D000534A00BFB2FBF0F0E268C2F30622504365
:1018E000E268C2F34162521C5200B0FBF2F048457C
:1018F00017D9A06810F0F00F0CD0880711D5A86890
:1019000040B10EE0474AE5E78003D0E700F092F8E7
:10191000484506D9A06820F0F00040F08000A060A3
:101920008027A068696820F003000843A060FFF7E3
:101930000DFD814606E000BFFFF708FDA0EB0901A1
:1019400051453AD8A068696800F00C00B0EB810FEF
:10195000F2D12868810714D5400703D5A06840F468
:10196000E060A0602878000705D5A06820F46050EA
:1019700040F4E060A060A068A96820F0F00008438F
:1019800004E0802F03D1A06820F0F000A060D8F818
:101990000010404601F00F01B14216D9016821F054
:1019A0000F0131430160FFF7D1FC074607E000BF9C
:1019B000FFF7CCFCC11B514501D903207AE7D8F8C9
:1019C000000000F00F00B042F2D12878400705D5A2
:1019D000A068E96820F4E0600843A0602878000768
:1019E00006D5A068296920F4605040EAC100A060D3
:1019F00000F020F8A1680C4AC1F30311515C01F01A
:101A00001F01C8400949086009480068BDE8F0475F
:101A1000FFF7BABC002002400010024000B4C4042A
:101A20000024F40000127A00CB30000834000020BB
:101A300028000020184910B58868C0F381021748B3
:101A4000012A0BD08A684310C2F38102022A06D011
:101A50008A68C2F38102032A03D0002010BD184611
:101A600010BDCA6802F00304CA68C2F30312521C14
:101A7000032C02D0B0FBF2F001E0B3FBF2F0CA6835
:101A8000C968C2F306225043C1F34161491C4900B1
:101A9000B0FBF1F010BD0000001002400024F40083
:101AA0002DE9F84304007AD02078F84DC00747D0DC
:101AB000A868E96800F00C0001F003010C2802D0CE
:101AC000082817D001E0032914D06068B0F5803FE2
:101AD00017D0B0F5A02F286817D020F480302860E8
:101AE000286820F4802028606068E0B1FFF72EFCB1
:101AF000064614E02868800322D560680028D2D00A
:101B00001EE0286840F48030EDE740F48020286033
:101B1000F7E700BFFFF71AFC801B642870D828681D
:101B20008003F7D50CE0FFF711FC064605E000BF87
:101B3000FFF70CFC801B6428F0D828688003F7D4DA
:101B4000207880074CD5A868E96800F00C0001F007
:101B500003010C2802D004280DD001E002290AD08C
:101B6000E068002828682BD040F480702860FFF7D8
:101B7000EDFB064619E02868400502D5E06800281C
:101B800091D06868217C20F0FE4040EA01606860E6
:101B9000BF480068FFF7F8FB002800D120E072E1A1
:101BA000FFF7D4FB801B0228B8D828684005F7D57A
:101BB0006868217C20F0FE4040EA016068600FE028
:101BC00020F480702860FFF7C1FB064605E000BFE7
:101BD000FFF7BCFB801B0228A0D828684005F7D47B
:101BE0002078000729D560690028D5F8940013D023
:101BF00040F00100C5F89400FFF7A8FB064606E098
:101C000090E000BFFFF7A2FB801B022886D8D5F822
:101C100094008007F6D510E020F00100C5F894008C
:101C2000FFF794FB064604E0FFF790FB801B0228B9
:101C300078D8D5F894008007F6D42078400761D58D
:101C4000A86D0026C00008D4A86D40F08050A8659B
:101C5000A86D012600F0805000908E480168C905EB
:101C600011D40168804641F480710160FFF76EFB7A
:101C7000074604E0FFF76AFBC01B022852D8D8F8D9
:101C80000000C005F6D5A068012815D00528D5F8B4
:101C9000900016D020F00100C5F89000D5F8900013
:101CA00020F00400C5F89000A06841F28838B8B16F
:101CB000FFF74CFB07460EE0D5F8900040F001001E
:101CC000F0E740F00400C5F89000F5E7FFF73EFBB1
:101CD000C11B414526D8D5F890008007F6D50CE009
:101CE000FFF734FB074604E0FFF730FBC11B41451B
:101CF00018D8D5F890008007F6D41EB1A86D20F052
:101D00008050A8652078800629D5A0690028D5F8DC
:101D1000980013D040F00100C5F89800FFF716FBBB
:101D2000064606E075E000BFFFF710FB801B0228A7
:101D30006FD8D5F898008007F6D510E020F00100A4
:101D4000C5F89800FFF702FB064604E0FFF7FEFA2D
:101D5000801B02285DD8D5F898008007F6D4E0698A
:101D6000F0B3A968C1F3810103295DD00228286876
:101D700020F08070286003D0FFF7E8FA04464BE0BB
:101D8000FFF7E4FA064604E0FFF7E0FA801B0228BA
:101D90003FD828688001F7D4F4E908016FF00F02FA
:101DA00002EB01110843218A5204490802EB415118
:101DB000A26841EA02210843217D4FF07E42490892
:101DC00002EB41610843217B40EAC160E968324A85
:101DD00011400843E860286840F08070286000E007
:101DE0005EE0E86840F08070E860FFF7AFFA044614
:101DF00005E000BFFFF7AAFA001B022809D82868EF
:101E00008001F7D54CE000BFFFF7A0FA001B0228C5
:101E100002D90320BDE8F88328688001F4D4E8687B
:101E20001E490840E8603BE00128F3D0E868226AD8
:101E300000F00301914226D1616A00F0F00209012D
:101E4000103991421FD1A26A00F4FE41B1EB022F7A
:101E500019D194F82C2000F07841B1EBC26F12D167
:101E6000218E00F4C00249084905A1F500119142F4
:101E700009D194F8341000F0C06049084906A1F176
:101E8000007181420CD00120C4E700000010024024
:101E900028000020007000400C809F01FCFFEEFE37
:101EA0000020B7E77047000038B5016804464A686B
:101EB0008868C043430606D5C30704D1D3435B06F5
:101EC00001D4E16C05E0830708D4D3431B0605D495
:101ED000216D01B02046BDE830400847830603D598
:101EE000430601D5C30551D4D3439B064ED44306C4
:101EF0000AD494F85D30032B49D0236E43F00403D9
:101F00002366CB688B680093830609D4236E43F065
:101F1000010323668B6800930B6823F040030B607A
:101F2000C00506D4206E40F0080020662068806856
:101F30000090206E002829D02068416821F0E0013F
:101F40004160012084F85D00900701D4D00722D0C1
:101F50002068416821F003014160114DA06D40B13E
:101F60008563A06DFEF775FB18B1206E40F0400050
:101F70002066606D002809D08563606DFEF769FBFF
:101F8000002803D0206E40F04000206638BDC868AD
:101F90008868009038BD2046FFF784FF38BD0000F8
:101FA000C129000870B5040009D0606A002540B15D
:101FB00025616561A56294F85D0040B10CE00120E7
:101FC00070BD6068B0F5827FF4D0E561F2E784F817
:101FD0005C50204600F05CF8022084F85D00206828
:101FE000016821F040010160E1684FF4E062914234
:101FF00001D9002001E04FF48050B1F5706F02D09C
:10200000914200D0A562A188228901F4827102F474
:1020100004421143227C02F002021143227D02F0AD
:1020200001021143228B02F400721143227F02F05D
:102030003802114394F8202002F080021143228DCF
:1020400002F40052114322681160A169042202EADD
:10205000114194F8242000F4805002F01002114342
:1020600094F8342002F008021143A28902F470624D
:1020700011430143206841602068C16921F4006177
:10208000C1612566012084F85D00002070BD00005C
:102090002DE9F04786B0064614216846FEF751F94F
:1020A0002E493068884256D12D48016E41F4805146
:1020B0000166016E01F480510591C16C41F001018E
:1020C000C164C06C694600F001000590F0200090EA
:1020D000022001900120029003200390052004902B
:1020E0004FF09040FFF718F81F4C1E48002501C420
:1020F0000A20E4E8020580274FF480784FF4806AD4
:10210000A4E8A0054FF4405964E807591648FEF7C3
:1021100039FB08B1FEF73EFAB465A662124C1148CD
:102120006034143001C40B2001C41020A4E8A105C0
:102130000D4864E807596030FEF724FB08B1FEF74C
:1021400029FA7465002211462320A662FFF76CF974
:102150002320FFF75BF906B0BDE8F08700300140AF
:102160000010024008000240BC02002070B5044686
:1021700090F85D0001282CD121B11AB1A368042583
:1021800013B105E0012070BD6068B0F5827F17D003
:1021900094F85C0001281CD0012084F85C0084F8CD
:1021A0005D50002525662164A4F84420A4F846204B
:1021B000E5642565A587E587B3F5004F0BD014E0EE
:1021C00084F85D502046BDE8704013460A4600F092
:1021D00087B8022070BD21680A6822F040020A60B8
:1021E00021680A6822F480420A6021684A6822F461
:1021F00000524A60E168B1F5E06F05D92068416896
:1022000021F4805141601DE021684A6842F4805207
:102210004A60A16D8969B1F5806F13D121684A6860
:1022200022F480524A60B4F84610C90725D02168CC
:102230004A6842F400524A60B4F8461000EB51007C
:10224000A4F84600A16D1C480863A16D1B48C86234
:10225000A16D1B484863A06D8563B4F846302168C2
:10226000226C0C31A06DFEF7EFFA78B1206E40F0D1
:102270001000206684F85C5084E72068416821F4EF
:1022800000514160B4F846004008D9E72068016871
:10229000490603D4016841F04001016084F85C50B4
:1022A0002068416841F0200141602068416841F0A8
:1022B00001014160002070BDF5290008132A0008C3
:1022C000D329000800680349884202D1024901204D
:1022D000487070470030014038000020704700000F
:1022E00070B5044690F85D006568012806D0B5F524
:1022F000827F32D1A5687DBB04282ED151B34AB369
:1023000043B394F85C00012827D0012084F85C00D6
:1023100094F85D50042D02D0052584F85D50002509
:102320002566A163A387E3872264A4F84430A4F858
:102330004630E564256521684A6822F4C0424A6057
:10234000E168B1F5E06F0AD92068416821F4805155
:10235000416035E0012070BDFFE70220FBE7216806
:102360004A6842F480524A60616D4FF48062896924
:1023700091420CD194F83C10C90721684B6838D0C1
:1023800043F480434B60E18F00EB5101E187A16D85
:102390008969914214D121684A6822F480524A60C6
:1023A000B4F84610C9072AD021684A6842F400529E
:1023B0004A60B4F8461000EB510000BFA4F8460094
:1023C00094F85D00042823D0A16D2D4808632D48A2
:1023D000A16DC862A16D2C484863A06D8563B4F8F7
:1023E00046302168226C0C31A06DFEF72DFA48BBF7
:1023F00013E023F480434B60E18F4908C6E720686F
:10240000416821F400514160B4F846004008D5E726
:10241000A16D1E4808631E48DAE72068416841F054
:1024200001014160606D0563606DC562606D45636B
:10243000606D8563E38F2268A16B0C32606DFEF7DF
:1024400003FA30B1206E40F01000206684F85C5032
:1024500080E720680168490603D4016841F0400123
:10246000016084F85C502068416841F020014160BF
:102470002068416841F00201416000206BE70000E4
:10248000092A0008E32A0008D3290008F5290008D2
:10249000132A000870B5044690F85D0001281ED18B
:1024A000D9B1D2B194F85C00012818D0012084F889
:1024B0005C00032384F85D3000252566A163A287B4
:1024C000E28725642565E564A4F84450A4F84650E5
:1024D000A168B1F5004F04D00DE0012070BD0220CD
:1024E00070BD21680A6822F040020A6021680A680B
:1024F00042F480420A60626D28491163626D284986
:10250000D162626D27495163616D8D6321684A68AC
:1025100022F480424A60E168B1F5E06F10D8616D45
:102520008969B1F5806F0BD1E18FC90717D0216898
:102530004A6842F480424A60E18F00EB5100E08734
:10254000E38F2268A16B0C32606DFEF77DF970B1EC
:10255000206E40F01000206684F85C50BDE72068D3
:10256000416821F480414160E08F4008E7E720683E
:102570000168490603D4016841F04001016084F814
:102580005C502068416841F020014160206841684A
:1025900041F002014160002070BD0000FF290008E9
:1025A0007F2A0008D329000800680349884202D125
:1025B0000249012088707047003001403800002037
:1025C00070477047704710B5401EB0F1807F01D34F
:1025D000012010BD4FF0E02460610F21601700F072
:1025E0003EFD0020A06107202061002010BDFEE715
:1025F000114808B5816C41F004018164816C01F0DF
:1026000004010091816C41F001018164806C002221
:1026100000F00100009011460B20FEF705FF0B2093
:10262000FEF7F4FE002211460C20FEF7FDFEBDE889
:1026300008400C20FEF7EABE0010024010B5124818
:10264000104901220160002141608160C160027473
:10265000417481740A23436104230C24C0E90634C5
:10266000C0E908328262C2620263C0E90D21C1631F
:10267000FEF74EFB002803D0BDE81040FDF78ABFEF
:1026800010BD0000006400402C010020124810B56D
:1026900010490160002141608160C1600174417492
:1026A00081740A22426104220C23C0E906230262DB
:1026B000012242628262C2620263C0E90D21C163EB
:1026C000FEF726FB002803D0BDE81040FDF762BFEF
:1026D00010BD00000068004090010020124810B5B5
:1026E00010490160002141608160C1600174417442
:1026F00081740A22426104220C23C0E9062302628B
:10270000012242628262C2620263C0E90D21C1639A
:10271000FEF7FEFA002803D0BDE81040FDF73ABFEF
:1027200010BD0000006C0040F40100200D4808B509
:10273000C16C41F02001C164C16C01F02001009125
:10274000C16C41F00101C164C16C01F00101009153
:10275000C16C41F00201C164C06C00F00200009045
:1027600008BD0000001002400F4810B50D4901607F
:1027700000214FF470624160C0E9021201614161C1
:102780008161016207224162C0E90A12016341636B
:10279000FFF708FC002803D0BDE81040FDF7FABEA3
:1027A00010BD00000030014058020020FEE700008C
:1027B000F0B590ED001A6F4BDFED6F1A9FED6F0AC9
:1027C000B5EEC01AF1EE10FA02D2B0EE611A05E0D1
:1027D00011EE102A9A4201DDB0EE401A81EE002A75
:1027E0009FED671AB6EE000A664BF0EE400A42EE25
:1027F000010AB1EE042AFCEEE00A10EE902AD0EDB8
:10280000010A96B2F5EEC00AF1EE10FA02D2F0EE2D
:10281000610A05E010EE902A9A4201DDF0EE420ACC
:10282000C0EE821A9FED582AF0EE400A41EE820A6D
:10283000FCEEE00A10EE902A93B2B3F5007F01D3CC
:1028400040F2FF13D0ED020A504D10EE902A504C8A
:10285000F2EE091AAA4202D9FAEE090A05E010EED0
:10286000902AA24201DDF0EE610AB3EE092A70EE71
:10287000A10AC0EE821A9FED472AF0EE400A464FA9
:10288000464D41EE820AF3EE021AFCEEE00A10EE2B
:10289000902AD0ED030A94B210EE902ABA4202D9DF
:1028A000FBEE020A05E010EE902AAA4201DDF0EEEE
:1028B000610A9FED3B2A70EEA10A4FF4805C40F65E
:1028C000FF77C0EE821AF0EE400A41EE810AFCEE7C
:1028D000E00A10EE902A95B2654500D33D46D0ED52
:1028E000040ADFF8C0E010EE900A2F4AF3EE0E1A49
:1028F000704502D9FBEE0E0A05E010EE900A9042F8
:1029000001DDF0EE610A9FED292A70EEA11AC1EEF9
:10291000820A00EE810ABCEEC00A10EE100A82B2F2
:10292000624500D33A463005C608D80546EAD0309D
:10293000260640EA1423C5F30B04200D1843030EAA
:102940000B70030C4B70030A46EA0434C2F30B020B
:102950008B702243130EC87043EA00230B71130CD3
:1029600043EA00434B71030643EA12208871CA719F
:10297000F0BD00000000FA43000000000000FA4330
:1029800000F07F450000A0400080FF43000048C1E8
:102990000000484100FF7F47000090C100009041C7
:1029A000000010420000F0C10000F0410000704241
:1029B000FEE770470148FFF777BA00005802002091
:1029C00010B5806A0021A0F84610C187FFF76AFAA7
:1029D00010BD10B5806A01684A6822F003024A609F
:1029E000016E41F010010166012180F85D10FFF7D2
:1029F00059FA10BD10B5806AFFF770FC10BD10B514
:102A0000806AFFF7DDFD10BD10B5806AFFF7DAFDC3
:102A100010BD70B50546846AFEF798FC024628682A
:102A20000068800627D42068416821F020014160B9
:102A3000A06818B96068B0F5827F17D02068416837
:102A400021F0010141606421204600F078F808B1CE
:102A5000202020660020A4F84600012084F85D00B4
:102A6000206E40B12046FFF71DFA70BD2068416816
:102A700021F00301E6E72046FFF724FC70BD38B5DE
:102A80000546846AFEF762FC0246286800688006F4
:102A900023D42068416821F020014160206841680A
:102AA00021F0020141606421204600F082F818B153
:102AB000206E40F020002066A068002118B9206830
:102AC000C26880680090E187012084F85D00206E74
:102AD00018B12046FFF7E6F938BD2046FFF764FD40
:102AE00038BD70B50546846AFEF730FC024628689A
:102AF000006880061FD42068416821F020014160F1
:102B00006421204600F055F818B1206E40F02000F6
:102B100020662068416821F0030141600020E087C1
:102B2000A4F84600012084F85D00206E18B120460C
:102B3000FFF7B8F970BD2046FFF743FD70BD2DE9E2
:102B4000F843044640684FF48276154689464FF4B0
:102B500000474FF48068B04209D1A068B84201D064
:102B6000404504D12068016821F0400101604B46D6
:102B7000002280212046009500F0B0F880B96068FE
:102B8000B04214D1A068B84201D040450FD14B46A5
:102B900000224FF4C0612046009500F02FF830B1BC
:102BA000206E40F0200020660320BDE8F88300205E
:102BB000FBE7F8B515460E460B4600920446002288
:102BC0004FF4C05100F01AF888B933460022802132
:102BD0002046009500F082F848B9334600224FF4B1
:102BE000C0612046009500F009F8002804D0206E4E
:102BF00040F0200020660320F8BD00002DE9FE4FC4
:102C00004FF0000A984617460E4604460C9D8DF874
:102C100004A0FEF79BFB411BA8EB0105FEF796FB0A
:102C2000814620684FF4C06B0C3002902A4800683F
:102C3000C0EBC00000EB8000000D6843009016E080
:102C40005E4506D12FB9029800788DF804009DF8F2
:102C50000400B8F1FF3F0AD0FEF778FBA0EB0900B3
:102C6000A8420CD25DB1009898B3401E0090206835
:102C700080683040B842E3D10020BDE8FE8F206874
:102C8000416821F0E00141606068B0F5827F0BD1BE
:102C9000A068B0F5004F02D0B0F5806F04D1206875
:102CA000016821F040010160A06AB0F5005F09D120
:102CB0002068016821F4005101602068016841F436
:102CC00000510160012084F85D0084F85CA00320BD
:102CD000D3E7FFE70025CAE7340000202DE9F843D9
:102CE0001E46914688460446089DFEF72FFB401B72
:102CF000351AFEF72BFB074626480068C0F3CB3099
:102D000068430AE0701C09D0FEF720FBC01BA842F4
:102D10000FD275B10098B8B3401E0090206881684A
:102D200038EA010033D000214945EBD10020BDE84D
:102D3000F8832068416821F0E00141606068B0F5E7
:102D4000827F0BD1A068B0F5004F02D0B0F5806F44
:102D500004D12068016821F040010160A06AB0F54B
:102D6000005F09D12068016821F4005101602068EA
:102D7000016841F400510160012084F85D000020E9
:102D800084F85C000320D2E7FFE70025C6E70121B5
:102D9000CAE70000340000207047000000B58DB085
:102DA000C90715D00AAB6A464021FDF773FE00281B
:102DB0000ED100980A4AC1B20020135C8B4209D19F
:102DC000084901EBC0000A9940F8A31F0B99416024
:102DD0000DB000BD401CC0B20928EED3F8E70000DA
:102DE000B23000083800002010B5F4212248FDF769
:102DF000A8FA2248FDF748FB2148FDF745FB21488A
:102E0000FDF742FB1D48FEF76AF908B1FDF7C2FB6A
:102E10001B48FEF764F908B1FDF7BCFB1948FEF743
:102E20005EF908B1FDF7B6FB002201211348FDF75A
:102E300051FD08B1FDF7AEFB002201211048FDF75E
:102E400049FD08B1FDF7A6FB002201210D48FDF761
:102E500041FD08B1FDF79EFB074C2822E11C0A4802
:102E6000FFF784F908B1FDF795FB01202070FEF70C
:102E70006DFAC4F8EC0010BD380000202C010020D1
:102E800090010020F40100205802002010B50F4CE2
:102E9000AA20092104F8530F552084F84F00002080
:102EA0006070A1700949482291F8F010E17020711A
:102EB00006496071A331A01DFDF7FEF94E212046A1
:102EC000FDF7D6FA84F84E0010BD0000380000204F
:102ED00030B51F4C87B00025607868B1657000F090
:102EE0003BF8FFF7D3FF282204F153011948FFF7FD
:102EF000D1FA08B1FDF74EFBA07840B1A5702822A9
:102F0000E11C1448FFF732F908B1FDF743FBFEF767
:102F10001DFAD4F8EC10401AB0F57A7F16D9059551
:102F2000142168460695FDF70CFA05A96846FFF7D7
:102F30003FFC002505A9284600F036F86D1CEDB2CF
:102F4000092DF7D3FEF702FAC4F8EC0007B030BD44
:102F5000380000205802002070B5124EF51CF078A1
:102F6000AA281DD195F84F00552819D14E21284681
:102F7000FDF77EFA95F84E10814211D1E87886F877
:102F8000F000002405EBC4012046891D00F00CF878
:102F9000641CE4B2092CF5D3FEF7D8F9C6F8EC00AE
:102FA00070BD00003800002000B589B0092813D298
:102FB0000A4A0023125CCDE900230822CDE902323F
:102FC000074A0493059306930793089352F8200049
:102FD0000A466946FDF7EEFC09B000BDB2300008B4
:102FE00000000020FEF7B8B910B594B0382168464B
:102FF000FDF7A7F914210EA8FDF7A3F90020FEF7AD
:1030000045FA012000900004019002200324CDE93C
:1030100007045521CDE909010B900C900D906846ED
:10302000FEF73EFD08B172B6FEE70F20CDE90E04B3
:10303000002010901190129004210EA8FEF70CFCB5
:10304000002801D072B6FEE714B010BD0248016836
:1030500041F470010160704788ED00E0FEE7090768
:10306000090E002804DB00F1E02080F8001470470E
:1030700000F00F0000F1E02080F8141D7047FEF70B
:1030800073F9FFF7B1FFFFF751FBFFF7B1FAFFF755
:10309000D5FAFFF7FBFAFFF721FBFFF765FBFFF718
:1030A000A3FEFFF715FFFCE74FF04070E1EE100ABA
:1030B00070470405060708090A0B0C000102030407
:1030C000050607080C10141820304000000000000E
:1030D000000000010203040607080900FC30000894
:1030E00000000020380000001402000834310008FD
:1030F00038000020A8090000300200082C01002040
:103100002C0100202C0100209001002090010020C3
:1031100090010020F4010020F4010020F4010020BF
:10312000000000001000000001000000000000008E
:043130000024F40083
:04000005080001D915
:00000001FF
