:020000040800F2
:10000000E82F002479030008657B0008336F00089F
:100010001977000849070008C9AD00080000000072
:10002000000000000000000000000000F58400084F
:10003000510C000800000000E37C00080185000866
:100040009703000897030008970300089703000828
:100050009703000897030008970300089703000818
:100060009703000897030008970300089703000808
:10007000010800080D08000897030008970300080E
:10008000970300089703000897030008750C000801
:1000900097030008970300089703000897030008D8
:1000A00097030008970300089703000897030008C8
:1000B00097030008970300089703000897030008B8
:1000C000970300089703000897030008E9820008D7
:1000D0009703000897030008970300089703000898
:1000E000970300089703000800000000970300082A
:1000F0009703000897030008970300089703000878
:100100009703000897030008970300089703000867
:10011000058C000897030008970300089703000860
:100120009703000897030008970300089703000847
:10013000970300089703000897030008810C000844
:1001400000000000000000000000000000000000AF
:100150009703000897030008970300089703000817
:100160009703000897030008970300089703000807
:100170009703000897030008970300080000000099
:1001800097030008970300089703000897030008E7
:1001900097030008970300089703000897030008D7
:1001A00097030008970300089703000897030008C7
:1001B00097030008970300089703000897030008B7
:1001C00097030008970300089703000897030008A7
:1001D00097030008697B000897030008970300084D
:1001E0009703000897030008970300089703000887
:1001F0009703000897030008970300089703000877
:100200009703000897030008970300089703000866
:100210009703000897030008970300089703000856
:1002200097030008970300089703000800000000E8
:1002300097030008970300080000000097030008D8
:100240009703000897030008970300089703000826
:100250009703000897030008970300089703000816
:100260009703000897030008970300089703000806
:100270009703000897030008970300080000000098
:100280009703000897030008970300080000000088
:10029000000000009703000800F002F800F05CF88E
:1002A0000AA090E8000C82448344AAF10107DA45D1
:1002B00001D100F051F8AFF2090EBAE80F0013F0C7
:1002C000010F18BFFB1A43F00103184760AC000090
:1002D00080AC00000A444FF0000C10F8013B13F012
:1002E000070408BF10F8014B1D1108BF10F8015B8F
:1002F000641E05D010F8016B641E01F8016BF9D182
:1003000013F0080F1EBF10F8014BAD1C0C1B09D1D8
:100310006D1E58BF01F801CBFAD505E014F8016B4A
:1003200001F8016B6D1EF9D59142D6D370470000DC
:100330000023002400250026103A28BF78C1FBD8EE
:10034000520728BF30C148BF0B6070471FB50AF085
:100350009AFD1FBD10B510BD00F027F91146FFF73B
:10036000F5FF0AF043FD00F045F903B4FFF7F2FF93
:1003700003BC00F04FF900000A4880470A48804754
:100380000A480047FEE7FEE7FEE7FEE7FEE7FEE776
:10039000FEE7FEE7FEE7FEE705480649064A074B8B
:1003A00070470000590C0008AD850008990200084C
:1003B000E8290024E82F0024E82B0024E82B00245F
:1003C00053EA020C00F069802DE9F04B4FF0000673
:1003D000002B1FBFB3FA83F503FA05F424FA05F6E0
:1003E0005E4012BF1643B2FA82F502FA05F4C5F177
:1003F00020051EBF22FA05FC44EA0C04203556EA0B
:10040000044C4FEA144418BF641C4FF000084FF02E
:100410000009904271EB030C39D3002919BFB1FADE
:1004200081F701FA07F6B0FA80F700FA07F6C7F18C
:1004300020071EBF20FA07FC46EA0C062037B6FB51
:10044000F4FCA7EB0507103F07F01F0BCBF12006CC
:100450000CFA0BFB2CFA06F644BFB3460026202FFD
:10046000A4BF5E464FF0000B5BEA060C08BF4FF0DE
:10047000010B19EB0B09ABFB027C48EB0608C01B18
:1004800006FB02CC0BFB03CC71EB0C01C1E70B4666
:10049000024641464846BDE8F08B13B54FF00000D8
:1004A0004FF00001AFF30080BDE81C40704710B56D
:1004B000203AC0F00B80B1E81850203AA0E818505C
:1004C000B1E81850A0E81850BFF4F5AF5FEA027C1D
:1004D00024BFB1E81850A0E8185044BF18C918C08C
:1004E000BDE810405FEA827C24BF51F8043B40F82D
:1004F000043B08BF7047D20728BF31F8023B48BF12
:1005000011F8012B28BF20F8023B48BF00F8012B4F
:1005100070474FF000020429C0F0128010F0030C65
:1005200000F01B80CCF1040CBCF1020F18BF00F8E6
:10053000012BA8BF20F8022BA1EB0C0100F00DB895
:100540005FEAC17C24BF00F8012B00F8012B48BFF3
:1005500000F8012B70474FF0000200B51346944697
:100560009646203922BFA0E80C50A0E80C50B1F10B
:100570002001BFF4F7AF090728BFA0E80C5048BF1F
:100580000CC05DF804EB890028BF40F8042B08BFBD
:10059000704748BF20F8022B11F0804F18BF00F8B9
:1005A000012B7047704770477047754600F02CF874
:1005B000AE4605006946534620F00700854618B050
:1005C00020B5FFF7E9FEBDE820404FF000064FF0F0
:1005D00000074FF000084FF0000B21F00701AC4678
:1005E000ACE8C009ACE8C009ACE8C009ACE8C00997
:1005F0008D46704710B50446AFF300802046BDE835
:100600001040FFF7B2BE0000004870478829002460
:100610007047000001491820ABBEFEE7260002002B
:1006200070B53A4905460068884202D0384A90427F
:1006300002D1D1F8080302E03648D0F8080310F4DC
:10064000403F11D004F0F4FF04466868B0F5803FE5
:1006500006D0B0F5003F03D0B0F5403F27D101E010
:10066000000C18E0A40822E000214FF4002004F060
:1006700077F8044668688103890B18D181140C2926
:1006800015D2DFE801F0140606060606060B0D0F6C
:100690001113800C4000B4FBF0F408E0240906E0DC
:1006A000640904E0A40902E0E40900E0240A02F07D
:1006B000E7FF41F20301884208D8174884422868BE
:1006C000816813D821F48071816070BD134960087E
:1006D000884204D82868816821F44071F4E7104901
:1006E000884206D82868816821F4407141F48071FD
:1006F000EAE70C4988422868816804D821F44071EF
:1007000041F40071E0E741F44071DDE70020024070
:100710000021024000600258002D3101105E5F0090
:1007200020BCBE0040787D010148002106F0D4B80D
:10073000C80C00244FF47A7000F008B8014800217A
:1007400006F0CAB8C80C0024FEE7000070B1084AE1
:100750000849B2FBF0F00B68401ED862C860096817
:10076000400848630021034806F02EB8FFF7DCBFBD
:1007700040420F00C80C0024002070470020704742
:1007800005490022054810B508F056FF0449034802
:1007900008F045FF002010BD841A0024A80D002495
:1007A0008412002410B50446088881B2204607F060
:1007B000F3FB0448214608F032FF024808F008FF26
:1007C000002010BDA80D002410B507F067FC002024
:1007D00010BD0000094A10B5D2F8BC22D2F814228C
:1007E0000AB1012010BD0A460146044808F024FF62
:1007F000BDE81040014808F095BF0000A80D002496
:10080000014801F07DBA0000500C0024014801F0BD
:1008100077BA0000D80B0024294A016891423AD0E7
:10082000274A1832914236D0254A3032914232D08E
:10083000234A483291422ED0214A603291422AD036
:100840001F4A7832914226D01D4A9032914222D0DE
:100850001B4AA83291421ED01A4A91421BD0194A13
:100860001832914217D0174A3032914213D0154AAC
:10087000483291420FD0134A603291420BD0114A54
:100880007832914207D00F4A9032914203D00D4AFC
:10089000A832914211D1CAB21823103AB2FBF3F236
:1008A0006FF30901032A02F00703074AD25CC2650D
:1008B00000D9091D81650846704721F0FF01F9E75D
:1008C000100002401004024090AE000830B5224AE9
:1008D000012301689142CAB21BD01F4C1434A142BB
:1008E00017D01D4C2834A14213D01B4C3C34A142DC
:1008F0000FD0194C5034A1420BD0174C6434A14294
:1009000007D0154C7834A14203D0134C8C34A1424B
:100910000CD11421114C083AB2FBF1F10F4A80328C
:1009200001F01F0504EB8101AB4010E00C4D1824D1
:10093000103A0D44B2FBF4F1A82D00D80831094A51
:1009400001F01F0402EB8101064AA34080326030AF
:1009500080E80E0030BD00000854025800580258CC
:10096000F0FBFDBF0008024010B50279531E072BB3
:100970002DD8174C0168A1421BD0154C1434A1424C
:1009800017D0134C2834A14213D0114C3C34A1424F
:100990000FD00F4C5034A1420BD00D4C6434A14207
:1009A00007D00B4C7834A14203D0094C8C34A142BF
:1009B00003D10849074C443102E00749064C443151
:1009C00004EB8202C0E91B2101219940416710BD5F
:1009D00008540258FC580258FC08024010B58369BC
:1009E0004FF0C074826A0146002053B1B3F5005F36
:1009F00015D072B1012A0CD0022A0AD0032A09D1DB
:100A000004E01AB1012A06D0022A03D1C96AC90139
:100A100000D5012010BDC96AA142FAD010BD002A3C
:100A2000F7D0012AF2D0022AF3D0032AF3D010BD66
:100A30002DE9F04F804E804FDFF8FC911836DFF83B
:100A4000F8A148370468856D0AF1300ADFF8ECB187
:100A50004C45DFF8ECC1DFF8ECE16DD0B4426BD06F
:100A6000544569D0BC4267D0DFF8D081A8F118089E
:100A7000444561D05C455FD064455DD074455BD032
:100A8000DFF8C481444557D0DFF8BC8108F118086D
:100A9000444551D0DFF8B08108F1300844454BD0CF
:100AA000DFF8A48108F14808444545D0DFF8988173
:100AB00008F1600844453FD0DFF88C8108F17808E0
:100AC000444539D0DFF8808108F19008444533D09F
:100AD000DFF8748108F1A80844452DD0DFF86C8157
:100AE000444529D0DFF8648108F11408444523D037
:100AF000DFF8588108F1280844451DD0DFF84C8103
:100B000008F13C08444517D0DFF8408108F150084F
:100B1000444511D0DFF8348108F1640844450BD016
:100B2000DFF8288108F17808444505D0DFF81C81FA
:100B300008F18C08444509D1D0E91948C4F804806B
:100B4000C46E1CB1D0E91C48C4F8048004684C454C
:100B50002ED0B4422CD054452AD0BC4228D0374E97
:100B6000183EB44224D05C4522D0644520D0744560
:100B70001ED0354EB4421BD0334E1836B44217D077
:100B8000314E3036B44213D02F4E4836B4420FD0D7
:100B90002D4E6036B4420BD02B4E7836B44207D07F
:100BA000294E9036B44203D0274EA836B44215D110
:100BB00090F85C603F2406F01F06B440AC60046807
:100BC000256825F4802525602EE09A600068C160C4
:100BD000BDE8F08F99600068C260F9E71B4EB4422F
:100BE0001BD01A4E1436B44217D0184E2836B442D1
:100BF00013D0164E3C36B4420FD0144E5036B44289
:100C00000BD0124E6436B44207D0104E7836B44240
:100C100003D00E4E8C36B442DAD190F85C600124D9
:100C200006F01F06B4406C60046863608368402B64
:100C30000368CFD1C9E700001000024088000240DD
:100C4000A0000240B80002401004024008540258BC
:100C5000704772B6FEE7000005480549083902688A
:100C600042F00202026008688004FCD57047000070
:100C70000C480258014802F07BB80000B00A00247A
:100C8000014802F075B80000B00A0024F0B503680E
:100C90004FF6FC716D4C426BD3F884508D4345EA9E
:100CA0008205C3F88450036853F8845F068F25F4E7
:100CB0007F0545EA06451D60836B654D9F180268F8
:100CC000D2F888308B4343EA8703C2F88830026841
:100CD00052F8883F868F23F4FE0343EA06431360ED
:100CE000066856F8A03FC26B8B4307EB420243EA0B
:100CF00082033360076857F8A03FB0F8406023F4E0
:100D0000FE0343EA06433B60D0E9103603FB0622AC
:100D10000368D3F8B0608E4346EA8206C3F8B06039
:100D20000368B0F84860D3F8B07027F4FE0747EACC
:100D30000646C3F8B060D0E91267036806FB0722D5
:100D4000D3F8AC608E4346EA8206C3F8AC60D0E9C3
:100D50001467036806FB0722D3F8F0608E4346EA67
:100D60008206C3F8F0600368B0F85860D3F8F070FA
:100D700027F47C1747EA0646C3F8F0600368876DDE
:100D800053F8C06F02EB47028E4346EA82011960B6
:100D90000168B0F85C20D1F8C03023F47C1343EA3A
:100DA0000242C1F8C020016890F86020D1F8C0303C
:100DB00023F07C5343EA0262C1F8C020416B04EB8C
:100DC0008101C166826B01EB82020267C36B02EB99
:100DD000C3024267D0E91034634302EB83028267A7
:100DE000D0E91234634302EB8302C267D0E91434C2
:100DF000634302EB8302C0F88020836D02EBC303E0
:100E0000C0F88430C46D826E544303EB8403C0F891
:100E10008830046E544303EB8402C0F89020AA4249
:100E20000AD9D0F89C20032142F02002C0F89C206F
:100E300080F898100120F0BD002200E004C1D0F835
:100E400090308B42FAD80020F0BD000000AC00408A
:100E5000FCD30040F0B58E680C69D1E9005744EA34
:100E60000604DFB145F080452C43866ED1E906C506
:100E70004F695E4391F8203045EA0C05B1F80CC08B
:100E8000D0F884E0002047EA0363104F1D430EEBC7
:100E9000860345EA0C45E3E8024511E044EA85444F
:100EA000E3E71418155CA67894F803C094F801E001
:100EB000360445EA0C6446EA0E252C43001D10C397
:100EC000CC683C5D8442ECD8F0BD000098AE0008D0
:100ED000002804D002494FF49072FFF7E8BA704737
:100EE000C001002400B5164889B04FF49071FFF797
:100EF00032FB13490020012240F2FF730C390860D5
:100F00004860886069460090CDE90202CDE904039B
:100F100001900C4801F022FE08B1FFF79AFE094843
:100F200002F06FFA08B1FFF794FE06480022012193
:100F300001F09CFD002801D0FFF78BFE09B000BD39
:100F4000C0010024B00A00242DE9F0470F4690F8B4
:100F500050109AB0044601294FF0000915D0002620
:100F6000DFF8F880012084F8500015961696216865
:100F700041450ED13A4D0095284606F0D9F98246F2
:100F8000206806F0D5F960B10EE002201AB0BDE885
:100F9000F087606D84F8506040F0200060650120AB
:100FA000F4E7BAF1000F09D0616D4FF0010941F08B
:100FB00020006065484684F85060E7E720684146B5
:100FC000884201D0A84201D1264800E0264840F6D8
:100FD0001F72D7F800C0254BBCF1000F23D0D0F80A
:100FE00008C0D7F804802CF4404C4CEA080CC0F838
:100FF00008C0D4F800C08C4501D0AC4507D1896841
:10100000AB6801F0010103F00103194302E09968A4
:1010100001F001010029CDD1BD68396883682943F9
:101020009343194317E0876827F440478760276890
:101030008F4201D0AF4207D18968AB6801F001014E
:1010400003F00103194302E0996801F0010100294E
:10105000B0D1816891438160ACE70000002002407C
:101060000021024000230240006302580060025841
:101070002DE9F84F0446EB4E0020DFF8ACB30090AA
:10108000002794F850000D46DFF8A0A3012808D0EF
:101090004FF0010984F85090206806F045F918B126
:1010A00071E10220BDE8F88F286800280EDB216876
:1010B0000303CA6928D090FAA0F0B0FA80F000BF0C
:1010C00000F01F0309FA03F00243CA61D5E90012D8
:1010D0004FF00C0C20681F23C1F384610CEA921CB2
:1010E00002F01F02604493409140026B9A430A430E
:1010F0000263206806F018F98046206806F010F9AF
:1011000058EA000003D08DE0C0F38460D8E72A6875
:10111000042320684FF0070CA96803EAD25318444F
:101120004369C2F304520CFA02FC914023EA0C0317
:101130000B434361BE490968B9EB117F06D12168B1
:101140006869C968C1F38201490008E02068C16884
:10115000C906C1686869F5D501F0100149088840E1
:10116000296904292ED023682A6803EB810102F043
:10117000F8420B6E024303F0004010430866697E9C
:1011800022682869012917D05FF0000102EB800076
:10119000026E22F000420A430266297E20682A6914
:1011A00001290CD00021036902F01F02914023F4B1
:1011B000F0420A43026135E04FF00041E6E74FF4A8
:1011C0000061F0E720682978026E02F0F842B2EB85
:1011D000816F03D1016E21F00041016620682978FA
:1011E000426E02F0F842B2EB816F03D1416E21F002
:1011F0000041416620682978826E02F0F842B2EB25
:10120000816F03D1816E21F00041816620682978C9
:10121000C26E02F0F842B2EB816F03D1C16E21F0D1
:101220000041C1662068816811F0010F72D150F849
:10123000C03F2A7BDFF8FCC1296802F018022CFAB3
:1012400002FCC1F3130823EA08030CEA010C43EA89
:101250000C030360E96859456CD177482268DFF8D0
:10126000DCC1DFF8DCB18242DFF8D8E17648774BA9
:10127000DFF8DC8122D12968614524D0B1EB4C0C28
:1012800038D0A1F1496CBCF1080C35D0A1F1865CD5
:10129000BCF1100C32D0DFF8BCC1614528D07145DB
:1012A0003AD0814230D0994232D06B48814201D14C
:1012B0006A4831E041452ED169482DE0B2422AD139
:1012C0002968614501D1012026E0A1F1066CBCF13D
:1012D000040C0FD0A1F1496CBCF1080C0CD0A1F1A9
:1012E000865CBCF1100C09D0DFF868C1614507D1FC
:1012F0005C4811E058460FE05B480DE05B480BE0AE
:10130000714509D0814201D1184605E09942D1D1F9
:10131000574801E03CE00020D16903031AD090FA5D
:10132000A0F0B0FA80F000BF00F01F0309FA03F04C
:101330000143D161D5F800C0BCF1000F28DA3E4B63
:1013400020684C49DFF83091984201D0B04203D177
:101350000A4602E0800EE7E74A469268984202F0A9
:10136000E07201D0B04209D19D68D6F8088005F03E
:10137000010508F0010845EA080503E0DAF808501D
:1013800005F001054DB1606D012740F0200060655A
:10139000002084F85000384684E6384DAC451CD116
:1013A00015021AD45045F3D1984202D0B04200D071
:1013B00049468B6842F4000023F0E07202438A60E1
:1013C00030492F480968B1FBF0F04000801C00E074
:1013D000401E00900028FBD1DAE72B4DAC450CD124
:1013E000D5010AD45045D3D1984202D0B04200D0A2
:1013F00049468B6842F080700EE0244DAC45C7D161
:101400005502C5D45045C3D1984202D0B04200D055
:1014100049468B6842F4800023F0E07202438A6000
:10142000B6E70000002102400000FF4700600258BC
:101430000010005CFFFF0F0000200240020030049B
:10144000400020190004002A0008302E00106032ED
:101450000000844B2000F01400002143000052479C
:101460000000B84F0002B0258000501D000180210F
:10147000002090360023024000630258000084CB15
:10148000400D030098000024000052C70000B8CFB0
:10149000F8B54FF0000604003546009602D0606DA6
:1014A00010B107E00120F8BD204600F005F9A6655F
:1014B00084F8506020688168C1F3407119B1816877
:1014C000704A1140816020688168C1F3007181B960
:1014D00081686D4A114041F0805181606C496B48D0
:1014E0000968B1FBF0F0401C00E0401E00900028AD
:1014F000FBD120688168C1F3007141B9616D01259C
:1015000041F010016165A16D41F00101A16505F097
:101510000BFF616DC90600D420B1606D012540F05C
:10152000100093E0606D20F4807040F00200606570
:101530002068816811F0010F1FD1564A564B904226
:1015400001D0984207D191689E6801F0010106F030
:101550000106314303E05149896801F0010161B995
:10156000904201D0984201D14D4800E04D48826838
:10157000616822F47C120A43826002F081F841F231
:101580000301884202D9A06810280CD0617D227F17
:10159000A368206B490341EA024118430843217FB5
:1015A00001290CD010E0607D227F216B400340EACE
:1015B000024241F01000104340F00C00EFE7218C94
:1015C000394A02EB41410843616A29B1A26A01F438
:1015D0007871014342EA01002168344BCA681A401D
:1015E0000243CA60206805F09FFE0646206805F0A9
:1015F00097FE30431DD1216844F20303267DE26A41
:10160000C86842EA863298431043C86094F83800AC
:1016100001281ED02068016921F0010101612068C4
:10162000626B016921F07041114301612046FEF7B0
:10163000F7FFE068012820681CD0016B21F00F0142
:101640000163606D20F0020040F0010060652846F3
:10165000F8BD2068A28F164FD4E9101C154E07EB79
:101660000247A36C026941EA0C013B433240194333
:101670001143D3E7A269016B521E21F00F01114300
:10168000DEE70000C0FFFF5FC0FFFF7F400D0300EB
:10169000980000240020024000210240006002580F
:1016A00000230240006302580000FEFF03C0F0FF69
:1016B0000100FFFF1EF800FC10B586B0044614219F
:1016C0006846FEF748FF1149206888421BD1104840
:1016D000016841F020010160006800F020000590E1
:1016E0000B480830016841F00401016000680321E3
:1016F000002200F00400059010208DE80700054846
:10170000694601F0A1FE06B010BD000000200240B5
:10171000D8440258000802582DE9F84F044601F059
:10172000B5FF00903CB194F83500022806D0802126
:1017300061650020E4E00120BDE8F88FC74DC74E89
:10174000C649183520683036DFF81483DFF8149363
:101750008842DFF814A3DFF814B32ED0A8422CD0AF
:10176000B0422AD0404528D0484526D0504524D004
:10177000584522D0BD4A183290421ED0BC4A9042F1
:101780001BD0BB4A1832904217D0B94A303290422F
:1017900013D0B74A483290420FD0B54A60329042D7
:1017A0000BD0B34A7832904207D0B14A903290427F
:1017B00003D0AF4AA832904209D1026822F01E023B
:1017C00002602068426922F08002426103E0026800
:1017D00022F00E02026027688F4238464DD0A842A0
:1017E0004BD0B04249D0404547D0484545D0504500
:1017F00043D0584541D09D4A183290423DD09C4A32
:1018000090423AD09A4A1832904236D0984A3032B2
:10181000904232D0964A483290422ED0944A60325A
:1018200090422AD0924A7832904226D0904A903202
:10183000904222D08E4AA83290421ED08D4A9042C9
:101840001BD08C4A1432904217D08A4A28329042D8
:1018500013D0884A3C3290420FD0864A5032904290
:101860000BD0844A6432904207D0824A7832904248
:1018700003D0804A8C32974204D1206E026822F451
:101880008072026075492068884228D0A84226D01C
:10189000B04224D0404522D0484520D050451ED0EB
:1018A00058451CD071491831884218D07049884277
:1018B00015D06F491831884211D06D4930318842B6
:1018C0000DD06B494831884209D06949603188425E
:1018D00005D067497831884201D065499031016867
:1018E00021F0010101600EE001F0D0FE0099401AE4
:1018F000052808D9202262650321002084F83510CC
:1019000084F8340017E73868C007EDD1534A012145
:10191000206890422ED0A8422CD0B0422AD0404518
:1019200028D0484526D0504524D0584522D04F4B8A
:10193000183398421ED04E4B98421BD04C4B183354
:10194000984217D04A4B3033984213D0484B483313
:1019500098420FD0464B603398420BD0444B7833BB
:10196000984207D0424B9033984203D0404BA83363
:10197000984208D194F85C703F23A06D07F01F07D0
:10198000BB40836007E094F85C30A06D03F01F0358
:1019900001FA03F34360206890424DD0A8424BD037
:1019A000B04249D0404547D0484545D0504543D046
:1019B000584541D02D4A183290423DD02C4A904291
:1019C0003AD02B4A1832904236D0294A30329042CF
:1019D00032D0274A483290422ED0254A6032904277
:1019E0002AD0234A7832904226D0214A903290421F
:1019F00022D01F4AA83290421ED01E4A90421BD0CD
:101A00001C4A1432904217D01A4A2832904213D0FE
:101A1000184A3C3290420FD0164A503290420BD0B6
:101A2000144A6432904207D0124A7832904203D06E
:101A3000104A8C3290420BD1D4E919024260E06E18
:101A400030B1026822F480720260D4E91C02426064
:101A5000002084F8351084F834006DE61000024050
:101A6000580002407000024088000240A00002407E
:101A700010040240085402582DE9F05F28B190F894
:101A80003510022904D0802141650120BDE8F09F76
:101A9000904C904B0168183C18338E4ADFF83C920A
:101AA000A1428D4CDFF838E28E4FDFF83CB2DFF810
:101AB0003CA28F4D8F4E31D091422FD099422DD0E4
:101AC000A1422BD0494529D0714527D0B94225D014
:101AD000DFF810C20CF1180C61451FD0DFF808C206
:101AE000ACF1600C614519D0DFF8FCC1ACF1480CD9
:101AF000614513D0DFF8F0C1ACF1300C61450DD079
:101B0000DFF8E4C1ACF1180C614507D0594505D0A8
:101B1000514503D0A94201D0B1422CD1DFF8B4C164
:101B20004FF0040880F83580ACF1180C61451DD0E9
:101B300091421BD0994219D0A14217D0494515D0E6
:101B4000714513D0B94211D06648183081420DD08A
:101B500065486038814209D063484838814205D0E1
:101B600061483038814201D05F481838086820F059
:101B700001000860ABE0D1F800C02CF00E08DFF8DF
:101B800054C1C1F80080ACF1180C0168614527D040
:101B9000914225D0994223D0A14221D049451FD05E
:101BA00071451DD0B9421BD0DFF838C10CF1180CBB
:101BB000614515D0DFF830C1ACF1600C61450FD044
:101BC000DFF824C1ACF1480C614509D0DFF818C139
:101BD000ACF1300C614503D0DFF80CC1ACF1180C4E
:101BE000D1F800C02CF0010CC1F800C0DFF8E4808F
:101BF0004FF0010C0168A8F11808414546D0914208
:101C000044D0994242D0A14240D049453ED071458E
:101C10003CD0B9423AD0334A1832914236D0324A97
:101C2000603A914232D0304A483A91422ED02E4A00
:101C3000303A91422AD02C4A183A914226D059453E
:101C400024D0514522D0A94220D0B1421ED02A4AE8
:101C500091421BD0284A1432914217D0264A28328A
:101C6000914213D0244A3C3291420FD0224A503242
:101C700091420BD0204A6432914207D01E4A7832FA
:101C8000914203D01C4A8C32914218D1016E0A68ED
:101C900022F480720A6090F85C20816D02F01F02CD
:101CA0000CFA02F24A60D0E919124A60C16E31B1F1
:101CB0000A6822F480720A60D0E91C124A6000228D
:101CC000016D80F835C080F8342001B188470020CC
:101CD000DCE600002800024058000240700002408C
:101CE00088000240A00002407004024088040240C4
:101CF000A0040240B804024008540258406D7047E6
:101D00002DE9FC5F0446F74E0020DFF8D8830090F1
:101D10004FF41652F44808F11808A56DDFF8C49383
:101D2000DFF8C0A3016809F1300920680AF1480A08
:101D3000B1FBF2F1B04201912F68D5F800C0DFF895
:101D4000ACB335D04146884232D0484530D05045BA
:101D50002ED058452CD0E5491831884228D0E34987
:101D60003031884224D0E1494831884220D0E049CE
:101D700088421DD0DE491831884219D0DC49303103
:101D8000884215D0DA494831884211D0DFF860E343
:101D90000EF1600E70450BD0D54A7832904207D0D4
:101DA000D34B9033984203D0D149A83188427DD19A
:101DB00094F85C20082102F01F0201FA02F23A4274
:101DC0004AD0B04232D0404530D048452ED0504560
:101DD0002CD058452AD0C54A1832904226D0C34A42
:101DE0003032904222D0C14A483290421ED0C04A7E
:101DF00090421BD0BE4A1832904217D0BC4A3032B3
:101E0000904213D0BA4A483290420FD0B84A60325A
:101E100090420BD0B64A7832904207D0B44A903202
:101E2000904203D0B24AA832904203D1026802F035
:101E3000040202E0026802F008026AB1026822F0BD
:101E40000402026094F85C0000F01F008140A96069
:101E5000606D40F00100606594F85C00012100F0C5
:101E60001F008140394240D02068B04234D0404504
:101E700032D0484530D050452ED058452CD09B4AC2
:101E80001832904228D0994A3032904224D0974A52
:101E90004832904220D0964A90421DD0944A18323F
:101EA000904219D0924A3032904200E0AFE113D014
:101EB0008F4A483290420FD08D4A603290420BD008
:101EC0008B4A7832904207D0894A9032904203D0B0
:101ED000874AA83290427DD1406910F0800F04D02B
:101EE000A960606D40F00200606594F85C00042118
:101EF00000F01F00814039423ED02068B04232D00D
:101F0000404530D048452ED050452CD058452AD099
:101F1000764A1832904226D0744A3032904222D00B
:101F2000724A483290421ED0714A90421BD0704A89
:101F30001832904217D06E4A3032904213D06C4A19
:101F4000483290420FD06A4A603290420BD0684AC1
:101F50007832904207D0664A9032904203D0644A69
:101F6000A83290424ED1006810F0020F04D0A96050
:101F7000606D40F00400606594F85C00102100F092
:101F80001F008140394258D02068B04234D04045CB
:101F900032D0484530D050452ED058452CD0534AE9
:101FA0001832904228D0514A3032904224D04F4AC1
:101FB0004832904220D04E4A90421DD04C4A1832AE
:101FC000904219D04A4A3032904215D0484A48329D
:101FD000904200E014E00FD0454A603290420BD0AE
:101FE000434A7832904207D0414A9032904203D01F
:101FF0003F4AA832904207D1006800F0080006E08E
:10200000006872E70068B7E7006800F00400A0B15C
:10201000A96020680168490304D50068000308D559
:10202000A16C07E00168C90503D4016821F008012B
:102030000160216C09B12046884794F85C0020219A
:1020400000F01F008140394279D02068B04232D080
:10205000404530D048452ED050452CD058452AD048
:10206000224A1832904226D0204A3032904222D062
:102070001E4A483290421ED01D4A90421BD01C4A34
:102080001832904217D01A4A3032904213D0184A70
:10209000483290420FD0164A603290420BD0144A18
:1020A0007832904207D0124A9032904203D0104AC0
:1020B000A832904203D1006800F0100002E00068EE
:1020C00000F00200B0B3A96094F83500042820683D
:1020D00001680FD049037ED5006800032BD4616CE2
:1020E0002AE0000010000240980000247000024026
:1020F0001004024021F0160101602068416921F0BE
:1021000080014161206C08B9A06C20B12068016891
:1021100021F00801016094F85C303F21012003F0B8
:102120001F0300229940A96084F8350084F8342008
:10213000216D65E003E0E16B09B120468847606DE1
:1021400000287DD0606DC00759D02068042184F834
:102150003510B0422BD0404529D0484527D05045B6
:1021600025D0584523D09D49884220D09B4918311D
:1021700088421CD099493031884218D09849884209
:1021800015D097491831884211D09549303188428D
:102190000DD093494831884209D091496031884235
:1021A00005D08F497831884201D08D49903101683E
:1021B00021F00101016020680099019A491C0091F9
:1021C000914202D80168C907F6D10068C00710D053
:1021D00003200FE0FFE70168C905ACD403680121C3
:1021E000002223F01003036084F8351084F83420B3
:1021F000A1E7012084F83500002084F83400E16C68
:1022000000291DD002B02046BDE8F05F084775499F
:1022100088421DD073491431884219D07149283140
:10222000884215D06F493C31884211D06D495031F8
:1022300088420DD06B496431884209D0694900E079
:1022400084E07831884203D066498C3188427DD160
:1022500094F85C800427016808F01F0807FA08F763
:1022600017EA0C0F009746D04F0744D500980F048B
:10227000686003D5C8033CD4A16CC1E7880638D494
:102280002068B0422DD055496039884229D0484550
:1022900027D0504525D0584523D05049884220D0DA
:1022A0004E49183188421CD04C493031884218D0F0
:1022B0004B49884215D04A491831884211D04849C3
:1022C000303188420DD046494831884209D07045A6
:1022D00007D0904205D0984203D04149A8318842A6
:1022E00003D1016821F0080102E0016821F0040136
:1022F0000160216C84E7022707FA08F717EA0C0F40
:1023000000974ED08F074CD500980F04686003D516
:10231000C80344D4616C73E7880640D42068B04297
:102320002FD02E49603988422BD0484529D05045BE
:1023300027D0584525D02949884222D0274918312D
:1023400088421ED025493031884200E044E018D050
:102350002349884215D022491831884211D020499A
:10236000303188420DD01E494831884209D070452D
:1023700007D0904205D0984203D01949A83188422D
:1023800003D1016821F0140102E0016821F00A0183
:102390000160012184F83510002084F83400E16BDD
:1023A0002EE7082202FA08F212EA0C0F14D00907ED
:1023B00012D5016821F00E01016094F85C10012033
:1023C000002201F01F0100FA01F16960606584F8E4
:1023D000350084F8342012E7BDE8FC9F88000240F5
:1023E00010040240085402582DE9F05F044601F041
:1023F0004DF9002C07467DD0E34E022120684FF0B6
:102400000308DFF888934FF00005DFF884A3B0429B
:10241000DFF880B334D0DC4A1832904230D04845DF
:102420002ED050452CD058452AD0DA4A1832904246
:1024300026D0D84A3032904222D0D64A48329042F2
:102440001ED0D54A90421BD0D34A1832904217D0A2
:10245000D14A3032904213D0CF4A483290420FD006
:10246000CD4A603290420BD0CB4A7832904207D0AE
:10247000C94A9032904203D0C74AA83290427DD1D7
:1024800084F83510B04284F834502ED0BE4918314B
:1024900088422AD0484528D0504526D0584524D0D7
:1024A000BC491831884220D0BA49303188421CD00A
:1024B000B8494831884218D0B749884215D0B64942
:1024C0001831884211D0B449303188420DD0B24918
:1024D0004831884209D0B0496031884205D0AE49C0
:1024E0007831884201D0AC499031016821F0010176
:1024F000016008E027E100BF01F0C8F8C01B052813
:1025000001D920211CE120680068C007F4D104F142
:1025100008002168D4E9053C8E4685C80968104347
:10252000D4E907281F43636A38439C4F40EA0C00F4
:102530001043394040EA0800042B40EA010003D16F
:10254000D4E90B1211430843954909686FF30F0151
:10255000B1F1005F0FD36168A1F12902052A08D902
:10256000163A032A05D9083A012A02D94F39032914
:1025700001D840F48010CEF8000000E023E020688D
:10258000676A4069042F20F0070047EA00070DD171
:10259000D4E90A01074349B12046FEF71FFA28B1E2
:1025A00040206065012184F83510CCE02068476147
:1025B0002046FEF731F994F85C203F2102F01F021B
:1025C0009140816054E0774A90421BD0754B1433A0
:1025D000984217D0734B2833984213D0714B3C3339
:1025E00098420FD06F4B503398420BD06D4B6433F1
:1025F000984207D06B4B7833984203D0694B8C33A9
:1026000098427DD184F8351084F83450664B0168C7
:10261000A26801EA030E402A73D0802A72D00022F9
:10262000D4E90378D4E9053142EAD70242EAD8086E
:102630005C4AD4E9077C48EAD30848EAD10141EA78
:10264000D701524241EA1C11142341EA0E010160F4
:1026500020681044B0FBF3F08000E0652046FEF7F0
:10266000DBF894F85C20012102F01F0291404160E8
:102670002068B04257D044491831884253D0484569
:1026800051D050454FD058454DD04249183188421D
:1026900049D040493031884245D03E49483188428E
:1026A00041D03D4988423ED03B49183188423AD01A
:1026B00039493031884236D037494831884232D0A2
:1026C0003549603188422ED03349783188422AD04A
:1026D00031499031884226D02F49A831884222D0F2
:1026E000304988421FD02F49143188421BD02D49D0
:1026F0002831884217D02B493C31884213D002E060
:102700001DE017E018E02749503188420BD02549D9
:102710006431884207D023497831884203D0214967
:102720008C31884229D12046FEF7D0F8A068802855
:102730000CD00CE0102273E74FF4804270E7402188
:10274000616584F835800120BDE8F09F6560216EE9
:1027500020790860D4E9190141606068401E0728AB
:1027600008D82046FEF700F9E06E0560D4E91C01A8
:10277000416002E0E566256765670120656584F8CC
:1027800035000020E0E70000100002404000024059
:102790005800024070000240100402403F8010FECA
:1027A0000010005C085402580F00FEFF2DE9F84F9E
:1027B00004008C464FF00000009014D094F83400D0
:1027C000012812D094F835500120002184F83400FB
:1027D000012D0CD0C00260650120009084F83410F7
:1027E0000098BDE8F88F0120FBE70220F9E78C4D47
:1027F0000226206884F83560A8428A4D61658A4EB9
:102800008A4FDFF82C82DFF82C92DFF82CA2DFF859
:102810002CB226D0A84224D0B04222D0B84220D038
:1028200040451ED048451CD050451AD0584518D0B8
:102830008349884215D082491831884211D0804995
:10284000303188420DD07E494831884209D07C49D8
:102850006031884205D07A497831884201D0784980
:102860009031016821F00101016061462046FEF7C8
:10287000DFF86B49206888422CD0A8422AD0B042A9
:1028800028D0B84226D0404524D0484522D05045D3
:1028900020D058451ED06A4A90421BD0684A183250
:1028A000904217D0664A3032904213D0644A483280
:1028B00090420FD0624A603290420BD0604A783228
:1028C000904207D05E4A9032904203D05C4AA832D0
:1028D00090420CD1026822F01E0242F01602026001
:1028E000206C88B12068026842F008020BE00268A0
:1028F00022F00E0242F00A020260206C20B1206831
:10290000026842F004020260206888424BD0A8426C
:1029100049D0B04247D0B84245D0404543D0484561
:1029200041D050453FD058453DD0454A90423AD0DD
:10293000434A1832904236D0414A3032904232D027
:102940003F4A483290422ED03D4A603290422AD0CF
:102950003B4A7832904226D0394A9032904222D077
:10296000374AA83290421ED0364A90421BD0354A90
:102970001432904217D0334A2832904213D0314A51
:102980003C3290420FD02F4A503290420BD02D4A09
:102990006432904207D02B4A7832904203D0294AC1
:1029A0008C3290420DD1206E0268D20303D50268AA
:1029B00042F480720260E06E18B1026842F48072E4
:1029C00002602068884226D0A84224D0B04222D09B
:1029D000B84220D040451ED048451CD050451AD0A2
:1029E000584518D01649884215D0154918318842E3
:1029F00011D01349303188420DD0114948318842F5
:102A000009D00F496031884205D00D49783188429C
:102A100001D00B499031016841F001010160DFE60E
:102A200010000240280002404000024058000240CE
:102A30007000024088000240A0000240B80002403E
:102A4000100402400854025870B5044600F01EFEFF
:102A50000546601C02D004480078044400F016FECD
:102A6000401BA042FAD370BD8C00002410B590F832
:102A70009830012B09D0022B07D0D0F89C1041F0E0
:102A80000201C0F89C10012010BD03689C6D0C422F
:102A900003D1DC6D44F0010404E09C6D31EA0404D0
:102AA0001FD00324DC658B0505D50368D3F8E0400F
:102AB0001443C3F8E0404B0505D50368D3F8E44060
:102AC0001443C3F8E4400068084A01EA0203446D75
:102AD000074A1C434465106840EA9170106000206A
:102AE00010BDDC6D44F00204DCE70000FFFFCF3FC7
:102AF00014A8004070B5044690F89800022804D04D
:102B0000D4F89C0040F008000DE02068D0F8C030F8
:102B100013F07C5F0BD0D0F8C4309B020CD5D4F8F6
:102B20009C0040F40070C4F89C00012070BDD4F8F3
:102B30009C0040F02000F6E7D0F8C400C0F3044544
:102B400020462B46FEF786F921680120A840C1F8EF
:102B5000D000C4F89400002070BD704770B590F8A4
:102B60009820012A09D0022A07D0D0F89C1041F001
:102B70000201C0F89C10012070BD0B68CA6883B1C7
:102B80000B69072A43EA427325D00C7A4A6942EA64
:102B900084724968006F00EBC100C0E90032002078
:102BA00070BD072A0DD00C7AD6060D8A4B6943EA10
:102BB000847246EA0543C06E49681A4340F82120F2
:102BC000EDE70B8A4FF06055D1E9062442EA034253
:102BD00045EA0423EFE78A69DBE7704770470000A6
:102BE000F0B590F898500024022D04D0D0F89C1035
:102BF00041F0080129E0402905D0412929D0056D7F
:102C00008D4219D942E00568D5F8A06016F4FE0F90
:102C100012D0D5F8A460760613D0D5F8A460F601DA
:102C200005D5D5F8A06016F0004F00D50124D5F8E1
:102C3000A470466F456C24E0D0F89C1041F0200150
:102C400003E0D0F89C1041F48071C0F89C10012082
:102C5000F0BD0568D5F8B06016F4FE0FECD0D5F8DD
:102C6000B4607606EDD0D5F8B460F60105D5D5F898
:102C7000B06016F0004F00D50124D5F8B470866F0F
:102C8000C56CC7F305273C44654302E0456DC66F3C
:102C90004D4306EB85052E6816F0804656602E687B
:102CA00036D026F060461660D5F800C000262E4FBC
:102CB0000CF0005CC2F808C0D5F800C00CF0004C65
:102CC000C2F810C0B5F804C01FFA8CFCC2F81CC0D2
:102CD000D5F804C0CCF3034CC2F80CC0D5F804C03E
:102CE0000CF4801CC2F814C0D5F804C00CF4001C0D
:102CF000C2F818C0D5F804C0CCF3066CC2F820C0E6
:102D0000D5F804C008354FEADC7CC2F824C008E0DE
:102D1000C6F38A46C7E700BF15F806C003F806C029
:102D2000761CD2F80CC017F80CC0B445F4D8402972
:102D30000AD041290CD020294FF001020CD20068A2
:102D40008A40C0F898200DE00068C0F8A84009E06B
:102D50000068C0F8B84005E0006801F01F018A4033
:102D6000C0F89C200020F0BD98AE0008704700001D
:102D70002DE9FF5FDFF80CB304460BF10401DBF82B
:102D8000000025680F68AA468007D5F85090696D45
:102D9000D5F850806E6D2A6DD5F854C02B6D00EAC1
:102DA0008770009009F470496F6D286D01EA090180
:102DB0000191DAF85410DAF85490DAF8505008F02B
:102DC0000F0806EA0806029602F0F00203F07153BB
:102DD0006FEA09061F4000F060700CEA020CCDF8A3
:102DE0000CC0F20501EA00090CD4E843C00509D47F
:102DF00000214FF48073CAF85030CBF80010204601
:102E0000FFF7B4FF700512D4E84340050FD42068E3
:102E100000234FF48068D0F8DC20D0F8E410C0F82C
:102E20005080CBF800301140204600F009FBDFF85D
:102E300058A2009850B12268830F00EA0A0010657A
:102E4000CBF8003020460099FFF787FE019850B17B
:102E50002268830F00EA0A001065CBF80030204694
:102E6000019900F0EFFA029850B12268830F00EA4E
:102E70000A001065CBF800302046029900F08EFA67
:102E8000039850B12268830F00EA0A001065CBF85E
:102E900000302046039900F0B3FA30050CD4E84323
:102EA000000509D4236800204FF400621A65CBF8AE
:102EB0000000204600F0C7FAB00512D4E8438005B0
:102EC0000FD4206800234FF40078D0F8D820D0F831
:102ED000E010C0F85080CBF800301140204600F0E0
:102EE000B0FA30030CD4E843000309D4236800206F
:102EF0004FF400221A65CBF80000204600F04CFA8F
:102F0000F0030CD4E843C00309D4236800204FF435
:102F100080321A65CBF80000204600F090FA70036A
:102F20000CD4E843400309D4226800204FF48023E6
:102F30001365CBF80000204600F080FAB0030FD4F0
:102F4000E84380030CD4236800204FF400321A6554
:102F5000CBF80000D4F89C0040F08000C4F89C003E
:102F6000B9F1000F0BD022684FEA997309EA0A0001
:102F70001065CBF8003049462046FFF72FFE5FB1C1
:102F80002268BB0F07EA0A001065CBF80030D4F8BE
:102F90009C003843C4F89C003C492068884268D1B2
:102FA000606881468068800763D0D9F82060D9F8CE
:102FB0002410D9F82080D9F82400D9F820C0D9F8F5
:102FC0002470D9F82030D9F82450D9F8202003F4FF
:102FD000FC4306F00F0AD9F824601D40D9F824B04C
:102FE00008F030080CF4C07C02F4F02211EA0A0167
:102FF00000EA080807EA0C0706EA0206D9F820A04A
:1030000004D0C9F82010204600F015FAB8F10000ED
:1030100005D0616808624146204600F00EFA6FEA6A
:103020000B0040060ED46FEA0A0040060AD460681E
:103030004021C36BC26B01622046190C02F03F02B3
:1030400000F0FAF92FB1606807623946204600F0B7
:10305000F1F935B160680562D4F89C002843C4F8E2
:103060009C0036B160680662D4F89C003043C4F816
:103070009C00D4F89C00002802D02046FFF7ADFD4C
:10308000BDE8FF9F10A80040FFFFCF3F00A0004019
:103090002DE9F04194B08D494C2204466846FDF775
:1030A00006FA64B18A4D2068A84202D100F580700A
:1030B000606094F898004FF0000820B108E001200B
:1030C00014B0BDE8F081204684F8998000F002F940
:1030D0002068816921F01001816100F0D7FA03278F
:1030E000064604E000F0D2FA801B0A2811D82068B6
:1030F00080690007F6D42068816941F0010181618F
:1031000000F0C4FA06460DE000F0C0FA801B0A2861
:1031100008D9D4F89C0040F00100C4F89C0084F861
:103120009870CCE720688069C007EDD0206881697D
:1031300041F002018161207C01282068816937D03B
:1031400041F040018161607C01282068816932D0B2
:1031500021F480418161A07C0128206881692DD003
:1031600041F4805181612068A268816921F4407135
:10317000114381612068816921F0A4018161206887
:10318000016921F010010161E068012819D010B334
:1031900002281BD02068816941F08001816120688C
:1031A000016941F010010161E06803280ED012E0CE
:1031B00021F04001C6E741F48041CBE721F4805182
:1031C000D0E72068816941F0040103E0206881694B
:1031D00041F020018161207E6FF0FF02D4E9077386
:1031E000A68A1102400602EB0727A0F100703843BF
:1031F00027685B1E184301EB06463043F861A06860
:10320000B0F5407F11D104F12800A68C6FF00F0CAF
:1032100089C801EB0641401E02EB032210432268DD
:103220000CEB071318430843D060206E30B12068C0
:10323000626ED0F8C0101143C0F8C010D4E9171264
:103240006846D14209D02168A36E51F8C82F50F8C2
:10325000233022F007021A430A60216C49B1216829
:10326000626C51F8BC3F50F8226023F007023243F1
:103270000A60A16C51B12168E36C51F8BC2F50F881
:10328000233022F0700242EA03120A60216D51B12C
:103290002168626D51F8BC3F50F8220023F4E062CF
:1032A00042EA002008602068A84204D16068816872
:1032B00021F003018160C4F894800121C4F89C804E
:1032C00084F898102046FDF7E1FCF9E6A8AE000866
:1032D00000A00040F0B5B7B00446142130A8FDF7B7
:1032E0003AF9C0216846FDF736F928492068884236
:1032F00049D100214FF0200C01220D464FF400402F
:1033000002248DE807000826CDE904641323039303
:10331000099106A980031C90C027684681E8901097
:1033200001F082FB08B1FDF794FC1948016841F4F3
:1033300080710160006800F48070359014480C388A
:10334000016841F008010160006830AA092100F01D
:1033500008003590032082E83100CDE933010D48A3
:1033600030A900F071F800220221132000F054FA75
:10337000132000F043FA002202213F2000F04CFA13
:103380003F2000F03BFA37B0F0BD000000A0004045
:10339000EC440258000C025870470000F0B5C90711
:1033A0008DB029D040216A460AABFFF719FC0028EE
:1033B00022D1019800281FD10098401E0B281BD84D
:1033C000C5B20E4F0AA805EB450607EBC604214619
:1033D00004F026FB00F05AF96061A7F10C0001210E
:1033E0004155052003F07AFF17F83600002803D076
:1033F0000121082003F0F8FE0DB0F0BDC00100244B
:10340000704790F89810012907D0D0F89C1041F02F
:103410000401C0F89C1001207047022180F8981028
:10342000002201688B6923F001038B61C0F89C20A6
:103430001046704770477047704770477047704735
:1034400070477047704770472DE9F84F03247D4D52
:1034500000234FF001094FF0B04B4FF00F0AE9E0A5
:1034600009FA03F73A4076D00E7906F00306012EEA
:1034700001D0022E18D1D0F808C04FEA430ECE6812
:1034800004FA0EF82CEA080C06FA0EF646EA0C06C8
:103490008660D0F804C00E792CEA070CC6F300163B
:1034A0009E4046EA0C0646600E79F643B6070BD0FE
:1034B000C6684FEA43088F6804FA08FC26EA0C063F
:1034C00007FA08F73743C7600E7906F00306022EA5
:1034D00012D1DE080F694FEA437C00EB8606B64640
:1034E000366A4FEADC6C0AFA0CF807FA0CF726EA9F
:1034F00008063743CEF820700F7906684FEA430874
:1035000007F0030704FA08FC07FA08F726EA0C0696
:10351000374307604E6816F4403F1CD04A4E376868
:1035200047F00207376036689F0706F002060096EC
:1035300023F0030606F1B046B6463F0FD6F80864FE
:10354000DFF808810AFA07FC404526EA0C0603D199
:103550004FF0000C41E06CE0DFF8F4C0604502D1B0
:103560004FF0010C39E0DFF8ECC0604502D14FF0BC
:10357000020C32E0DFF8E0C0604502D14FF0030CEE
:103580002BE0DFF8D8C0604502D14FF0040C24E0F6
:10359000DFF8CCC0604502D14FF0050C1DE0DFF82C
:1035A000C4C0604502D14FF0060C16E0DFF8B8C089
:1035B000604502D14FF0070C0FE0DFF8B0C0604566
:1035C00002D14FF0080C08E0DFF8A4C0604502D13A
:1035D0004FF0090C01E04FF00A0C0CFA07FC4CEA22
:1035E000060CCEF808C44F68DBF80060FF0226EA3C
:1035F000020600D516435F46CBF80060D1F804C040
:10360000DBF804605FEA8C2C26EA020600D516433C
:103610007E606E684F6826EA0206BF0300D5164337
:103620006E602E684F6826EA0206FF0300D5164337
:103630002E605B1C0A6832FA03F67FF411AFBDE816
:10364000F88F000080000058F4440258000002582F
:103650000004025800080258000C025800100258DA
:103660000014025800180258001C0258002002588A
:10367000002402580AB1816170470904FBE7000089
:1036800001480068000C70470010005C0148806829
:10369000704700008C0000240248816802781144C1
:1036A000816070478C000024032010B500F0D4F82E
:1036B00002F004F80F4A104914681368C4F3032297
:1036C00003F00F038A5CC95C02F01F0201F01F01C6
:1036D000D0400A4A20FA01F11160094908600F2020
:1036E00000F010F808B1012010BD00F079F80020BA
:1036F00010BD0000184402581CAF00089C000024B4
:103700009800002470B50D4D04462878A0B14FF400
:103710007A71B1FBF0F00A490968B1FBF0F002F0F0
:10372000BEFE48B9102C07D200222146501E00F0E0
:1037300073F800206C6070BD012070BD8C00002407
:1037400098000024154BF0B5083B427813491A60E5
:103750000B680A1F23F001030B6043681360057BAD
:10376000C67A827A437B2D07847B45EA0665C77B50
:1037700090F809C0067A90F800E045EAC24040EAB5
:10378000834040EA444040EA074040EA0C2040EAD7
:10379000460040EA0E000860F0BD0000A0ED00E029
:1037A000BFF35F8F044800210368034A23F480338A
:1037B000036070321160704724ED00E0074A40F06A
:1037C0000100064970321060086840F480300860DB
:1037D000BFF34F8FBFF36F8F7047000024ED00E001
:1037E000054808B5016841F002010160006800F079
:1037F0000200009008BD0000F4440258002809DBD4
:10380000410900F01F028900012001F1E0219040F0
:10381000C1F80001704700000E4BF0B41B680D4664
:10382000C3F30223C3F10706042E00D90426191D91
:10383000072901D2002300E0DB1E012404FA06F16F
:103840009C40491E2940641E994014402143F0BC0D
:1038500007F0BBBA0CED00E0064900F0070210B516
:103860004FF6FF040868044B204040EA022018434A
:10387000086010BD0CED00E00000FA0501680123AE
:10388000C0F8D834002280F8CC248869044A40F07B
:1038900000608861486D1043486500207047000053
:1038A0000300001070470068416200207047F0B5C7
:1038B00003685D6A39B19F6A4C1E00204FF482761E
:1038C00005EB17450BE045EA0240986210E0471C03
:1038D00006EB800053F800C0F8B205EB1C45A0428F
:1038E000F5D34FF4807000EB810045EA02421A5094
:1038F0000020F0BDD0F8E00406F0B5B901EBC1023C
:1039000000EB8202D0F8E004126A06F008B901EB7D
:10391000C10200EB8202D0F8E004D2F8602206F087
:103920005AB9D0F8E00406F0A0B90A0601F00F0178
:1039300001EBC10100EB810101D5143101E001F57A
:103940001571006807F08CB801F00F020B0670B516
:1039500002EBC20104464FF001004FF0000504EBFA
:10396000810102D54875143103E081F8555201F503
:1039700015710A7094F89424012A08D084F89404EC
:10398000206806F08BFD002084F8945470BD02205E
:1039900070BD70B50279044601F00F00904201D964
:1039A000012070BD01F00F024FF000050B0602EB85
:1039B000C2014FF0010204EB810102D54A751431B6
:1039C00003E081F8555201F515718D70087094F877
:1039D0009404012808D084F89424206806F0C8FED6
:1039E000002084F8945470BD022070BD01F00F01D6
:1039F00001EBC10100EB8100D0F8680270472DE9AE
:103A0000F04101F00F0604460D064FF0010006EBF1
:103A1000C6014FF0000504EB810102D54875143151
:103A200003E081F8555201F51571C2F30A024F788F
:103A30000B718A600E7007B14E83022B00D14D715D
:103A400094F89424012A09D084F89404206806F09C
:103A50006DFC284684F89454BDE8F0810220FBE711
:103A600070B501F00F05002405EBC50100EB8101E5
:103A700001F5187181E81C0001F80B4C01F80C5D90
:103A80008379012B00D1CA618279006806F0C8FEF3
:103A9000002070BD70B50D460179044605F00F0099
:103AA000884201D9012070BD29064FF000064FF071
:103AB000010206D500EBC00104EB81014A75143107
:103AC00007E005EBC50104EB810181F8556201F5C2
:103AD00015718A70087094F89404012807D084F84E
:103AE0009424206806F070FE280702D007E0022028
:103AF00070BDA17904F29C42206806F00DFE002002
:103B000084F8946470BD70B501F00F04002504EBD7
:103B1000C401012600EB8101203181E82C0001F86D
:103B20000B6C01F80C4D8379012B00D1CA618279AD
:103B3000006806F075FE002070BD00002DE9FC5FF6
:103B400005680446284607F027F800287ED120683B
:103B500007F04EF8002879D0D5F80808C0F30D20FA
:103B6000C4F8D404206807F043F8800704D520681F
:103B7000416901F002014161206807F039F8C1068E
:103B800004F29C40009035D52068816921F0100135
:103B900081612F6A07F00F01C7F3434001EBC101B8
:103BA000022804EB810606F5157602D0062812D00D
:103BB0001BE047F6F070074217D0C7F30A12F1680E
:103BC0001746284607F018F87169F06839447161A2
:103BD0003844F06009E000990822284607F00CF804
:103BE0007069C7F30A11084470612068816941F067
:103BF00010018161206806F0FBFF00034FF0080B05
:103C00004FF0000A4FF001097CD52068002606F02D
:103C1000CEFF074674E0F80770D02068F1B206F0D6
:103C2000DFFF8046C00707D005EB4611C1F8089BAF
:103C30003146204603F09EFF5FEA087024D505EB6D
:103C40004611C1F808BBFA49206800E03EE2026C68
:103C500000EB461001928A42D0F8081B05D90904EE
:103C600003D54FF40041C0F8081B204600F00BFBC1
:103C7000EF490198884207D9A079012804D120682A
:103C80000121009A06F048FD5FEAC86004D505EB03
:103C900046111020C1F8080B5FEA88701DD56869CD
:103CA000000605D5D5F8040840F48061C5F804186D
:103CB00006EBC60004EB800090F8571200F5157073
:103CC000012905D180F803A02046F1B200F004FAE2
:103CD00005EB46110220C1F8080B5FEA886004D5A5
:103CE00005EB46112020C1F8080B5FEA884005D596
:103CF00005EB46114FF40050C1F8080B7F08761C05
:103D0000002F88D1206806F073FF40036ED520682D
:103D100006F046FF0026074666E0F80762D02068F6
:103D2000F1B206F04BFF8046C00723D0D5F8342807
:103D300006F00F0C05EB461309FA0CF08243C5F8A8
:103D40003428C3F80899A07901280FD106EBC600E2
:103D500004EB8000D0E907211144016236B9606AA2
:103D600020B920680121009A06F0D6FC2046F1B265
:103D7000FFF7C4FD5FEA087003D505EB4611C1F8F3
:103D800008B95FEAC86004D505EB46111020C1F8F8
:103D900008095FEA486004D505EB46114020C1F8E8
:103DA00008095FEA887016D53146284606F0C9FE34
:103DB00006EBC60004EB8000C17D1430012905D15B
:103DC00080F803A02046F1B200F082F905EB46111D
:103DD0000220C1F808095FEA086003D53146204691
:103DE00003F02EFF7F08761C002F96D1206806F086
:103DF000FFFE002811DAD5F8040820F00101C5F80B
:103E0000041894F8CC0401283BD0204600F020FA96
:103E10002068416901F000414161206806F0E8FE38
:103E200000050BD5D5F80808C00702D0204600F0E1
:103E300053FA2068416901F400614161206806F08D
:103E4000D7FE00010AD52068416901F00061416197
:103E500094F8CC04E0B1204600F03EFA206806F069
:103E6000C7FEC00472D5D5F8040820F00100C5F8DB
:103E700004082068102106F064FE00214FF67F320E
:103E80002DE00021204684F8CCA4FFF70BFDBFE70E
:103E900084F8CC942068406D0121C0F38300C4F8FD
:103EA000D0042046FFF7FEFCD8E700BF05EB411029
:103EB000C0F80829D0F8003923F40013C0F80039FD
:103EC000C0F8082BD0F8003B23F40013C0F8003BE7
:103ED000D0F8003B43F00063C0F8003B491C207958
:103EE0008842E3D8D5F81C0840F00111C5F81C1829
:103EF000E07B68B1D5F8840840F00B01C5F8841860
:103F0000D5F8440840F00B012846C5F844180DE0E8
:103F1000D5F8140842F22B010843C5F81408D5F867
:103F2000100840F00B012846C5F81018D0F800081A
:103F300020F4FE61C5F80018A1792068009A06F007
:103F4000EBFB2068416901F480514161206806F073
:103F50004FFE800416D5206806F028FA206806F087
:103F60000EFEE07101F064FB23680146E279184619
:103F700006F0A2FE204600F055F92068416901F4E0
:103F800000514161206806F033FE000707D5204646
:103F900000F062F92068416901F008014161206880
:103FA00006F026FE000615D5A869012620F080013E
:103FB000A9610CE006EBC60004EB800090F8570204
:103FC000012803D12046F1B2FFF7AFFC761C20791F
:103FD000B042EFD8206806F00BFEC0021FD50126C4
:103FE0004F4614E006EBC60005EB461304EB8001D8
:103FF000D3F800090A7E012A08D1002806DAF0B2B7
:10400000CF7540F080012046FFF78FFC761C2079A9
:10401000B042E7D82068416901F48011416120680D
:1040200006F0E6FD800234D501204A4629E0000072
:104030000A30544F00EBC00305EB401604EB83013C
:10404000D6F8006B91F85832012B19D1002E17DAEF
:1040500094F8D434C6F3004603F00103B3420FD101
:1040600081F85722A96941F08003AB6169690906AB
:1040700006D4D5F8040840F40070C5F8040803E03D
:10408000401C21798142D5D82068416901F4001192
:104090004161206806F0ACFD400007D52046FFF7DF
:1040A00029FC2068416901F080414161206806F0E7
:1040B0009FFD40070AD520684568680702D520465D
:1040C000FFF72FFC2068416829434160BDE8FC9F51
:1040D000D0F8E00405F01FBED0F8E00405F02FBED4
:1040E000F8B5040004D094F89504002510B106E05A
:1040F0000120F8BD204684F8945400F057F80320BE
:1041000084F89504206806F001FB207C8DF80000FF
:1041100094E80F0006F058F90226B0BB2068002191
:1041200006F08AFD88BB002001270CE000EBC001EF
:10413000421C04EB81014F750D76CD610D624D621D
:104140000875C885D0B221798142EFD8002011E0EE
:1041500000EBC001421C04EB810181F8555281F84B
:104160005852C1F85C52C1F86052C1F8645281F8EB
:104170005402D0B221798142EAD8207C8DF8000027
:1041800094E80F0006F00CFA10B184F89564AFE7DC
:10419000207B657484F89574012802D12046FFF7CE
:1041A0006DFB206806F0EEF90020F8BD10B586B072
:1041B000044614216846FCF7CEF917492068884266
:1041C00028D100F0CBF81548016841F001010160E9
:1041D00000680221002200F00100059003230A2458
:1041E0004FF4C0508DE81F000D486946FFF72CF9C9
:1041F0000A480838016841F0006101600068002247
:10420000114600F0006005906520FFF705FB652072
:10421000FFF7F4FA06B010BD00000840E044025871
:104220000000025870B50446C079012570B102281B
:1042300001D0FCF70EFDD4F8E004294605F0EEFDB0
:10424000D4F8E004BDE8704005F0A2BD0025F2E717
:10425000D0F8E00405F0CBBDD0F8E00405F0D1BD06
:1042600010B5044690F8940401280AD00120617426
:1042700084F89404206806F00EFD002084F894046D
:1042800010BD022010BDD0F8E02400F29C41104681
:1042900005F0D0BD10B590F89414044600680129CB
:1042A00009D0012184F89414C168490609D5617BBD
:1042B000012902D005E0022010BD816B41F480315C
:1042C0008163206806F01BFC206806F04DF9002091
:1042D00084F8940410BD000010B50446D0F8E00442
:1042E00005F0EAFD2068D0F8001E41F00101C0F899
:1042F000001EE07A002804D00248016841F006015F
:10430000016010BD10ED00E0134970B50A68D2439A
:10431000520705D5096801F00701814213D118E061
:104320000A6822F0070202430A60FFF7AFF90A4D5C
:104330004FF47A760446083D07E000BFFFF7A6F980
:10434000001BB04201D9012070BD2868C043800421
:10435000F4D4002070BD00000C48025802480168E7
:1043600041F08071016070470C48025810B501F0AF
:104370005FF905490968054AC1F30211515C01F072
:104380001F01C84010BD0000204402581CAF0008A7
:104390004A4930B5494C0B1D0A680C3409681D6840
:1043A000246802F0030305F00102C1F30511C4F310
:1043B000CC04002914FB02F200EE102AF8EE400AA9
:1043C00076D0414A9FED3E1ADFED3E1AB7EE000A65
:1043D00023B1012B5AD0022B18D15CE0374C283C7A
:1043E00023689B0612D5394B246801EE901A116898
:1043F000C4F3C104F8EE612AE34001EE903AC1F340
:104400000801F8EE611A81EEA22A07E002EE101A06
:104410001168F8EE422A81EEA22A45E001EE901AD8
:104420001168F8EE611A40EE811A71EE800A62EEB0
:10443000200AC1F3462101EE101AB8EE411A31EEFE
:10444000001AC0EE811ABCEEE11A80ED001A116864
:10445000C1F3064101EE101AB8EE411A31EE001A0E
:10446000C0EE811ABCEEE11A80ED011A1168C1F3A9
:10447000066101EE101AB8EE411A31EE000A80EE24
:10448000801ABCEEC10A80ED020A30BD01EE901A1E
:10449000DFED0F2A03E001EE901ADFED0E2A11681E
:1044A000F8EE611A82EEA12AC1F30801B6E7FFE730
:1044B000002101604160816030BD00002844025845
:1044C000000000390024744C304402580090D0039E
:1044D0000024744A0024F44A494930B5484C0B1D65
:1044E0000A68143409681D68246802F00303C5F3E0
:1044F0000012C1F30531C4F3CC04002914FB02F20D
:1045000000EE102AF8EE400A75D03F4A9FED3D1AA2
:10451000B7EE000A6BB1DFED3D1A012B01D0022B83
:1045200064D002EE101A1168F8EE422A81EEA22A37
:1045300021E0334C283C23689B0612D5344B246879
:1045400001EE901A1168C4F3C104F8EE612AE34049
:1045500001EE903AC1F30801F8EE611A81EEA22A49
:104560000BE001EE901ADFED2B2A00BFF8EE611A86
:10457000116882EEA12AC1F3080101EE901A1168B8
:10458000F8EE611A40EE811A71EE800A62EE200A9E
:10459000C1F3462101EE101AB8EE411A31EE001AAD
:1045A000C0EE811ABCEEE11A80ED001A1168C1F369
:1045B000064101EE101AB8EE411A31EE001AC0EEB3
:1045C000811ABCEEE11A80ED011A1168C1F306618F
:1045D00001EE101AB8EE411A31EE000A80EE801A90
:1045E000BCEEC10A80ED020A30BD04E001EE901A73
:1045F000DFED092ABAE70021016041608160F3E73D
:104600002844025800000039384402580024744AF3
:104610000090D0030024744C0024F44A494930B57A
:10462000484C0B1D0A681C3409681D68246802F098
:104630000303C5F30022C1F30551C4F3CC040029E0
:1046400014FB02F200EE102AF8EE400A75D03F4A41
:104650009FED3D1AB7EE000A6BB1DFED3D1A012B5D
:1046600001D0022B64D002EE101A1168F8EE422A33
:1046700081EEA22A21E0334C283C23689B0612D508
:10468000344B246801EE901A1168C4F3C104F8EEAB
:10469000612AE34001EE903AC1F30801F8EE611A95
:1046A00081EEA22A0BE001EE901ADFED2B2A00BF6B
:1046B000F8EE611A116882EEA12AC1F3080101EE39
:1046C000901A1168F8EE611A40EE811A71EE800AB4
:1046D00062EE200AC1F3462101EE101AB8EE411A2B
:1046E00031EE001AC0EE811ABCEEE11A80ED001A1C
:1046F0001168C1F3064101EE101AB8EE411A31EE0D
:10470000001AC0EE811ABCEEE11A80ED011A1168A0
:10471000C1F3066101EE101AB8EE411A31EE000A3B
:1047200080EE801ABCEEC10A80ED020A30BD04E0C2
:1047300001EE901ADFED092ABAE70021016041601D
:104740008160F3E7284402580000003940440258D1
:104750000024744A0090D0030024744C0024F44ACE
:104760002DE9F04FAD4A0546DFF8ACA280F4807029
:10477000DFF8AC9289B01311AA4C0843AAF10406E1
:104780004FF0805C4FF000584FEAE2002CD085F4E7
:1047900000770F4357D0DFF880B285F480670F436E
:1047A0000BF1080B61D085F400670F4374D085F4DA
:1047B00080570F436ED085F400570F434FF4803974
:1047C0004FF4003E67D085F400270F4371D085F485
:1047D00080370F436ED085F480460E436BD085F44E
:1047E00000420A4368D02AE0DAF8001001F007011D
:1047F000052924D2DFE801F075BC7D25B10006A8AB
:10480000FFF7C6FD079809B0BDE8F08F6846FFF7CF
:1048100063FE0098F7E703A8FFF700FF0398F2E7AD
:104820002068C0F3C10022FA00F0ECE72268D2054C
:1048300071D561456FD11846E5E74145E3D00020C9
:10484000E1E74846DFE7DAF8001001F4E07180297B
:104850004FD004DC002944D04029F0D188E0C029A1
:10486000EFD0B1F5807FEAD177E0DBF8001001F4FA
:104870006001B1F5800F3CD004DC91B3B1F5001FAD
:10488000DDD175E0B1F5C00FDBD0B1F5000FD6D1A9
:1048900063E001E018E030E0DBF8001001F0E061D7
:1048A000B1F1007F25D008DCD9B1B1F1807FC6D14C
:1048B0005EE049E06CE079E09CE0B1F1407FC0D07F
:1048C000B1F1806FBBD148E0DAF8001001F4E041AB
:1048D000B1F5005F0DD005DC19B1B1F5805FAED147
:1048E00046E094E0B1F5405FABD0B1F5804FA6D182
:1048F00033E020688000A2D58DE7DAF8001001F4DB
:10490000E021B1F5403F6CD006DC61B149457AD079
:10491000714594D157E037E0B1F5802F65D0B1F5FE
:10492000A02F8CD10CE000F0A5FE6CE76846FFF7E5
:10493000D3FD019867E703A8FFF770FE049862E7CC
:1049400021688903F1D47AE7DBF8001011F44031D3
:104950000ED0494510D07145F5D13168256801F078
:1049600040516D077FF562AF00297FF45FAF57E7D5
:1049700020680001E7D549E720688000E3D503A857
:10498000FFF74CFE05983EE722689203DBD554E71B
:10499000306810F480303AD04845D4D12068000106
:1049A000D1D56846FFF798FD02982CE7DBF8001098
:1049B00001F0E041B1F1405F13D008DC71B1614515
:1049C00021D04145BFD120688000B4D437E7B1F190
:1049D000804F0AD0B1F1A04FB2D030E7FFF7C6FC4C
:1049E00011E720684007AED51AE72068C005AAD5B0
:1049F00021E708E0DAF8001011F04051A0D061453D
:104A000005D041459FD1206800018FD417E7206869
:104A1000800198D5F3E60000504402580090D0037E
:104A20000080BB00004402582DE9FE4F0546DFF828
:104A3000E48350F8081B0024F64FC943019005F1A8
:104A40002800264608F12408009008011DD4A86E0D
:104A500050B1B0F5801F0CD0B0F5001F0ED0B0F5EE
:104A6000401F1ED001240FE0386840F40030386049
:104A700017E00198022103F017FB03E000980221E0
:104A800003F0A2FB04000CD026462888C043C005D2
:104A900023D4A86D05281ED2DFE800F00C11161BE8
:104AA0001B00AA6ED8F8001021F440111143C8F879
:104AB0000010EAE7386840F40030386009E00198F7
:104AC000002103F0F1FA03E00098002103F07CFBE1
:104AD000044674B100E0012426462888C0438005BE
:104AE00028D4E86D80281ED00CDC90B140280ED16F
:104AF00014E0AA6DD8F8001021F007011143C8F89E
:104B00000010EAE7C02813D0B0F5807F10D0012450
:104B10000FE0386840F40030386009E00198002167
:104B200003F0C2FA03E00098002103F04DFB0446B5
:104B30009CB126462888DFF8DC92C04309F12C0995
:104B400040052CD4D5F8A800B0F5800F20D00DDC9E
:104B5000A0B1B0F5001F0FD115E0EA6DD8F8001034
:104B600021F4E0711143C8F80010E3E7B0F5C00F7D
:104B700013D0B0F5000F10D001240FE0386840F4D6
:104B80000030386009E00198002103F08DFA03E05D
:104B90000098002103F018FB04467CB126462888C3
:104BA000C04300052DD4D5F8AC00B0F1007F21D072
:104BB0000EDCA8B1B0F1807F10D116E0D5F8A820A6
:104BC000D9F8001021F460011143C9F80010E6E79C
:104BD000B0F1407F13D0B0F1806F10D001240FE00E
:104BE000386840F40030386009E00198002103F093
:104BF0005BFA03E00098002103F0E6FA044674B182
:104C000026462868C04380011FD4E86CD8B110281C
:104C10000FD0202812D0302815D0012414E0D5F868
:104C2000AC20D9F8001021F0E0611143C9F8001060
:104C3000E7E7386840F40030386004E0019802216A
:104C400003F032FA044674B126462888C043C004F3
:104C50002BD4286EB0F5005F20D00DDCA0B1B0F5EC
:104C6000805F0FD115E06B48EA6C2030016821F0BD
:104C7000300111430160E8E7B0F5405F13D0B0F5B3
:104C8000804F10D001240FE0386840F400303860C5
:104C900009E00198002103F007FA03E000980021E1
:104CA00003F092FA04468CB126462888C04380045B
:104CB00029D4686EB0F5403F23D010DC08B3B0F5BE
:104CC000803F14D0B0F5003F0FD115E02A6ED8F820
:104CD000001021F4E0411143C8F80010E5E7B0F5F9
:104CE000802F0ED0B0F5A02F0BD001240AE0019840
:104CF000012103F0D9F903E00098012103F064FADF
:104D0000044694B126462888C04340042AD4D5F8E6
:104D1000B000B0F1405F23D010DC08B3B0F1805F89
:104D200014D0B0F1005F0FD115E06A6ED8F8001012
:104D300021F4E0211143C8F80010E4E7B0F1804FFE
:104D40000ED0B0F1A04F0BD001240AE00198012150
:104D500003F0AAF903E00098012103F035FA0446B4
:104D600074B126462888C04300041FD4286FD8B1E8
:104D7000B0F1805F0ED0B0F1005F10D0012414E0DC
:104D8000D5F8B020D9F8001021F0E0411143C9F85E
:104D90000010E7E7386840F40030386004E001981C
:104DA000012103F081F9044674B126462868C04306
:104DB000C0011ED4A86CD0B101280ED0022811D099
:104DC000032814D0012413E02A6FD8F8001021F032
:104DD00040511143C8F80010E8E7386840F400304B
:104DE000386004E00198022103F05EF90446ACB19A
:104DF00026462868DFF81CB0C043ABF11C0B40020C
:104E000052D40548016841F480710160FEF73EFC10
:104E1000824611E02C44025800480258FA48AA6C15
:104E2000016821F0030111430160E2E7FEF72EFC67
:104E3000A0EB0A00642835D8F4480068C005F5D511
:104E40008CBBDFF8C4A3B5F8B4100AF1240ADAF871
:104E5000000001F4407100F44070884211D0DAF88B
:104E60000010DAF8002021F4407142F48032CAF8D0
:104E70000020DAF8002022F48032CAF80020CAF8B4
:104E80000010D5F8B400B0F5807F1AD1FEF7FEFB14
:104E9000029012E0FEF7FAFB0299411A41F28830C3
:104EA00081420AD9032426462878DFF85CA3C04350
:104EB0000AF1080AC00721D03CE0DAF800008007B8
:104EC000E8D5D5F8B410C1F30120032858460DD019
:104ED000016821F47C510160B5F8B420DAF80010C3
:104EE000C2F30B021143CAF80010DDE7C84A036899
:104EF00002EA111223F47C511143ECE7E86F182801
:104F000016D005DCA0B1082808D0102804D10AE08A
:104F100020280DD028280BD001240AE00198012177
:104F200003F0C2F803E00098012103F04DF90446B4
:104F300064B126462878C04380071ED4A86F06288F
:104F400019D2DFE800F0160C11161616EA6FDAF81F
:104F5000001021F038011143CAF80010EAE7019867
:104F6000012103F0A1F803E00098012103F02CF9DE
:104F700004467CB100E0012426462878C04340075F
:104F80001FD4D5F89400062819D2DFE800F0160CDB
:104F900011161616AA6FDAF8001021F00701114356
:104FA000CAF80010E9E70198012103F07DF803E059
:104FB0000098012103F008F90446A4B100E001249F
:104FC00026462878C04380062BD4D5F89000B0F14F
:104FD000405F24D011DC10B3B0F1805F15D0B0F188
:104FE000005F10D116E0D5F89420D9F8001021F018
:104FF00007011143C9F80010E3E7B0F1804F0ED06C
:10500000B0F1A04F0BD001240AE00198002103F079
:105010004BF803E00098022103F0D6F8044694B15F
:1050200026462878C04340062BD4D5F89C00B0F51E
:10503000406F24D011DC10B3B0F5806F15D0B0F5FF
:10504000006F10D116E0D5F89020DAF8001021F0AA
:10505000E0411143CAF80010E3E7B0F5805F0ED0DD
:10506000B0F5A05F0BD001240AE00198002103F005
:105070001BF803E00098022103F0A6F8044694B15F
:1050800026462878C04300062BD4D5F8A000B0F5FA
:10509000C04F24D011DC10B3B0F5005F15D0B0F5CF
:1050A000804F10D116E0D5F89C20D9F8001021F4DB
:1050B000E0511143C9F80010E3E7B0F5004F0ED0FE
:1050C000B0F5204F0BD001240AE00198002102F036
:1050D000EBFF03E00098022103F076F8044654B198
:1050E00026462878C04300071ED4D5F88400B0F5C2
:1050F000805F0AD00FE0D5F8A020D9F8001021F485
:1051000060411143C9F80010EBE70098022103F059
:105110005BF800B10126D5F88420DAF8001021F4FC
:1051200040511143CAF800102878C043C00613D478
:10513000D5F89800B0F5807F05D10098022103F0E2
:1051400043F800B10126D5F89820D9F8001021F4D1
:1051500040711143C9F800102868C043000316D4F9
:10516000D5F8A40038B1B0F5803F09D0B0F5003FC4
:105170000BD001240AE00198002102F095FF03E022
:105180000098022103F020F804468CB126462868D6
:10519000C043400322D4D5F88800B0F5801F11D059
:1051A000B0F5001F13D0B0F5401F15D0012414E056
:1051B000D5F8A420D9F8001021F440311143C9F8E2
:1051C0000010E4E7386840F40030386004E00098EC
:1051D000012102F0F9FF04465CB126462868C0436D
:1051E000C00323D4286DA8B1B0F5803F17D00124A7
:1051F0001BE0D5F88820DAF8001021F440111143A3
:10520000CAF80010EAE700004C440258004802586F
:10521000CFFFFF00386840F40030386004E00198A8
:10522000022102F041FF0446E4B126462868C0434B
:10523000800005D40098022102F0C6FF00B10126CB
:105240002868C04380031BD4D5F88000B0B1B0F506
:10525000807F0FD0B0F5007F10D0B0F5407F0DD02B
:1052600001240CE05A482A6D016821F48031114371
:105270000160DBE7386840F400303860ECB3264664
:105280002868C043C00207D46A6FD8F8001021F024
:1052900000411143C8F800102868C043C00008D47A
:1052A000D5F8B820DBF8001021F480411143CBF889
:1052B00000102868C043800207D4EA6ED8F80010B6
:1052C00021F080711143C8F800102868C0434000E5
:1052D0000CD4DBF8001021F40041CBF80010DBF80F
:1052E0000010D5F8BC201143CBF800102868C0434B
:1052F00008D437486A6D016800E018E021F0405199
:10530000114301602868C043000208D4D5F88C20FE
:10531000DAF8001021F440011143CAF8001028798E
:105320000024C04300F0010020430AD00FE0D5F86C
:105330008020DAF8001021F440711143CAF80010FF
:105340009EE70198002102F0AFFE00B106462879E1
:10535000C04300F00200204305D10198012102F072
:10536000A3FE00B106462879C04300F004002043A4
:1053700005D10198022102F097FE00B10646287976
:10538000C04300F00800204305D10098002102F03E
:105390001BFF00B106462879C04300F010002043EF
:1053A00005D10098012102F00FFF00B106462879CF
:1053B000C04300F02000044304D10098022102F011
:1053C00003FF00B916B10120BDE8FE8F0020FBE706
:1053D0004C4402582DE9F05F04000F467ED0DFF800
:1053E0003882D8F8000000F00F00B8420CD2D8F88C
:1053F000001021F00F013943C8F80010D8F8000060
:1054000000F00F00B84269D12078844D40070AD5DA
:105410002069296801F07001884204D9296821F0C7
:1054200070010143296020787C4E361D00070AD5A3
:105430006069316801F07001884204D9316821F057
:105440007001014331602078C0060AD5A069316837
:1054500001F4E061884204D9316821F4E06101433C
:1054600031602078DFF8B4B180060BF1080B0CD561
:10547000E1695846DBF8002002F07002914204D93D
:10548000026822F070020A430260207880070AD581
:10549000E068296801F00F01884204D9296821F0E9
:1054A0000F01014329602078C0073ED05B49A26804
:1054B0002868183920F4706010432860606802285A
:1054C00018D0032819D00968012819D049070029E4
:1054D0004ADADFF848A1AAF1080A00E044E0DAF865
:1054E000002022F007020243CAF80020FEF7CEF89F
:1054F000814612E009688903E9E709688901E6E75E
:10550000C905E4E7FEF7C2F8A0EB090141F28830D3
:10551000814202D90320BDE8F09F6168DAF80000FB
:1055200000F03800B0EBC10FECD1207880070AD52D
:10553000E068296801F00F01884204D2296821F04F
:105540000F0101432960D8F80010404601F00F0117
:10555000B9420BD9016821F00F013943016000689D
:1055600000F00F00B84201D00120D4E720784007B6
:105570000AD52069296801F07001884204D229689F
:1055800021F0700101432960207800070AD5606985
:10559000316801F07001884204D2316821F0700155
:1055A000014331602078C0060AD5A069316801F452
:1055B000E061884204D2316821F4E0610143316046
:1055C000207880060CD5E1695846DBF8002002F00F
:1055D0007002914204D2026822F070020A43026013
:1055E00000F06CF80E492A682B68C2F3032203F01E
:1055F0000F038A5CC95C02F01F0201F01F01D0405A
:10560000084A20FA01F1116007490860074800685C
:10561000BDE8F05FFEF776B800200052184402584B
:105620001CAF00089C000024980000249000002477
:1056300030B500F043F80B4A0B490C4B1568146861
:10564000C5F3032204F00F048A5C095D02F01F0217
:1056500001F01F01D040064A20FA01F119601060E4
:10566000084630BD184402581CAF00089C000024B6
:105670009800002400B5FFF7DBFF05490968054ADB
:10568000C1F30211515C01F01F01C84000BD0000D0
:105690001C4402581CAF000800B5FFF7C9FF0549BC
:1056A0000968054AC1F30221515C01F01F01C8409D
:1056B00000BD00001C4402581CAF0008454970B5ED
:1056C00045480968434B103B11F0380208D00111DE
:1056D000082A03D0102A0BD0182A0BD0084670BD18
:1056E00019688906FBD51968C1F3C101C84070BDAE
:1056F0003A4870BD3749374D18310C1D24350A68BA
:10570000096826682D6802F0030406F00102C1F35F
:105710000511C5F3CC0515FB02F200EE102AB8EE18
:10572000400AE9B32F4ADFED2E0AB7EE001A6CB13A
:10573000DFED2D1A012C01D0022C43D002EE101AFD
:105740001068F8EE422A81EEA22A1EE01C68A40628
:1057500011D51B6801EE901A1168C3F3C103F8EE6E
:10576000612AD84001EE900AC1F30800F8EE611AF0
:1057700081EEA22A0BE001EE901ADFED1C2A00BF99
:10578000F8EE611A106882EEA12AC0F3080001EE5B
:10579000900AF8EE611A40EE201A31EE810A00E01C
:1057A00015E022EE000A1068C0F34620401C00EE0F
:1057B000900AF8EE600A80EE201ABCEEC10A10EEE4
:1057C000100A70BD01EE901ADFED092AD8E700201B
:1057D00070BD0000104402580090D00300127A00FF
:1057E00000000039304402580024744A0024744CEC
:1057F0000024F44A2DE9F05F04007DD0FF4F2078AB
:10580000FE4D1837DFF8F493103DC00748D0D9F8A3
:105810000000396800F03800102815D0182803D18E
:1058200001F0030002280FD06068B0F5803F12D06D
:1058300010B1B0F5A02F18D0286820F4803028606F
:10584000286820F4802009E02868800328D5606853
:105850000028D2D024E0286840F4803028606068B6
:1058600088B1FDF713FF064609E0286840F4802060
:105870002860F0E7FDF70AFF801B64286FD82868CE
:105880008003F7D50CE0FDF701FF064605E000BFF9
:10589000FDF7FCFE801B6428F0D828688003F7D44D
:1058A000207841F20308D54E0C3E800769D5D9F81F
:1058B0000000396810F038000ED0182801D1880790
:1058C0000AD0E06890B3296821F0190101432960EA
:1058D000FDF7DCFE824631E02868400702D5E0682B
:1058E00000288AD0E168286820F019000843286061
:1058F000FDF7CCFE824607E0DFE000BFFDF7C6FE05
:10590000A0EB0A000228B9D828684007F6D500BFE6
:10591000FDF7B6FE40451BD82069402812D03168FB
:1059200021F47C3141EA003030602AE018E000BF09
:10593000FDF7ACFEA0EB0A0002289FD828684007BC
:10594000F6D5E5E7306820F47C3040F40030EBE732
:10595000207C316821F0FE4141EA0060E4E70DE17E
:10596000286820F001002860FDF790FE824605E0DF
:10597000FDF78CFEA0EB0A0002288DD828684007AE
:10598000F6D42078C0065DD5D9F80000DFF86CB2F7
:10599000396800F03800ABF1040B082810D0182843
:1059A00003D101F0030001280AD0E069002828682B
:1059B00038D040F080002860FDF768FE824623E082
:1059C0002868C00523D5E069802876D11FE0206AC9
:1059D000202821D0316821F0F84141EA8060306010
:1059E00030E000BF94F82010DBF8002022F07C5259
:1059F00042EA0161CBF8001024E000BFFDF746FE4B
:105A0000A0EB0A00022898D82868C005F6D5FDF753
:105A100037FE4045E6D8DAE7306820F0F84040F03D
:105A20008040DCE720F080002860FDF72FFE06466E
:105A300005E000BFFDF72AFE801B02289DD82868DC
:105A4000C005F7D42078000729D56C486169643017
:105A500000298046016811D041F001010160FDF785
:105A600015FE064605E000BFFDF710FE801B02286C
:105A7000C9D8D8F800008007F6D510E021F0010160
:105A80000160FDF703FE064605E000BFFDF7FEFDE1
:105A9000801B022872D8D8F800008007F6D420783E
:105AA000800623D5A0690028286810D040F48050D3
:105AB0002860FDF7EBFD064605E036E1FDF7E6FD63
:105AC000801B02285AD828688004F7D50EE020F4FD
:105AD00080502860FDF7DAFD064604E0FDF7D6FDAC
