:020000040800F2
:100000002833002479030008A9860008EF78000847
:1000100015800008A10800081BBB000800000000B4
:10002000000000000000000000000000AD9000088B
:1000300049100008000000001D880008B990000861
:100040009703000897030008970300089703000828
:100050009703000897030008970300089703000818
:100060009703000897030008970300089703000808
:10007000E90B0008F50B0008970300089703000838
:100080009703000897030008970300086D10000805
:1000900097030008970300089703000897030008D8
:1000A00097030008970300089703000897030008C8
:1000B00097030008970300089703000897030008B8
:1000C000970300089703000897030008FD8D0008B8
:1000D0009703000897030008970300089703000898
:1000E000970300089703000800000000970300082A
:1000F0009703000897030008970300089703000878
:100100009703000897030008970300089703000867
:100110008D990008970300086D9500089703000863
:100120009703000897030008970300089703000847
:100130009703000897030008970300087910000848
:1001400000000000000000000000000000000000AF
:100150009703000897030008970300089703000817
:100160009703000897030008970300089703000807
:100170009703000897030008970300080000000099
:1001800097030008970300089703000897030008E7
:1001900097030008970300089703000897030008D7
:1001A00097030008970300089703000897030008C7
:1001B00097030008970300089703000897030008B7
:1001C00097030008970300089703000897030008A7
:1001D00097030008AD8600089703000897030008FE
:1001E0009703000897030008970300089703000887
:1001F0009703000897030008970300089703000877
:100200009703000897030008970300089703000866
:100210009703000897030008970300089703000856
:1002200097030008970300089703000800000000E8
:1002300097030008970300080000000097030008D8
:100240009703000897030008970300089703000826
:100250009703000897030008970300089703000816
:100260009703000897030008970300089703000806
:100270009703000897030008970300080000000098
:100280009703000897030008970300080000000088
:10029000000000009703000800F002F800F05CF88E
:1002A0000AA090E8000C82448344AAF10107DA45D1
:1002B00001D100F051F8AFF2090EBAE80F0013F0C7
:1002C000010F18BFFB1A43F001031847F8B90000EB
:1002D00018BA00000A444FF0000C10F8013B13F06C
:1002E000070408BF10F8014B1D1108BF10F8015B8F
:1002F000641E05D010F8016B641E01F8016BF9D182
:1003000013F0080F1EBF10F8014BAD1C0C1B09D1D8
:100310006D1E58BF01F801CBFAD505E014F8016B4A
:1003200001F8016B6D1EF9D59142D6D370470000DC
:100330000023002400250026103A28BF78C1FBD8EE
:10034000520728BF30C148BF0B6070471FB50BF084
:1003500047FC1FBD10B510BD00F074F91146FFF742
:10036000F5FF0BF0EBFB00F092F903B4FFF7F2FF9F
:1003700003BC00F09BF900000A4880470A48804708
:100380000A480047FEE7FEE7FEE7FEE7FEE7FEE776
:10039000FEE7FEE7FEE7FEE705480649064A074B8B
:1003A000704700005110000865910008990200088C
:1003B000282D002428330024282F0024282F00244F
:1003C00053EA020C00F069802DE9F04B4FF0000673
:1003D000002B1FBFB3FA83F503FA05F424FA05F6E0
:1003E0005E4012BF1643B2FA82F502FA05F4C5F177
:1003F00020051EBF22FA05FC44EA0C04203556EA0B
:10040000044C4FEA144418BF641C4FF000084FF02E
:100410000009904271EB030C39D3002919BFB1FADE
:1004200081F701FA07F6B0FA80F700FA07F6C7F18C
:1004300020071EBF20FA07FC46EA0C062037B6FB51
:10044000F4FCA7EB0507103F07F01F0BCBF12006CC
:100450000CFA0BFB2CFA06F644BFB3460026202FFD
:10046000A4BF5E464FF0000B5BEA060C08BF4FF0DE
:10047000010B19EB0B09ABFB027C48EB0608C01B18
:1004800006FB02CC0BFB03CC71EB0C01C1E70B4666
:10049000024641464846BDE8F08B13B54FF00000D8
:1004A0004FF00001AFF30080BDE81C407047032A05
:1004B00040F2308010F0030C00F0158011F8013B81
:1004C000BCF1020F624498BF11F801CB00F8013B68
:1004D00038BF11F8013BA2F1040298BF00F801CB2C
:1004E00038BF00F8013B11F0030300F02580083A03
:1004F000C0F0088051F8043B083A51F804CBA0E85A
:100500000810F5E7121D5CBF51F8043B40F8043BAE
:10051000AFF30080D20724BF11F8013B11F801CBE3
:1005200048BF11F8012B24BF00F8013B00F801CBB4
:1005300048BF00F8012B704710B5203AC0F00B807F
:10054000B1E81850203AA0E81850B1E81850A0E8D7
:100550001850BFF4F5AF5FEA027C24BFB1E8185031
:10056000A0E8185044BF18C918C0BDE810405FEAA1
:10057000827C24BF51F8043B40F8043B08BF70471D
:10058000D20728BF31F8023B48BF11F8012B28BF22
:1005900020F8023B48BF00F8012B704702F0FF0330
:1005A00043EA032242EA024200F002B84FF000029E
:1005B0000429C0F0128010F0030C00F01B80CCF175
:1005C000040CBCF1020F18BF00F8012BA8BF20F8E3
:1005D000022BA1EB0C0100F00DB85FEAC17C24BF37
:1005E00000F8012B00F8012B48BF00F8012B7047E1
:1005F0004FF0000200B5134694469646203922BFBC
:10060000A0E80C50A0E80C50B1F12001BFF4F7AF06
:10061000090728BFA0E80C5048BF0CC05DF804EBE8
:10062000890028BF40F8042B08BF704748BF20F856
:10063000022B11F0804F18BF00F8012B7047704754
:1006400070477047754600F02BF8AE4605006946C6
:10065000534620F00700854618B020B5FFF79CFEF2
:10066000BDE820404FF000064FF000074FF00008B3
:100670004FF0000B21F00701AC46ACE8C009ACE834
:10068000C009ACE8C009ACE8C0098D46704710B598
:100690000446AFF300802046BDE81040FFF765BE7A
:1006A00000487047C82C00247047000001491820FA
:1006B000ABBEFEE72600020070B53A490546006869
:1006C000884202D0384A904202D1D1F8080302E0B1
:1006D0003648D0F8080310F4403F11D005F018FB5D
:1006E00004466868B0F5803F06D0B0F5003F03D0FF
:1006F000B0F5403F27D101E0000C18E0A40822E04B
:1007000000214FF4002004F08BFB0446686881034D
:10071000890B18D181140C2915D2DFE801F01406D9
:1007200006060606060B0D0F1113800C4000B4FBE5
:10073000F0F408E0240906E0640904E0A40902E0FA
:10074000E40900E0240A03F005FB41F203018842BA
:1007500008D8174884422868816813D821F480712A
:10076000816070BD13496008884204D82868816898
:1007700021F44071F4E71049884206D8286881685E
:1007800021F4407141F48071EAE70C4988422868FD
:10079000816804D821F4407141F40071E0E741F42C
:1007A0004071DDE700200240002102400060025855
:1007B000002D3101105E5F0020BCBE0040787D013D
:1007C0000148002106F03ABDEC0F00244FF47A7086
:1007D00000F068B80148002106F030BDEC0F00249D
:1007E0002DE9F843994616460F46044603F0B8FA39
:1007F0000021054608466B463A5C1AB1421C5A5421
:10080000491CC9B2401CC0B20328F5D34FF0000800
:1008100041B120780127052808D2DFE800F03C0923
:10082000152B37004846804784F80080BDE8F883E0
:100830006068281A9628F9D348468047207A401ED7
:1008400020720220656013E06068281A9628EDD3B4
:10085000207A18B1B04765602770E7E7607A401CDE
:10086000C0B260728842656001D2032000E00420BB
:100870002070DBE76068281AB0F5FA7FD6D3607A7B
:10088000185C207265602770B047CFE76068281A4F
:10089000B0F57A7FCAD384F809809DF80000F0E7AC
:1008A000FEE7000070B10849B1FBF0F007490B68A2
:1008B000401ED8624208C8600868426300210348AD
:1008C00006F02EBCFFF77CBF20A10700EC0F002430
:1008D00010B50446401C8AB0C0B207F0CFFC0090AF
:1008E00000200821019004900590CDE902010690B6
:1008F0006946079008900D4800EBC4020C4802F0CE
:100900009FFB50B10B4850F82410491C40F82410AC
:100910000949012008710AB010BD06480C3850F88A
:100920002410491C40F82410F5E70000B40B002403
:10093000880D0024140900241000002400207047B2
:100940000020704705490022054810B509F028FD30
:100950000449034809F017FD002010BDA81D00241C
:10096000CC100024A815002410B50446088881B2D4
:10097000204608F0A3F80448214609F004FD024887
:1009800009F0DAFC002010BDCC10002410B508F0EE
:100990001BF9002010BD00000A46094910B5D1F826
:1009A000BC12D1F8141209B1012010BD014604484F
:1009B00009F0F6FCBDE81040014809F06BBD0000ED
:1009C000CC10002470B50B4D00244FF0FF320CE02A
:1009D000035D5A400023D60702D085EA520200E0A8
:1009E00052085B1C082BF6DB641C8C42F0D3D0430E
:1009F00070BD00002083B8EDF0B5314A8DB0002005
:100A00006D4602F13003A2F16804195C71B100EE89
:100A1000101A02EB800605EB8001B8EE400AD6ED15
:100A2000000A80EE801A81ED001A07E004EB8001D5
:100A300091ED0D0A05EB800181ED000A401C0C28A8
:100A4000E3DB204E0020204FDFED200A195CE1B1EE
:100A500005EB800191ED000A04EB800191ED0D1A88
:100A600030EE410A10EE102AB24204DD91ED010A87
:100A700030EE600A07E010EE102ABA4205D991ED77
:100A8000010A30EE200A81ED010A401C0C28DDDB52
:100A90000B48302229463438FFF74EFD08486421C0
:100AA0006838FFF78FFF60660548683800F056F831
:100AB000074908B1042000E0022008700DB0F0BD25
:100AC000E80C0024DB0F4940DB0F49C0DB0FC940B5
:100AD000240000241F4A002070B5A2F13003A2F1C7
:100AE0009804115C69B100EE101A03EB800504EB69
:100AF0008001B8EE400AD5ED000A80EE801A81ED43
:100B0000011A401C0C28ECDB0020115C69B100EEDE
:100B1000101A03EB800504EB8001B8EE400AD5ED16
:100B2000000A80EE801A81ED0D1A401C0C28ECDBC7
:100B3000084864219838FFF745FF606605489838F3
:100B400000F00CF8044908B1042000E0032008700C
:100B500070BD0000180D002424000024F0B587B0FB
:100B6000044602F0DDFF18B14FF0FF3007B0F0BDD2
:100B700002210020CDE9000107210291012103910A
:100B80002021CDE9041005A9684602F0C7FE20B176
:100B900002F04EFF6FF00100E8E711480426FF2243
:100BA0008021FFF7FBFC0E4868222146FFF7C4FCBA
:100BB0000C4D00240A4F0120294607EB441202F095
:100BC0004FFF20B102F034FF6FF00200CEE7641C4B
:100BD0002035B442EFD302F02BFF0020C6E700001F
:100BE000000C002400001E08014801F029BB000091
:100BF000280F0024014801F023BB0000B00E0024A0
:100C000010B52A4A016891423AD0284A18329142D6
:100C100036D0264A3032914232D0244A483291426C
:100C20002ED0224A603291422AD0204A7832914214
:100C300026D01E4A9032914222D01C4AA8329142BC
:100C40001ED01B4A91421BD0194A1832914217D02C
:100C5000174A3032914213D0154A483291420FD090
:100C6000134A603291420BD0114A7832914207D038
:100C70000F4A9032914203D00D4AA832914211D1CD
:100C8000CAB20C4C1823103AB2FBF3F26FF309010D
:100C900002F00703032AE35CC36500D9091D8165DF
:100CA000084610BD21F0FF01F9E7000010000240E6
:100CB0001004024028BC000810B501680123224C32
:100CC000CAB2A1421BD0204C1434A14217D01E4CF2
:100CD0002834A14213D01C4C3C34A1420FD01A4CF2
:100CE0005034A1420BD0184C6434A14207D0164CAA
:100CF0007834A14203D0144C8C34A1420FD114217A
:100D0000083AB2FBF1F1114A02EB810202660F4A86
:100D100001F01F0180328B40C0E9192310BD182457
:100D2000103AB2FBF4F20A4C2144A82900D8083248
:100D3000084901EB8201016606498031416602F0F3
:100D40001F018B40836610BD08540258005802589A
:100D5000F0FBFDBF0008024010B50279531E072BBF
:100D600030D8194C0168A1421BD0174C1434A14251
:100D700017D0154C2834A14213D0134C3C34A14257
:100D80000FD0114C5034A1420BD00F4C6434A1420F
:100D900007D00D4C7834A14203D00B4C8C34A142C7
:100DA00006D10A4901EB8201C1660849443105E0D8
:100DB000074901EB8201C166054944310167012100
:100DC0009940416710BD000008540258FC58025871
:100DD000FC080240014610B500208B694FF0C0743A
:100DE0008A6A53B1B3F5005F15D072B1012A0CD0F5
:100DF000022A0AD0032A09D104E01AB1012A06D036
:100E0000022A03D1C96AC90100D5012010BDC96AEF
:100E1000A142FAD010BD002AF7D0012AF2D0022A4E
:100E2000F3D0032AF3D010BD2DE9F04F834E834F4A
:100E3000DFF808C24836DFF80492DFF800A20CF1B0
:100E4000180CDFF8F8B109F13009DFF8F0E10AF128
:100E5000600A04680BF1780B856D0EF1900EBC42B0
:100E60006DD064456BD04C4569D0B44267D05445D1
:100E700065D05C4563D0744561D0DFF8C08108F16E
:100E8000A80844455BD0DFF8B881444557D0DFF867
:100E9000B08108F11808444551D0DFF8A48108F169
:100EA000300844454BD0DFF8988108F148084445A4
:100EB00045D0DFF88C8108F1600844453FD0DFF869
:100EC000808108F17808444539D0DFF8748108F151
:100ED0009008444533D0DFF8688108F1A8084445FC
:100EE0002DD0DFF86081444529D0DFF8588108F122
:100EF0001408444523D0DFF84C8108F12808444504
:100F00001DD0DFF8408108F13C08444517D0DFF8D8
:100F1000348108F15008444511D0DFF8288108F1E8
:100F2000640844450BD0DFF81C8108F1780844457B
:100F300005D0DFF8108108F18C08444509D1D0E9CB
:100F40001948C4F80480C46E1CB1D0E91C48C4F828
:100F500004800468BC422ED064452CD04C452AD075
:100F6000B44228D0544526D05C4524D0744522D0C4
:100F7000324EA836B4421ED0314EB4421BD0304E51
:100F80001836B44217D02E4E3036B44213D02C4E01
:100F90004836B4420FD02A4E6036B4420BD0284EA9
:100FA0007836B44207D0264E9036B44203D0244E51
:100FB000A836B44215D190F85C4004F01F063F24D7
:100FC000B440AC600468256825F4802525602EE0D7
:100FD0009A600068C160BDE8F08F99600068C260E7
:100FE000F9E7184EB4421BD0164E1436B44217D04F
:100FF000144E2836B44213D0124E3C36B4420FD0B1
:10100000104E5036B4420BD00E4E6436B44207D068
:101010000C4E7836B44203D00A4E8C36B442DAD144
:1010200090F85C4004F01F060124B4406C60046832
:1010300063608368402B0368CFD1C9E7100002408A
:101040001004024008540258704772B6FEE70000D0
:101050000548016841F00201016003480838016851
:101060008904FCD5704700000C480258014802F082
:1010700015B90000880D0024014802F00FB90000E6
:10108000880D002430B50368426B53F8844F4FF647
:10109000FC718C4344EA82041C60036853F8844F5B
:1010A000058F24F47F0444EA05441C60836B1A44D2
:1010B0000368D3F888408C4344EA8204C3F888402C
:1010C000036853F8884F858F24F4FE0444EA0544EE
:1010D0001C60C36B02EB43020368D3F8A0408C434F
:1010E00044EA8204C3F8A040036853F8A04FB0F864
:1010F000405024F4FE0444EA05441C60D0E9103456
:1011000003FB04220368D3F8B0408C4344EA820412
:10111000C3F8B040036853F8B04FB0F8485024F417
:10112000FE0444EA05441C60D0E9123403FB0422A7
:101130000368D3F8AC408C4344EA8204C3F8AC4063
:10114000D0E9143403FB04220368D3F8F0408C4345
:1011500044EA8204C3F8F040036853F8F04FB0F853
:10116000585024F47C1444EA05441C60836D02EB5F
:1011700043030268D2F8C0408C4344EA8301C2F8BA
:10118000C010016851F8C02FB0F85C3022F47C1216
:1011900042EA03420A60016851F8C02F90F86030BB
:1011A00022F07C5242EA03620A60416B234A02EB5E
:1011B0008101C166826B01EB82020267C36B02EBA5
:1011C000C3024267D0E91034634302EB83028267B3
:1011D000D0E91234634302EB8302C267D0E91434CE
:1011E000634302EB8302C0F88020836D02EBC302ED
:1011F000C0F88420C46D836E5C4302EB8402C0F8A7
:101200008820046E5C430E4B02EB8402C0F89020F1
:101210009A420AD9D0F89C1041F02001C0F89C10E5
:10122000032180F89810012030BD002200E004C1A5
:10123000D0F890308B42FAD8002030BD00AC00408E
:10124000FCD30040F0B5D1E901650C692C430D6871
:10125000CEB145F080452C4391F82070D1E9066568
:1012600035434E6946EA076635438E8945EA0645A9
:10127000D0F88460806E584306EB80030020E3E8DA
:1012800002450B4D0FE044EA8544E5E71418165C6F
:10129000E77846EA0766A77864783F0447EA0424BB
:1012A0002643001D40C3CC682C5D8442EED8F0BDBF
:1012B00030BC0008002804D002494FF4A872FFF7A0
:1012C0003BB970476001002400B5164889B04FF45F
:1012D000A871FFF78DF913490C39002008604860A8
:1012E0008860012100900190CDE90201049040F254
:1012F000FF70059069460C4801F0D6FE08B1FFF773
:10130000A4FE094802F0E7FA08B1FFF79EFE06487E
:101310000022012101F052FE002801D0FFF795FEC6
:1013200009B000BD60010024880D002430B50F4BCA
:101330004FF08404CD0744EA002007D0DC6824F491
:10134000E664DC60DC6814430443DC6089070BD589
:10135000D3F80C1121F4E661C3F80C11D3F80C1189
:1013600011430143C3F80C1130BD000000200052AE
:10137000CA4393071C4A20D0CB070AD0D36823F076
:101380003003D360D3680343D360D36843F088034A
:10139000D360890710D5D2F80C1121F03001C2F8C2
:1013A0000C11D2F80C110143C2F80C11D2F80C0147
:1013B00040F08800C2F80C017047D16821F030017C
:1013C000D160D2F80C1121F03001C2F80C11D168B3
:1013D0000143D160D2F80C110143C2F80C1190699D
:1013E00040F0100090617047002000522DE9F04756
:1013F00004240E46074602F0B3FC022E804600D1BC
:10140000264CDFF89CA0274D04EA0A09B9F1000F29
:101410002BD0D5F8100124EA00004000C8B1012EFD
:1014200027D0D5F810012049084040F00040410085
:1014300023D01E4A91690143916110EA0A0F01D13C
:10144000686103E020F00040C5F814010120BDE808
:10145000F087781CDAD002F083FCA0EB0800B842D9
:1014600001D8002FD2D10320F1E7286924EA000037
:10147000D4E728690E490840D9E7012E4FF480309F
:1014800007D0D5F81011C90301D5C5F81401002003
:10149000DDE72969C903FAD56861F8E7040000802F
:1014A000F0FF10E0002000520000EE97AC2C00246A
:1014B0000000EE172DE9F047044690F850009AB06E
:1014C0000D4601284FF0000915D0012084F8500086
:1014D000002715971697DFF8E880216841450ED15F
:1014E000384E0096304606F075FB8246206806F0BE
:1014F00071FB60B10EE002201AB0BDE8F087606DAC
:1015000040F020006065012084F85070F4E7BAF1E3
:10151000000F09D0606D40F0200060654FF00109B8
:1015200084F850704846E7E720684346984201D067
:10153000B04201D1244800E0244840F61F722968D7
:10154000DFF88CC00029816821F440411FD0D5F814
:10155000048041EA080181602168994201D0B142CA
:1015600007D19968B368C1F30001C3F300031943BD
:1015700003E0DCF80810C1F300010029D0D12B688A
:10158000A9680B43816891430B438360C8E781607E
:101590002168994201D0B14207D19968B368C1F37B
:1015A0000001C3F30003194303E0DCF80810C1F3A2
:1015B00000010029B4D1816891438160B0E7000047
:1015C0000020024000210240002302400063025834
:1015D000006002582DE9F84F00270446DFF8A48385
:1015E0000D46009790F85000E74EDFF8A0A30128C1
:1015F00008D04FF0010984F85090206806F0E6FA10
:1016000018B16DE10220BDE8F88F286800280DDBD5
:101610002168CA69030329D090FAA0F0B0FA80F0DB
:1016200000F01F0309FA03F00243CA61D5E9002163
:1016300020680C2303EA91131844036B01F01F0187
:101640004FF01F0CC2F384620CFA01FC8A4023EABB
:101650000C0313430363206806F0B8FA834620683E
:1016600006F0ACFA5BEA000103D08CE0C0F38460C2
:10167000D6E7286804232168AA6803EAD0531944EE
:101680004B694FF0070CC0F304500CFA00FC824089
:1016900023EA0C0313434B61BD480168B9EB117F8A
:1016A00006D168692168C968C1F38201490008E070
:1016B0002168C868C0066869F5D5C96801F01001DD
:1016C00049088840296904292DD022682B6802EB3B
:1016D00081010A6E03F0F843034302F000421A430B
:1016E0000A66697E22682869012916D0002102EB6A
:1016F0008000026E22F000420A430266297E2068C2
:101700002A6901290CD00021036902F01F0223F489
:10171000F04391400B43036135E04FF00041E6E7B1
:101720004FF40061F0E72068016E2A7801F0F8417B
:10173000B1EB826F03D1016E21F000410166206898
:10174000416E2A7801F0F841B1EB826F03D1416E0E
:1017500021F0004141662068816E2A7801F0F8414D
:10176000B1EB826F03D1816E21F000418166206868
:10177000C16E2A7801F0F841B1EB826F03D1C16EDE
:1017800021F00041C166206806F01CFA00287DD1D6
:1017900020682A7B296850F8C03FC1F3130C23EA64
:1017A0000C0302F0180C7B4A22FA0CF20A40134395
:1017B0000360E968414567D1DFF8E0C176482168F8
:1017C000DFF8DCB14FEA4C08DFF8D8E18142764A15
:1017D000764B22D12868604524D0404526D0A0F120
:1017E000496CBCF1080C31D0A0F1865CBCF1100C46
:1017F0002ED0704528D0DFF8B8C1604537D0904270
:101800002ED0984230D06B4A904201D16A4A2EE0E5
:101810006A4A90422AD16A4A29E0B14226D1286810
:10182000604501D1012222E0404501D15A461EE027
:10183000A0F1496CBCF1080C08D0A0F1865CBCF1A9
:10184000100C05D0704505D15E4A10E05E4A0EE0EE
:101850005E4A0CE0DFF858C1604508D0904201D1E3
:101860001A4604E09842D3D1594A00E00022CB69DD
:10187000100319D092FAA2F0B0FA80F000F01F0223
:1018800009FA02F00343CB612A6800E02DE0002A48
:101890002BDA414B20684F4DDFF83C91984201D044
:1018A000B04203D1294602E0900EE7E74946896835
:1018B000984201F0E07101D0B0420AD1D3F808C0DB
:1018C000D6F80880CCF3000CC8F300084CEA080CEA
:1018D00003E0DAF808C0CCF3000CBCF1000F09D02B
:1018E000606D40F0200060650127002084F8500002
:1018F000384688E6DFF8E4C062451DD15FEA012C76
:101900001AD45045F1D1984202D0B04200D04D4691
:1019100041F40000A96821F0E0710143A96030485A
:1019200030490068B0FBF1F04000801C00E0401E30
:1019300000900028FBD1D8E7DFF8ACC062450CD19D
:101940005FEAC11C09D45045CFD1984202D0B042C1
:1019500000D04D4641F080700EE0DFF890C0624547
:10196000C3D14A02C1D45045BFD1984202D0B0423F
:1019700000D04D4641F48000A96821F0E071014398
:10198000A960B2E70000FF47002102400060025852
:101990000010005CFFFF0F00002002400200300436
:1019A000400020192000F0140008302E0010603292
:1019B0000004002A00002143000052470000844B2D
:1019C0000000B84F0002B0258000501D00018021AA
:1019D000002090360023024000630258000084CBB0
:1019E0009C000024400D0300000052C70000B8CF47
:1019F000F8B54FF0000504002E46009502D0606D4A
:101A000010B107E00120F8BD204600F001F9A665FD
:101A100084F8506020688168C1F3407119B1816811
:101A20006E4A1140816020688168C1F3007181B9FC
:101A300081686B4A114041F08051816069486A4970
:101A40000068B0FBF1F0401C00E0401E0090002850
:101A5000FBD120688168C1F3007141B9616D41F02B
:101A600010016165A16D41F00101A165012506F03C
:101A7000ADF8616DC90600D430B1606D40F0100062
:101A8000606501252846F8BD606D20F4807040F047
:101A900002006065206806F095F800BB534A206894
:101AA000534B904201D0984207D191689E68C1F390
:101AB0000001C6F30006314303E04E498968C1F3D3
:101AC000000161B9904201D0984201D14A4800E03A
:101AD0004A486168826822F47C120A43826002F0FC
:101AE00039F941F20301884202D9A06810280CD0CC
:101AF000A168206B227F0843617D490341EA0241CE
:101B00000843D1B201290CD010E0617D227F206B07
:101B1000490340F0100041EA0241084340F00C0044
:101B2000EFE7218C364A02EB41410843616A29B153
:101B3000A26A01F47871014342EA01002168CA688F
:101B4000304B1A400243CA60206806F03FF8064650
:101B5000206806F033F806431DD1217DE06A40EA93
:101B600081312068C26844F203039A430A43C26089
:101B700094F83800012816D02068016921F001018D
:101B8000016120680169626B21F0704111430161BC
:101B90002046FEF791FDE06801282068016B21F0E6
:101BA0000F0110D012E0D4E91010A28F164B0143A0
:101BB000A06C03EB02421043014320680269134BFF
:101BC0001A401143DCE7A269521E11430163606DA4
:101BD00020F0020040F00100606553E7C0FFFF5FA6
:101BE000C0FFFF7F9C000024400D03000020024046
:101BF00000210240006002580023024000630258A6
:101C00000000FEFF03C0F0FF0100FFFF1EF800FC14
:101C100010B586B0044614216846FEF7E9FC114968
:101C2000206888421CD11048016841F02001016001
:101C3000006800F0200005900B480830016841F072
:101C4000040101600068694600F00400059010205E
:101C500000900320019000200290044801F082FFD0
:101C600006B010BD00200240D844025800080258B7
:101C70002DE9F84F044602F073F8009034B194F85F
:101C80003500022805D080206065EBE00120BDE82A
:101C9000F88FCC4ECB4FCB491836DFF8288330373E
:101CA000DFF82093DFF81CA308F14808DFF814B32D
:101CB00009F1600920680AF1780A0BF1900B88425B
:101CC0002ED0B0422CD0B8422AD0404528D048452A
:101CD00026D0504524D0584522D0BA4AA832904246
:101CE0001ED0B94A90421BD0B74A1832904217D042
:101CF000B54A3032904213D0B34A483290420FD0A6
:101D0000B14A603290420BD0AF4A7832904207D04D
:101D1000AD4A9032904203D0AB4AA832904209D1EA
:101D2000026822F01E0202602068426922F08002EE
:101D3000426103E0026822F00E02026025688D42D3
:101D400028464DD0B0424BD0B84249D0404547D04C
:101D5000484545D0504543D0584541D0994AA832CE
:101D600090423DD0984A90423AD0974A18329042D9
:101D700036D0954A3032904232D0934A483290421F
:101D80002ED0914A603290422AD08F4A78329042C7
:101D900026D08D4A9032904222D08B4AA83290426F
:101DA0001ED08A4A90421BD0884A1432904217D0E3
:101DB000864A2832904213D0844A3C3290420FD057
:101DC000824A503290420BD0804A6432904207D00F
:101DD0007E4A7832904203D07C4A8C32954204D1BC
:101DE000206E026822F48072026076492068884280
:101DF00028D0B04226D0B84224D0404522D0484511
:101E000020D050451ED058451CD06E49A83188427C
:101E100018D06D49884215D06B491831884211D0CD
:101E20006949303188420DD067494831884209D02C
:101E300065496031884205D063497831884201D0D4
:101E400061499031016821F0010101600EE001F06B
:101E500087FF0099401A052808D9202060650320D3
:101E600084F83500002084F834000FE72868C007A4
:101E7000EDD1544A0121206890422ED0B0422CD09E
:101E8000B8422AD0404528D0484526D0504524D0D5
:101E9000584522D04B4BA83398421ED04A4B98420B
:101EA0001BD0494B1833984217D0474B30339842D8
:101EB00013D0454B483398420FD0434B6033984280
:101EC0000BD0414B7833984207D03F4B9033984228
:101ED00003D03D4BA833984208D194F85C30A06DF4
:101EE00003F01F053F23AB40836007E094F85C30AC
:101EF000A06D03F01F0301FA03F3436020689042D2
:101F00004DD0B0424BD0B84249D0404547D048456B
:101F100045D0504543D0584541D02A4AA832904236
:101F20003DD0294A90423AD0274A1832904236D0C2
:101F3000254A3032904232D0234A483290422ED045
:101F4000214A603290422AD01F4A7832904226D0ED
:101F50001D4A9032904222D01B4AA83290421ED095
:101F60001A4A90421BD0194A1432904217D0174A8D
:101F70002832904213D0154A3C3290420FD0134A77
:101F8000503290420BD0114A6432904207D00F4A2F
:101F90007832904203D00D4A8C3290420BD1D4E972
:101FA00019024260E06E30B1026822F48072026071
:101FB000D4E91C02426084F83510002084F8340013
:101FC00065E6000010000240100402400854025868
:101FD0002DE9F05F28B190F83510022904D0802156
:101FE00041650120BDE8F09F914A914B914D183217
:101FF000904E3033DFF838C21835DFF834E2483617
:10200000DFF83092DFF82CA20EF1600EDFF824B278
:1020100009F1300901680AF1600A864C0BF1A80B3E
:10202000614529D0914227D0994225D0804F483729
:10203000B94221D071451FD07D4F7837B9421BD0AE
:102040007B4F9037B94217D0794FA837B94213D098
:10205000A14211D0A9420FD049450DD0B1420BD0B9
:10206000514509D0734F7837B94205D0714F903739
:10207000B94201D059452FD1042780F83570614508
:1020800025D0914223D0994221D0694848308142DD
:102090001DD071451BD066487830814217D0644806
:1020A0009030814213D06248A83081420FD0A142C3
:1020B0000DD0A9420BD0494509D0B14207D05145B6
:1020C00005D05C487830814201D05A489030086889
:1020D00020F001000860A8E0D1F8008028F00E0888
:1020E000C1F800800168E04641452BD0914229D0DB
:1020F000994227D0DFF838C10CF1480C614521D056
:1021000071451FD0DFF828C10CF1780C614519D05A
:10211000DFF81CC10CF1900C614513D0DFF810C141
:102120000CF1A80C61450DD0A1420BD0A94209D0F9
:10213000494507D0B14205D0514503D0DFF8F4C07E
:102140000CF1780CD1F800C02CF0010CC1F800C0E3
:1021500001684FF0010C414546D0914244D099426C
:1021600042D0334A483291423ED071453CD0304A49
:102170007832914238D02E4A9032914234D02C4A53
:10218000A832914230D0A1422ED0A9422CD049454C
:102190002AD0B14228D0514526D0264A78329142E1
:1021A00022D0B94220D059451ED0234A91421BD09B
:1021B000214A1432914217D01F4A2832914213D03B
:1021C0001D4A3C3291420FD01B4A503291420BD0F3
:1021D000194A6432914207D0174A7832914203D0AB
:1021E000154A8C32914218D1016E0A6822F480722D
:1021F0000A6090F85C20816D02F01F020CFA02F276
:102200004A60D0E919124A60C16E31B10A6822F4FD
:1022100080720A60D0E91C124A6080F835C0002143
:1022200080F83410016D01B188470020DAE6000023
:10223000100002401004024008540258406D7047DC
:102240002DE9FC5F0446002000904FF41651F94838
:102250000068B0FBF1F00190A56D2E682A68F64F7A
:10226000DFF8D483DFF8D0A3DFF8CCB308F1180887
:1022700020680AF1300ADFF8C4930BF1480BB8422A
:1022800038D04146884235D0504533D0584531D0BA
:10229000E949603188422DD0E7497831884229D018
:1022A000E5499031884225D0E349A831884221D0C0
:1022B00048451FD0E149183188421BD0DF493031F1
:1022C000884217D0DD494831884213D0DFF86CE3EB
:1022D0000EF1600E70450DD0D84B7833984209D07E
:1022E000DFF858C30CF1900C604503D0D349A831F6
:1022F00088427DD194F85C10082301F01F0103FA95
:1023000001F232424CD0B84233D0404531D0504532
:102310002FD058452DD0C8496031884229D0C649B0
:102320007831884225D0C4499031884221D0C249B1
:10233000A83188421DD048451BD0C0491831884279
:1023400017D0BE493031884213D0BC494831884249
:102350000FD0BA49603188420BD0B84978318842F1
:1023600007D0B6499031884203D0B449A831884299
:1023700003D1016801F0040102E0016801F00801E5
:1023800071B1016821F00401016094F85C0000F073
:102390001F0003FA00F2AA60606D40F00100606562
:1023A00094F85C00012100F01F008140314241D0CF
:1023B0002068B84235D0404533D0504531D05845DB
:1023C0002FD09D4A603290422BD09B4A7832904267
:1023D00027D0994A9032904223D0974AA83290420F
:1023E0001FD048451DD0954A1832904219D000E0C0
:1023F000B3E1924A3032904213D0904A4832904230
:102400000FD08E4A603290420BD08C4A7832904284
:1024100007D08A4A9032904203D0884AA83290422C
:102420007ED1406910F0800F04D0A960606D40F04B
:102430000200606594F85C00042100F01F008140F8
:1024400031423FD02068B84233D0404531D050456A
:102450002FD058452DD0784A6032904229D0764A04
:102460007832904225D0744A9032904221D0724AFC
:10247000A83290421DD048451BD0704A1832904275
:1024800017D06E4A3032904213D06C4A4832904294
:102490000FD06A4A603290420BD0684A783290423C
:1024A00007D0664A9032904203D0644AA8329042E4
:1024B0004FD1006810F0020F04D0A960606D40F0A9
:1024C0000400606594F85C00102100F01F0081405A
:1024D000314259D02068B84235D0404533D05045BC
:1024E00031D058452FD0544A603290422BD0524AB6
:1024F0007832904227D0504A9032904223D04E4AB0
:10250000A83290421FD048451DD04C4A1832904204
:1025100019D04A4A3032904215D0484A483200E039
:1025200015E090420FD0454A603290420BD0434AAA
:102530007832904207D0414A9032904203D03F4ACD
:10254000A832904207D1006800F0080006E0006859
:1025500070E70068B6E7006800F00400A0B1A96069
:1025600020680168490304D50068000308D5A16C00
:1025700007E00168C90503D4016821F00801016082
:10258000216C09B12046884794F85C00202100F0B6
:102590001F008140314278D02068B84233D0404596
:1025A00031D050452FD058452DD0234A603290422B
:1025B00029D0214A7832904225D01F4A9032904249
:1025C00021D01D4AA83290421DD048451BD01B4A3D
:1025D0001832904217D0194A3032904213D0174A1D
:1025E000483290420FD0154A603290420BD0134AC5
:1025F0007832904207D0114A9032904203D00F4A6D
:10260000A832904203D1006800F0100002E0006898
:1026100000F00200A0B3A96094F8350004282068F7
:1026200001680DD049037CD50068000329D4616C92
:1026300028E000009C00002410000240100402402A
:1026400021F0160101602068416921F0800141619B
:10265000206C08B9A06C20B12068016821F0080145
:10266000016094F85C0000F01F013F208840A860E2
:10267000012084F83500002084F83400216D65E0E5
:1026800003E0E16B09B120468847606D00287DD0EA
:10269000606DC00759D0042084F835002068B84226
:1026A0002BD0404529D0504527D0584525D09E49AC
:1026B000884222D09C49183188421ED09A49303134
:1026C00088421AD098494831884216D0484514D0DB
:1026D0009649884211D09549183188420DD09349C6
:1026E0003031884209D091494831884205D08F491C
:1026F0006031884201D08D497831016821F00101B3
:10270000016021680098019A401C0090904202D814
:102710000868C007F6D10868C00710D003200FE092
:10272000FFE70168C905ACD4016821F01001016020
:10273000012084F83500002084F83400A1E701204E
:1027400084F83500002084F83400E16C00291DD0A5
:1027500002B02046BDE8F05F0847754988421DD0A9
:1027600073491431884219D071492831884215D0F3
:102770006F493C31884211D06D49503188420DD0AB
:102780006B496431884209D0694900E084E07831BE
:10279000884203D066498C3188427DD101684FF070
:1027A000040894F85C6006F01F0608FA06F818EAB8
:1027B000020FCDF8008047D05FEA417844D50098F9
:1027C0006860080403D5C8033CD4A16CBEE7880642
:1027D00038D42068B8422DD053494839884229D08E
:1027E000504527D0584525D04F49884222D04E49E0
:1027F000183188421ED04C49303188421AD04A499B
:102800004831884216D0484514D04849884211D0F2
:102810004649183188420DD044493031884209D0A8
:10282000704507D0984205D0604503D03F499031AC
:10283000884203D1016821F0080102E0016821F01B
:1028400004010160216C81E74FF0020808FA06F8E4
:1028500018EA020FCDF800804FD05FEA81784CD59E
:1028600000986860080403D5C80344D4616C6DE720
:10287000880640D42068B8422FD02B494839884276
:102880002BD0504529D0584527D02749884224D0FD
:1028900025491831884200E043E01ED022493031FA
:1028A00088421AD020494831884216D0484514D071
:1028B0001E49884211D01D49183188420DD01B494C
:1028C0003031884209D0704507D0984205D0604524
:1028D00003D016499031884203D1016821F01401D8
:1028E00002E0016821F00A010160012084F835004E
:1028F000002084F83400E16B28E70823B34013423A
:102900000FD009070DD5016821F00E01016094F880
:102910005C0000F01F01012000FA01F169606065B0
:102920000EE7BDE8FC9F0000700002402804024052
:10293000085402582DE9F05F044601F011FA0646EA
:10294000F4B3E24F0222DFF884830025DFF87C93A2
:10295000DFF878A308F13008DFF870B309F148090F
:1029600020680AF1600A0BF1780BB84234D0D749DD
:102970001831884230D040452ED048452CD05045A3
:102980002AD0584528D0D1499031884224D0CF4907
:10299000A831884220D0CE4988421DD0CC49183178
:1029A000884219D0CA493031884215D0C8494831C7
:1029B000884211D0C649603188420DD0C44900E038
:1029C00042E07831884207D0C1499031884203D033
:1029D000BF49A83188427CD184F83520B84284F8B8
:1029E00034502CD0B9491831884228D0404526D0DF
:1029F000484524D0504522D0584520D0B349903185
:102A000088421CD0B149A831884218D0B0498842C8
:102A100015D0AF491831884211D0AD4930318842C4
:102A20000DD0AB494831884209D0A949603188426C
:102A300005D0A7497831884201D0A5499031016875
:102A400021F00101016009E00120BDE8F09F01F0E3
:102A500087F9801B052801D9202015E1206800682E
:102A6000C007F4D1226811689A480140D4E90203F2
:102A70001843D4E9043633431843A3691843E36980
:102A80001843236A18430843616A042903D1D4E92F
:102A90000B1319430843904909686FF30F01B1F113
:102AA000005F0FD36168A1F12903052B08D9163BFC
:102AB000032B05D9083B012B02D94F39032901D833
:102AC00040F4801010602068406920F00701606ABF
:102AD00000E01CE0042840EA01060BD1A06A06438E
:102AE000E06A38B12046FEF775F918B140206065FC
:102AF0000120CBE0206846612046FEF781F894F87B
:102B00005C1001F01F023F219140816056E0734943
:102B100088421BD0714B1433984217D06F4B283327
:102B2000984213D06D4B3C3398420FD06B4B5033CF
:102B300098420BD0694B6433984207D0674B783387
:102B4000984203D0654B8C3398427DD1884201D0A6
:102B50006249143184F8352084F8345002686049A1
:102B60000A40A168402970D080296FD00021E36815
:102B700041EAD301236941EAD301636941EAD30100
:102B8000A36941EAD301E36941EAD301236A41EA37
:102B9000131111430160514920684942084414212E
:102BA000B0FBF1F08000E0652046FEF729F894F8CC
:102BB0005C1001F01F020121914041602068B84281
:102BC00055D042491831884251D040454FD04845F0
:102BD0004DD050454BD0584549D03C499031884262
:102BE00045D03A49A831884241D0394988423ED03F
:102BF0003749183188423AD035493031884236D089
:102C000033494831884232D03149603188422ED030
:102C10002F49783188422AD02D499031884226D0D8
:102C20002B49A831884222D02C4988421FD02B49F9
:102C3000143188421BD029492831884217D02749AE
:102C40003C31884213D002E01DE017E018E0234930
:102C5000503188420BD021496431884207D01F4946
:102C60007831884203D01D498C31884228D12046D2
:102C7000FEF722F8A06880280BD00BE0102176E741
:102C80004FF4804173E740206065032084F83500ED
:102C9000DAE66560216E20790860D4E919014160A7
:102CA0006068401E072808D82046FEF755F8E06EF9
:102CB0000560D4E91C01416002E0E56625676567AF
:102CC0006565012084F835000020BEE61000024052
:102CD000100402403F8010FE0010005C08540258AF
:102CE0000F00FEFF2DE9F84F04004FF000000090A8
:102CF00014D094F83400012812D0012084F8340054
:102D000094F835500020012D0CD04FF4006161651E
:102D100084F8340001200090BDE8F88F0120FBE723
:102D20000220F9E7022584F835506065974D974EEB
:102D3000964F1835DFF854C23036DFF850824837E6
:102D4000DFF84892DFF844A208F16008DFF83CB2EF
:102D500009F1780920680AF1900A0BF1A80B604587
:102D600033D0A84231D0B0422FD0B8422DD0404508
:102D70002BD0484529D0504527D0584525D0DFF8DD
:102D800010C2604521D0DFF808C20CF1180C604574
:102D90001BD0DFF8FCC10CF1300C604515D0DFF81A
:102DA000F0C10CF1480C60450FD0DFF8E4C10CF124
:102DB000600C604509D0DFF8D8C10CF1780C604593
:102DC00003D0DFF8CCC10CF1900CD0F800C02CF08F
:102DD000010CC0F800C02046FEF726F86B492068B9
:102DE00088422CD0A8422AD0B04228D0B84226D05F
:102DF000404524D0484522D0504520D058451ED0CB
:102E0000634A90421BD0624A1832904217D0604AFF
:102E10003032904213D05E4A483290420FD05C4A22
:102E2000603290420BD05A4A7832904207D0584ACA
:102E30009032904203D0564AA83290420CD1026898
:102E400022F01E0242F016020260206C88B1206857
:102E5000026842F008020BE0026822F00E0242F023
:102E60000A020260206C20B12068026842F004026D
:102E70000260206888424BD0A84249D0B04247D077
:102E8000B84245D0404543D0484541D050453FD059
:102E900058453DD03E4A90423AD03D4A1832904281
:102EA00036D03B4A3032904232D0394A4832904292
:102EB0002ED0374A603290422AD0354A783290423A
:102EC00026D0334A9032904222D0314AA8329042E2
:102ED0001ED0304A90421BD02E4A1432904217D056
:102EE0002C4A2832904213D02A4A3C3290420FD0CA
:102EF000284A503290420BD0264A6432904207D082
:102F0000244A7832904203D0224A8C3290420DD12A
:102F1000206E0268D20303D5026842F48072026018
:102F2000E06E18B1026842F4807202602068884244
:102F300026D0A84224D0B04222D0B84220D040456A
:102F40001ED048451CD050451AD0584518D01049BD
:102F5000884215D00E491831884211D00C493031C1
:102F600088420DD00A494831884209D00849603169
:102F7000884205D006497831884201D00449903111
:102F8000016841F0010101600098C5E610000240AF
:102F9000100402400854025870B5044600F0E0FEE8
:102FA0000546601C02D004480078044400F0D8FEB6
:102FB000401BA042FAD370BD9000002410B590F8D9
:102FC0009830012B09D0022B07D0D0F89C1041F08B
:102FD0000201C0F89C10012010BD03689C6D0C42DA
:102FE00003D1DC6D44F0010404E09C6D31EA04047B
:102FF0001ED00324DC658B0505D50368D3F8E040BB
:103000001443C3F8E0404B0505D50368D3F8E4400A
:103010001443C3F8E4400068426D074B0B401A4369
:1030200042650648026842EA91710160002010BDC5
:10303000DC6D44F00204DDE7FFFFCF3F14A8004041
:1030400070B5044690F89800022804D0D4F89C008B
:1030500040F008000DE02068D0F8C03013F07C5F2D
:103060000BD0D0F8C4309B020CD5D4F89C0040F4AF
:103070000070C4F89C00012070BDD4F89C0040F0A2
:103080002000F6E7D0F8C400C0F3044520462B46E4
:10309000FEF7D8F821680120A840C1F8D000C4F894
:1030A0009400002070BD704710B590F89820012A58
:1030B00009D0022A07D0D0F89C1041F00201C0F8D4
:1030C0009C10012010BD0B68CA6883B10B69072AE8
:1030D00043EA427325D00C7A4A6942EA847249680D
:1030E000006F00EBC100C0E90032002010BD072ACC
:1030F0000DD00C7AD2064B6943EA84730C8A42EAFB
:103100000442C06E4968134340F82130EDE70B8A52
:103110004FF060548A6942EA0343CA6944EA0222D2
:10312000EFE78A69DBE7704770470000F0B590F879
:1031300098500024022D04D0D0F89C1041F00801D2
:103140002CE0402905D041292CD0056D8D421CD999
:1031500045E00568D5F8A06016F4FE0F15D0D5F847
:10316000A460760616D0D5F8A460F60105D5D5F88A
:10317000A06016F0004F00D50124D5F8A450466F8A
:10318000C5F305252C44456C27E0D0F89C1041F090
:10319000200103E0D0F89C1041F48071C0F89C102D
:1031A0000120F0BD0568D5F8B06016F4FE0FECD034
:1031B000D5F8B4607606EDD0D5F8B460F60105D543
:1031C000D5F8B06016F0004F00D50124D5F8B45002
:1031D000866FC5F305252C44C56C654302E0456D3B
:1031E000C66F4D4306EB8506356815F08045556082
:1031F000356824D025F0604515603568254F05F009
:1032000000559560356805F000451561B588ADB28B
:10321000D5617568C5F30345D560756805F48015FB
:103220005561756805F4001595617568C5F3066507
:1032300015627568ED0F55620025083607E0C5F385
:103240008A45D9E716F805C003F805C06D1CD2F809
:103250000CC017F80CC0AC45F4D8402909D041295E
:103260000BD0012220290CD200688A40C0F8982097
:103270000DE00068C0F8A84009E00068C0F8B84058
:1032800005E0006801F01F018A40C0F89C20002082
:10329000F0BD000030BC0008704700002DE9FE4F73
:1032A000B34F044638688007391D096800EA817BFE
:1032B0002068016D426D01F470410A400292016D77
:1032C000426D01F00F0102EA010A016D426D01F049
:1032D000F0010A400192016D426D01F0715102EA64
:1032E0000108016D426D01F060710A400092416D6C
:1032F000056D4FF00009CE43F10509D4E943C90536
:1033000006D4B9150165C7F800902046FFF7C4FF41
:10331000700510D4E84340050DD42068D0F8DC20B7
:10332000D0F8E41011404FF480620265C7F80090B5
:10333000204600F0EFFABBF1000F0BD08D490BEAED
:103340000100216808654FEA9B70386059462046A5
:10335000FFF7A9FE029850B1864908402168086528
:103360000298800F38600299204600F0D5FABAF131
:10337000000F0BD07F490AEA0100216808654FEA77
:103380009A7038605146204600F07CFA019850B19E
:1033900078490840216808650198800F38600199D4
:1033A000204600F097FA30050BD4E843000508D416
:1033B00021684FF400600865C7F80090204600F0CF
:1033C000ACFAB00510D4E84380050DD42068D0F8DD
:1033D000D820D0F8E01011404FF400720265C7F811
:1033E0000090204600F097FA30030BD4E843000326
:1033F00008D421684FF400200865C7F800902046E3
:1034000000F03EFAF0030BD4E843C00308D421686F
:103410004FF480300865C7F80090204600F079FA34
:1034200070030BD4E843400308D421684FF4802094
:103430000865C7F80090204600F06AFAB0030ED481
:10344000E84380030BD421684FF400300865C7F8C7
:103450000090D4F89C0040F08000C4F89C000098D4
:1034600050B144490840216808650098800F3860D1
:1034700000992046FFF758FEB8F1000F0DD03D49E6
:1034800008EA0100216808654FEA98703860D4F8AE
:103490009C0040EA0800C4F89C0037492068884234
:1034A0005CD160688168890758D0016A01F00F0219
:1034B000416A1140026A476A02F0300207EA0207D5
:1034C000026A436A02F4C07203EA0208026A456AA9
:1034D00002F4FC4205EA0205026A466A02F4F0229E
:1034E000D0F8249006EA0206D0F820A003D00162AA
:1034F000204600F00AFA2FB160680762394620467C
:1035000000F005FA6FEA090040060ED46FEA0A00DF
:1035100040060AD46068C16BC26B090C4023036289
:1035200002F03F02204600F0F1F9B8F1000005D0AA
:10353000616808624146204600F0E6F935B16068EE
:103540000562D4F89C002843C4F89C0036B160683A
:103550000662D4F89C003043C4F89C00D4F89C0068
:10356000002802D02046FFF7DEFDBDE8FE8F0000F8
:1035700010A80040FFFFCF3F00A000402DE9F04120
:1035800094B08D494C2204466846FCF7D5FF64B1DF
:103590008A4E2068B04202D100F58070606094F8D5
:1035A00098004FF0000820B108E0012014B0BDE8F9
:1035B000F081204684F8998000F002F92068816942
:1035C00021F01001816100F0CBFB0327054604E0E8
:1035D00000F0C6FB401B0A2811D82068806900074C
:1035E000F6D42068816941F00101816100F0B8FBE7
:1035F00005460DE000F0B4FB401B0A2808D9D4F8BA
:103600009C0040F00100C4F89C0084F89870CCE75E
:1036100020688069C007EDD02068816941F002010F
:103620008161207C01282068816937D041F0400108
:103630008161607C01282068816932D021F4804159
:103640008161A07C0128206881692DD041F48051DE
:10365000816120688169A26821F440711143816110
:103660002068816921F0A40181612068016921F04D
:1036700010010161E068012819D010B302281BD0A5
:103680002068816941F0800181612068016941F011
:1036900010010161E06803280ED012E021F0400122
:1036A000C6E741F48041CBE721F48051D0E72068A0
:1036B000816941F0040103E02068816941F0200143
:1036C0008161207E6FF0FF02E169A38A400602EB70
:1036D0000121A0F100700843216A491E084311022C
:1036E00001EB034318432368D861A068B0F5407F1D
:1036F00010D1D4E90A03401E02EB03221043226BCF
:103700000B1303EB02121043A28C01EB024108439E
:103710002168C860206E30B12068D0F8C010626E99
:103720001143C0F8C010D4E91701C842694609D056
:10373000206850F8C82FA36E22F0070251F82330FA
:103740001A430260206C48B1206850F8BC2F636CAB
:1037500022F0070251F823301A430260A06C50B1E6
:10376000206850F8BC2FE36C22F0700251F823302F
:1037700042EA03120260206D50B1206850F8BC2F5D
:10378000636D22F4E06251F8231042EA01210160E6
:103790002068B04204D16068816821F00301816033
:1037A000C4F89480C4F89C80012084F898002046D6
:1037B000FDF768FCFAE6000040BC000800A00040ED
:1037C00030B5B7B00446142130A8FCF711FFC02172
:1037D0006846FCF70DFF27492068884248D1002140
:1037E0004FF400400D460224CDE900010120029073
:1037F000132003900820CDE90404C020CDE9064041
:103800002020CDE9080100061C90684601F074FCF8
:1038100008B1FDF71AFC1848016841F48071016095
:10382000006800F48070359013480C38016841F04E
:1038300008010160006830A900F0080035900320FD
:1038400081E831003390092034900C4800F08AF967
:1038500000220221132000F045FB132000F034FB6E
:10386000002202213F2000F03DFB3F2000F02CFB16
:1038700037B030BD00A00040EC440258000C0258A4
:103880007047000030B5C9078DB01ED040216A4690
:103890000AABFFF74BFC002817D10198002814D180
:1038A0000098401E0B2810D8C4B20948C4EBC401CC
:1038B00000EB81010AA80D4604F060FE00F050FA0A
:1038C0000349A86101200C3908550DB030BD000036
:1038D00060010024704790F89810012907D0D0F8B3
:1038E0009C1041F00401C0F89C1001207047022197
:1038F00080F8981001688A6922F001028A6100212B
:10390000C0F89C1008467047704770477047704772
:103910007047704770477047704770472DE9F05FF8
:103920000446414889460025017D01291AD001211C
:10393000017582464FF0000BC0F818B02079C0071F
:1039400005D04CF25030FDF751FD00B10125207932
:1039500080070AD502214CF25030FDF747FD20B117
:1039600001255DE00220BDE8F09F6DBB20682F4F70
:10397000012807D04FF0FF31C9F80010A66840F2C7
:10398000047848E061682069FDF7F2FC2079C007FF
:103990000AD001214CF25030FDF728FD00B101257D
:1039A000F86820F00800F8602079800738D50221F7
:1039B0004CF25030FDF71AFD00B10125D7F80C018B
:1039C00020F00800C7F80C012AE02269304661683F
:1039D000FDF7ACFC2079C00709D001214CF2503032
:1039E000FDF704FD0546F86820EA0800F860207934
:1039F00080070BD502214CF25030FDF7F7FC05464D
:103A0000D7F80C0120EA0800C7F80C0115B1C9F875
:103A1000006005E0761CD4E902100844B042D4D816
:103A200028468AF814B09EE7AC2C002400200052EF
:103A30000A48C16841F00101C160C168C9070BD0E3
:103A4000D0F80C1141F00101C0F80C11D0F80C01B4
:103A5000C00701D0002070470120704700200052AD
:103A60002DE9F05F2C48154608260C46027D012AF8
:103A700008D0012202757304A1F100629A4204D2B7
:103A8000012707E00220BDE8F09FA4F101619942FF
:103A90000DD202274FF0000A8146C0F818A04CF260
:103AA000503B39465846FDF7A1FC10B127E00120F4
:103AB000E9E7DFF86880012F404623D0D0F80C11E9
:103AC00041F00201C0F80C11BFF36F8FBFF34F8FAD
:103AD00001CD01C4761E16F0FF06F9D1BFF36F8F3A
:103AE000BFF34F8F39465846FDF780FC012F414602
:103AF0000DD0D1F80C2122F00202C1F80C2189F876
:103B000014A0C0E7C16841F00201C160DCE7CA68E7
:103B100022F00202CA60F2E7AC2C0024002000521E
:103B20000D48C1680D4ACB070D4904D04260416081
:103B3000C368DB070BD1D0F80C31DB0709D0C0F824
:103B40000421C0F80411D0F80C01C00701D00120F5
:103B50007047002070470000002000522301674595
:103B6000AB89EFCD2DE9F84F694C00224FF0B04AF8
:103B70004FF0010B4FF003084FF00F09C0E00BFAB4
:103B800002F6334073D00D7905F00305012D01D005
:103B9000022D15D18768550008FA05FC27EA0C07A5
:103BA000D1F80CC00CFA05FC4CEA070CC0F808C0B0
:103BB0004568B5430E79C6F3001696402E4346601D
:103BC0000D79ED43AD0708D0C668550008FA05F732
:103BD000BE438F68AF403743C7600D7905F00305DA
:103BE000022D11D1D50800EB85073E6A5507ED0E71
:103BF00009FA05FC26EA0C06D1F810C00CFA05FCFF
:103C00004CEA060CC7F820C00668550008FA05F70C
:103C1000BE430F7907F00307AF40374307604D6895
:103C200015F4403F6BD03B4D2E6846F002062E60E7
:103C30002D6822F0030606F1B04605F00205009556
:103C4000D6F8087495074FEA157C09FA0CF5AF43CE
:103C5000314DA84201D100252EE0304DA84201D1BE
:103C6000012529E02E4DA84202D1022524E046E09C
:103C70002C4DA84201D103251EE02B4DA84201D1B5
:103C8000042519E0294DA84201D1052514E0284D4D
:103C9000A84201D106250FE0264DA84201D10725F3
:103CA0000AE0254DA84201D1082505E0234DA84290
:103CB00001D1092500E00A2505FA0CF53D43C6F8B7
:103CC0000854DAF8005056464F689D43FF0200D56D
:103CD0001D43356075684F689D43BF0200D51D4385
:103CE000756065684E689D43B60300D51D436560E9
:103CF00025684E689D43F60300D51D432560521C80
:103D00000B6833FA02F57FF43AAFBDE8F88F000094
:103D100080000058F4440258000002580004025881
:103D200000080258000C02580010025800140258F3
:103D300000180258001C02580020025800240258A3
:103D40000069084000D0012070470AB181617047C6
:103D50000904FBE701480068000C70470010005C94
:103D60000148806870470000900000240248816884
:103D7000027811448160704790000024032010B540
:103D800000F0D0F802F00AF80F4A11681268C1F387
:103D900003230E49CB5C03F01F03D84002F00F024F
:103DA000895C0B4A01F01F0120FA01F111600949F9
:103DB00008600F2000F010F808B1012010BD00F0DD
:103DC00075F8002010BD000018440258B4BC00086B
:103DD000A00000249C00002470B50D4D04462A78F4
:103DE000A2B14FF47A700B49B0FBF2F00968B1FB55
:103DF000F0F002F0AAFE48B9102C07D200222146AA
:103E0000501E00F06FF800206C6070BD012070BD86
:103E1000900000249C000024134A4178116012494C
:103E200008310A6822F001020A600B1F42681A601A
:103E3000027BC37A120742EA0362837A42EAC342F0
:103E4000437B42EA8342837B42EA4342C37B42EAAA
:103E50000342437A42EA0322037A007842EA4302A9
:103E600002430A607047000098ED00E0BFF35F8FE7
:103E70000448016821F4803101600249002070315A
:103E80000860704724ED00E0074940F00100086039
:103E900005487038016841F480310160BFF34F8FED
:103EA000BFF36F8F7047000094ED00E0054808B540
:103EB000016841F002010160006800F0020000901A
:103EC00008BD0000F4440258002809DB012100F07D
:103ED0001F0291404009800000F1E020C0F800116D
:103EE000704700000E4BF0B41B68C3F30223C3F10C
:103EF0000704042C00D904241D1D072D01D2002322
:103F000000E0DB1E012606FA04F56D1E0D409D4003
:103F10009E40761E164045EA0601F0BC07F0FEBD45
:103F20000CED00E0064A00F0070110684FF6FF03B1
:103F3000184040EA01200349084310607047000020
:103F40000CED00E00000FA0501680122C0F8D82459
:103F5000002280F8CC24886940F000608861486DB8
:103F6000024A10434865002070470000030000101B
:103F700070470068416200207047F0B50368586AD6
:103F800039B19C6A4FF4827500EB144400204E1E38
:103F90000AE040EA024098620FE005EB8007DF5933
:103FA000401CC0B204EB1744B042F6D344EA0240CE
:103FB0004FF4807202EB810158500020F0BDD0F820
:103FC000E00406F006BD01EBC10200EB8202D0F86E
:103FD000E004126A06F059BC01EBC10200EB820258
:103FE000D0F8E004D2F8602206F0A8BCD0F8E004D3
:103FF00006F0F1BC0A0601F00F0101EBC10100EB74
:10400000810101D5143101E001F51571006807F057
:10401000D3BB70B504464FF0010201F00F004FF022
:1040200000050B0600EBC00104EB810102D54A75C7
:10403000143103E081F8555201F51571087094F8B8
:104040009404012808D084F89424206807F0D4F858
:10405000002084F8945470BD022070BD70B50446F1
:1040600001F00F002279904201D9012070BD0B06AA
:104070004FF0010201F00F014FF0000501EBC1010B
:1040800004EB810102D54A75143103E081F85552E1
:1040900001F515718D70087094F89404012808D00A
:1040A00084F89424206807F013FA002084F89454CC
:1040B00070BD022070BD01F00F0101EBC10100EBEA
:1040C0008100D0F8680270472DE9F04104464FF0B6
:1040D000010601F00F004FF000050F0600EBC001D4
:1040E00004EB810102D54E75143103E081F855527D
:1040F00001F51571C2F30A0208708A600B714A78E3
:1041000002B14883022B00D14D7194F89404012828
:1041100009D084F89464206806F0B8FF284684F833
:104120009454BDE8F0810220FBE710B501F00F04C4
:1041300004EBC40100EB8101C1E998230023C1F81D
:10414000683281F8553281F8544201F5157183794E
:10415000012B00D1CA618279006807F011FA0020B2
:1041600010BD70B504460D4601F00F00217988425C
:1041700001D9012070BD29064FF000064FF0010261
:1041800006D500EBC00104EB81014A75143107E04C
:1041900005EBC50104EB810181F8556201F515714C
:1041A0008A70087094F89404012807D084F8942445
:1041B000206807F0B9F9280702D007E0022070BD97
:1041C000A17904F29C42206807F056F9002084F897
:1041D000946470BD10B501F00F0404EBC40100EB52
:1041E0008101C1E9082300238B6201234B7501F88B
:1041F000144F8379012B00D1CA618279006807F0DE
:10420000BFF9002010BD00002DE9F84F05680446F5
:10421000284607F06CFB00287DD1206807F093FB4F
:10422000002878D0D5F80808C0F30D20C4F8D404CD
:10423000206807F088FB800704D52068416901F0F9
:1042400002014161206807F07EFBC10604F29C4038
:10425000009034D52068816921F0100181612F6AB6
:1042600007F00F0000EBC00004EB8006C7F34340EB
:10427000022806F5157602D0062811D01AE047F676
:10428000F070074216D0C7F30A12F16817462846A5
:1042900007F05DFBF0683844F0607069384408E06E
:1042A00000990822284607F052FB7069C7F30A11EB
:1042B000084470612068816941F0100181612068C3
:1042C00007F041FB00034FF0010A7AD52068002671
:1042D00007F018FBDFF8B0B480466FE05FEAC87003
:1042E00069D02068F1B207F026FB0746C00707D067
:1042F00005EB4611C1F808AB3146204604F0DCF965
:10430000380722D505EB46110820C1F8080B2068B4
:10431000D0F8409000E035E200EB4610D0F8082BD2
:10432000D94505D9110403D54FF40041C0F8081B45
:10433000204600F00AFBD94507D9A079012804D10D
:1043400020680121009A07F097F8F80604D505EBDC
:1043500046111020C1F8080BB8071DD56869000682
:1043600005D5D5F8040840F48061C5F8041806EBBB
:10437000C60004EB800090F8571200F51570012973
:1043800005D10021C1702046F1B200F003FA05EB1F
:1043900046110220C1F8080BB80604D505EB4610FB
:1043A0002021C0F8081BB80405D505EB46104FF4D2
:1043B0000051C0F8081B761C4FEA5808B8F1000FEE
:1043C0008CD1206807F0BFFA40036DD5206807F054
:1043D00092FA0026804664E05FEAC8705ED02068EA
:1043E000F1B207F096FA0746C00723D006F00F0196
:1043F0000AFA01F0D5F834188143C5F8341805EBF2
:104400004610C0F808A9A07901280FD106EBC60014
:1044100004EB8000D0E907211144016236B9606ADB
:1044200020B920680121009A07F026F82046F1B251
:10443000FFF7C9FD380704D505EB46110820C1F880
:104440000809F80604D505EB46111020C1F8080943
:10445000780604D505EB46104021C0F80819B807C6
:1044600016D53146284607F017FA06EBC60004EBCE
:104470008000C17D1430012905D10021C170204682
:10448000F1B200F083F905EB46110220C1F80809EA
:10449000380603D53146204604F074F9761C4FEAFD
:1044A0005808B8F1000F97D1206807F04CFA00289F
:1044B00011DAD5F8040820F00101C5F8041894F8C1
:1044C000CC0401283BD0204600F024FA2068416942
:1044D00001F000414161206807F035FA00050BD575
:1044E000D5F80808C00702D0204600F057FA206827
:1044F000416901F400614161206807F024FA00017C
:104500000AD52068416901F00061416194F8CC044A
:10451000E8B1204600F042FA206807F014FAC0041F
:1045200074D5D5F8040820F00101C5F804182068F6
:10453000102107F0B1F900214FF67F322DE0002065
:1045400084F8CC0401462046FFF712FDBEE784F84C
:10455000CCA42068406D0121C0F38300C4F8D004CE
:104560002046FFF705FDD7E705EB4110C0F8082905
:10457000D0F8003923F40013C0F80039C0F8082B34
:10458000D0F8003B23F40013C0F8003BD0F8003B08
:1045900043F00063C0F8003B491C20798842E3D80F
:1045A000D5F81C0840F00111C5F81C18E07B002864
:1045B00028460DD0D0F8840840F00B01C5F88418C7
:1045C000D5F8440840F00B012846C5F844180DE022
:1045D000D0F8140842F22B010843C5F81408D5F8A6
:1045E000100840F00B012846C5F81018D0F8000854
:1045F00020F4FE61C5F80018A1792068009A06F041
:104600003BFF2068416901F480514161206807F057
:104610009AF9800415D5206806F078FD206807F027
:1046200059F9E07101F074FBE2790146206807F066
:10463000EDF9204600F058F92068416901F4005175
:104640004161206807F07FF9000707D5204600F098
:1046500065F92068416901F008014161206807F0AF
:1046600072F9000615D5A86920F08001A96101261C
:104670000CE006EBC60004EB800090F8570201281E
:1046800003D12046F1B2FFF7B5FC761C2079B04289
:10469000EFD8206807F057F9C0021FD5012657460A
:1046A00014E005EB4610D0F8001906EBC60004EB49
:1046B0008000027E012A08D1002906DAC775F0B20F
:1046C00040F080012046FFF795FC761C2079B0422F
:1046D000E7D82068416901F480114161206807F042
:1046E00032F9800231D50120534626E005EB401116
:1046F000D1F8001B00EBC00204EB820292F8586272
:10470000012E19D1002917DA94F8D464C1F30041BD
:1047100006F001068E420FD182F85732A96941F0A6
:104720008002AA616969090606D4D5F8040840F434
:104730000070C5F8040803E0401C21798142D5D8F7
:104740002068416901F400114161206807F0FBF81D
:10475000400007D52046FFF732FC2068416901F090
:1047600080414161206807F0EEF840070AD52068D3
:104770004568680702D52046FFF738FC2068416885
:1047800029434160BDE8F88F0A30544FD0F8E00467
:1047900006F075B9D0F8E00406F085B9F8B5040064
:1047A00004D094F89504002510B106E00120F8BD6E
:1047B000204684F8945400F057F8032084F89504B8
:1047C000206806F053FE207C8DF8000094E80F006E
:1047D00006F0AAFC0226B0BB2068002107F0D6F83C
:1047E00088BB002101270CE001EBC10004EB800035
:1047F00047750175C185491C0576C9B2C561056259
:10480000456220798842EFD8002111E001EBC10018
:1048100004EB800080F8555280F85412491C80F84F
:104820005852C9B2C0F85C52C0F86052C0F8645225
:1048300020798842EAD8207C8DF8000094E80F00A7
:1048400006F05EFD10B184F89564AFE7657484F8F6
:104850009574207B012802D12046FFF775FB206864
:1048600006F040FD0020F8BD10B586B004461421C6
:104870006846FBF7BDFE1949206888422BD100F03D
:10488000CDF81748016841F00101016000686946F0
:1048900000F0010005904FF4C050009002200190FC
:1048A00000200290032003900A2004900D48FFF797
:1048B00059F90B480838016841F00061016000684F
:1048C0000022114600F0006005906520FFF70AFB0A
:1048D0006520FFF7F9FA06B010BD0000000008409F
:1048E000E04402580000025870B50446C079012522
:1048F00070B1022801D0FCF7A8FBD4F8E0042946E7
:1049000006F03FF9D4F8E004BDE8704006F0F4B8D2
:104910000025F2E7D0F8E00406F01CB9D0F8E00476
:1049200006F022B910B5044690F8940401280AD084
:10493000012084F894046174206807F055F8002081
:1049400084F8940410BD022010BDD0F8E02400F2D9
:104950009C41104606F021B910B50446006894F851
:104960009414012909D0012184F89414C1684906DE
:1049700009D5617B012902D005E0022010BD816BC1
:1049800041F480318163206806F064FF206806F0FE
:104990009BFC002084F8940410BD000010B5044670
:1049A000D0F8E00406F03BF92068D0F8001E41F092
:1049B0000101C0F8001EE07A002804D00248016816
:1049C00041F00601016010BD10ED00E0124970B524
:1049D0000A68D243520705D5096801F007018142F0
:1049E00012D117E00A6822F0070202430A60FFF7BB
:1049F000B7F9094D4FF47A760446083D06E0FFF713
:104A0000AFF9001BB04201D9012070BD2868C04336
:104A10008004F4D4002070BD0C480258024801689C
:104A200041F08071016070470C48025810B501F0E8
:104A30006FF905490968054AC1F30211515C01F09B
:104A40001F01C84010BD000020440258B4BC00083B
:104A50004F4910B50A68096802F003024C4B1B1D50
:104A6000C1F305111B684A4C03F001030C342468A0
:104A70000029C4F3CC0414FB03F300EE103AB8EEA3
:104A8000400A7FD09FED431A9FED432A404BF7EE3B
:104A9000000A083322B1012A66D0022A22D16AE034
:104AA0003B4A283A1468A4061CD51268C2F3C10414
:104AB0003A4AE24001EE902AF8EE612A01EE901A9D
:104AC000F8EE611A196882EEA12AC1F3080101EE1D
:104AD000901AF8EE611A40EE011A31EEA00A22EEA9
:104AE000000A12E001EE901A1968F8EE611AC2EE9F
:104AF000212AC1F3080101EE901AF8EE611A40EE86
:104B0000011A31EEA00A22EE800A1968C1F346218B
:104B100001EE101AB8EE411A31EE201AC0EE011A59
:104B2000BCEEE11A80ED001A1968C1F3064101EEEE
:104B3000101AB8EE411A31EE201AC0EE011ABCEE7E
:104B4000E11A80ED011A1968C1F3066101EE101A2D
:104B5000B8EE411A71EE200A80EE201ABCEEC10AAE
:104B600080ED020A10BD0DE001EE901ADFED0C2A77
:104B7000F8EE611AA6E701EE901ADFED0A2AF8EEC8
:104B8000611A9FE70021016041608160EAE700004F
:104B900028440258000000390024744C0090D003CF
:104BA0000024744A0024F44A484910B50A68096888
:104BB00002F00302454B1B1DC1F305311B68434C3A
:104BC0001434C3F300132468C4F3CC0414FB03F3BC
:104BD00000EE103AB8EE400AE9B33C4B9FED3C1AA8
:104BE0001033F7EE000A62B1DFED3A1A012A01D064
:104BF000022A5ED002EE101AF8EE422A81EEA22AB4
:104C00001AE0324A283A1468A4060DD51268C2F395
:104C1000C104314AE24001EE902AF8EE612A01EE29
:104C2000901AF8EE611A05E001EE901ADFED2B2ADA
:104C3000F8EE611A82EEA12A1968C1F3080101EEAB
:104C4000901A1968F8EE611A40EE011A31EEA00AC6
:104C500022EE000A00E033E0C1F3462101EE101A13
:104C6000B8EE411A31EE201AC0EE011ABCEEE11A7C
:104C700080ED001A1968C1F3064101EE101AB8EE72
:104C8000411A31EE201AC0EE011ABCEEE11A80ED95
:104C9000011A1968C1F3066101EE101AB8EE411A43
:104CA00071EE200A80EE201ABCEEC10A80ED020AE5
:104CB00010BD01EE901ADFED0A2AF8EE611AB9E78D
:104CC000002101604160816010BD0000284402584D
:104CD000000000390024744A0090D0030024744C72
:104CE0000024F44A484910B50A68096802F0030232
:104CF000454B1B1DC1F305511B68434C1C34C3F3CA
:104D000000232468C4F3CC0414FB03F300EE103A30
:104D1000B8EE400AE9B33C4B9FED3C1A1833F7EE6E
:104D2000000A62B1DFED3A1A012A01D0022A5ED0F0
:104D300002EE101AF8EE422A81EEA22A1AE0324A56
:104D4000283A1468A4060DD51268C2F3C104314A8A
:104D5000E24001EE902AF8EE612A01EE901AF8EE98
:104D6000611A05E001EE901ADFED2B2AF8EE611AC8
:104D700082EEA12A1968C1F3080101EE901A1968A0
:104D8000F8EE611A40EE011A31EEA00A22EE000A96
:104D900000E033E0C1F3462101EE101AB8EE411AEB
:104DA00031EE201AC0EE011ABCEEE11A80ED001AB5
:104DB0001968C1F3064101EE101AB8EE411A31EE3E
:104DC000201AC0EE011ABCEEE11A80ED011A196832
:104DD000C1F3066101EE101AB8EE411A71EE200A15
:104DE00080EE201ABCEEC10A80ED020A10BD01EE71
:104DF000901ADFED0A2AF8EE611AB9E70021016086
:104E00004160816010BD0000284402580000003954
:104E10000024744A0090D0030024744C0024F44A07
:104E20002DE9F04FB24C80F48078B04A89B0DFF8B9
:104E3000BCA24FF080572511DFF8B892E310503A2A
:104E400058EA0108AAF104064FF0005C33D080F460
:104E5000007858EA01085DD0DFF890B280F48068ED
:104E600058EA01080BF1080B66D080F4006858EA94
:104E7000010878D080F4805858EA01086BD080F49B
:104E8000005858EA01084FF480394FF4003E77D0BB
:104E900080F4002858EA010873D080F4803858EA7A
:104EA00001086FD080F480460E436CD080F400403F
:104EB000084369D02AE0DAF8000000F0070005286E
:104EC00024D2DFE800F08FB97D25AE0006A8FFF7F9
:104ED000BFFD079809B0BDE8F08F6846FFF764FE94
:104EE0000098F7E703A8FFF7FDFE0398F2E71068C4
:104EF000C0F3C10024FA00F0ECE71168C90572D5CF
:104F0000B84270D12846E5E71846E3E70020E1E71C
:104F10004846DFE7DAF8000000F4E07080284FD060
:104F200004DC00285ED04028F0D185E0C028EFD016
:104F3000B0F5807FEAD174E0DBF8000000F4600097
:104F4000B0F5800F3CD007DC00284BD0B0F5001F37
:104F5000DCD171E007E01FE0B0F5C00FD8D0B0F5AC
:104F6000000FD3D15DE0DBF8000000F0E060B0F1AD
:104F7000007F25D009DCA8B3B0F1807FC6D15BE00B
:104F800022E045E06AE077E09AE0B0F1407FBFD0F0
:104F9000B0F1806FBAD144E0DAF8000000F4E040EC
:104FA000B0F5005F0CD004DCE0B1B0F5805FADD1AE
:104FB00042E0B0F5405FABD0B0F5804FA6D130E015
:104FC00010688000A2D58DE7DAF8000000F4E02038
:104FD000B0F5403F6BD007DC68B1484579D07045EB
:104FE00094D156E07DE033E0B0F5802F63D0B0F58A
:104FF000A02F8BD171E000F0ADFE6BE76846FFF7A4
:10500000D3FD019866E703A8FFF76CFE049861E7FB
:10501000DBF8000010F440300ED0484510D0704549
:1050200088D13068116800F0405049077FF565AFBE
:1050300000287FF462AF5AE710680001C2D54CE740
:1050400010688000BED503A8FFF74CFE059841E725
:1050500011688903B6D5604590D155E7306810F4E2
:1050600080303ED0484589D110680001AAD56846F5
:10507000FFF79AFD02982DE7DBF8000000F0E04012
:10508000B0F1405F13D008DC70B1B84221D0604568
:105090008DD110688000B6D438E7B0F1804F0AD0C7
:1050A000B0F1A04FF8D118E0FFF7C0FC12E710688C
:1050B0004007F1D51BE71068C005EDD522E708E0F1
:1050C000DAF8000010F0405007D0B84209D060452F
:1050D000E2D11068000191D418E710688003DBD595
:1050E00012E710688001D7D5F0E60000504402585E
:1050F0000090D0030080BB002DE9FC5F04460068EF
:105100000025FA4FC043DFF8E8832E46010104F181
:105110000800019004F1280000901DD4A06E50B149
:10512000B0F5801F0CD0B0F5001F0ED0B0F5401FB9
:105130001ED001250FE0386840F40030386017E0D9
:105140000198022103F046FD03E00098022103F0DC
:10515000CBFD05000CD02E462088C043C00523D4CB
:10516000A06D05281ED2DFE800F00C11161B1B00F5
:10517000D8F80010A26E21F440111143C8F80010B5
:10518000EAE7386840F40030386009E0019800210F
:1051900003F020FD03E00098002103F0A5FD054683
:1051A00075B100E001252E462088C043800528D433
:1051B000E06D80281ED00CDC90B140280ED114E0A8
:1051C000D8F80010A26D21F007011143C8F80010B3
:1051D000EAE7C02813D0B0F5807F10D001250FE09A
:1051E000386840F40030386009E00198002103F08D
:1051F000F1FC03E00098002103F076FD05468DB137
:105200002E462088DFF8EC92C04340052CD4D4F819
:10521000A800B0F5800F20D00DDCA0B1B0F5001FC4
:105220000FD115E0D8F80010E26D21F4E0711143C0
:10523000C8F80010E5E7B0F5C00F13D0B0F5000FC7
:1052400010D001250FE0386840F40030386009E0E4
:105250000198002103F0BEFC03E00098002103F058
:1052600043FD05467DB12E462088C04300052DD460
:10527000D4F8AC00B0F1007F21D00EDCA8B1B0F1C1
:10528000807F10D116E0D9F80010D4F8A82021F4BE
:1052900060011143C9F80010E6E7B0F1407F13D078
:1052A000B0F1806F10D001250FE0386840F4003075
:1052B000386009E00198002103F08CFC03E00098BD
:1052C000002103F011FD054675B12E462068C0434C
:1052D00080011FD4E06CD8B110280FD0202812D044
:1052E000302815D0012514E0D9F80010D4F8AC20EE
:1052F00021F0E0611143C9F80010E7E7386840F495
:105300000030386004E00198022103F063FC054698
:1053100075B12E462088C043C0042BD4206EB0F552
:10532000005F20D00DDCA0B1B0F5805F0FD115E09B
:105330006F48001F0168E26C21F0300111430160E9
:10534000E8E7B0F5405F13D0B0F5804F10D00125ED
:105350000FE0386840F40030386009E0019800211F
:1053600003F038FC03E00098002103F0BDFC054683
:105370008DB12E462088C043800429D4606EB0F5DC
:10538000403F23D010DC08B3B0F5803F14D0B0F517
:10539000003F0FD115E0D8F80010226E21F4E04153
:1053A0001143C8F80010E5E7B0F5802F0ED0B0F536
:1053B000A02F0BD001250AE00198012103F00AFC7F
:1053C00003E00098012103F08FFC054695B12E46BD
:1053D0002088C04340042AD4D4F8B000B0F1405F24
:1053E00023D010DC08B3B0F1805F14D0B0F1005FBF
:1053F0000FD115E0D8F80010626E21F4E0211143BE
:10540000C8F80010E4E7B0F1804F0ED0B0F1A04F23
:105410000BD001250AE00198012103F0DBFB03E03A
:105420000098012103F060FC054675B12E462088E6
:10543000C04300041FD4206FD8B1B0F1805F0ED0FC
:10544000B0F1005F10D0012514E0D9F80010D4F8B5
:10545000B02021F0E0411143C9F80010E7E73868B7
:1054600040F40030386004E00198012103F0B2FB01
:10547000054675B12E462068C043C0011ED4A06CFD
:10548000D0B101280ED0022811D0032814D0012554
:1054900013E0D8F80010226F21F040511143C8F8F2
:1054A0000010E8E7386840F40030386004E0019804
:1054B000022103F08FFB05467DB12E462068DFF800
:1054C00038B0C043400256D40C48016841F48071A2
:1054D0000160FEF745FC824618E00548001F0168A0
:1054E000A26C21F0030111430160E7E72C4402584C
:1054F0005044025858440258104402580048025878
:10550000FEF72EFCA0EB0A0064282CD8FE480068A9
:10551000C005F5D545BBFD480068B4F8B41000F4EB
:10552000407001F4407188420CD0F848016802686C
:1055300021F4407142F480320260026822F4803229
:1055400002600160D4F8B400B0F5807F1AD1FEF794
:1055500007FC824609E0FEF703FCA0EB0A0141F2DA
:105560008830814201D9032504E0E84800688007BB
:10557000F1D53DB12E462078DFF894A3C043C00793
:1055800020D03BE0D4F8B400C0F3012103290ED0B1
:10559000DBF8001021F47C51CBF80010DB480168E7
:1055A000B4F8B420C2F30B0211430160E3E7DBF867
:1055B0000020D84B22F47C5203EA10100243CBF8AF
:1055C0000020EBE7E06F182816D005DCA0B1082812
:1055D00008D0102804D10AE020280DD028280BD0AC
:1055E00001250AE00198012103F0F4FA03E0009894
:1055F000012103F079FB054665B12E462078C043B2
:1056000080071ED4A06F062819D2DFE800F0160C20
:1056100011161616DAF80010E26F21F03801114366
:10562000CAF80010EAE70198012103F0D3FA03E079
:105630000098012103F058FB05467DB100E00125EB
:105640002E462078C04340071FD4D4F89400062883
:1056500019D2DFE800F0160C11161616DAF8001051
:10566000A26F21F007011143CAF80010E9E7019881
:10567000012103F0AFFA03E00098012103F034FBAD
:105680000546A5B100E001252E462078C0438006DE
:105690002BD4D4F89000B0F1405F24D011DC10B3CB
:1056A000B0F1805F15D0B0F1005F10D116E0D9F8ED
:1056B0000010D4F8942021F007011143C9F800101C
:1056C000E3E7B0F1804F0ED0B0F1A04F0BD0012531
:1056D0000AE00198002103F07DFA03E0009802211E
:1056E00003F002FB054695B12E462078C0434006E4
:1056F0002BD4D4F89C00B0F5406F24D011DC10B34B
:10570000B0F5806F15D0B0F5006F10D116E0DAF863
:105710000010D4F8902021F0E0411143CAF80010A5
:10572000E3E7B0F5805F0ED0B0F5A05F0BD00125A8
:105730000AE00198002103F04DFA03E000980221ED
:1057400003F0D2FA054695B12E462078C0430006F4
:105750002BD4D4F8A000B0F5C04F24D011DC10B386
:10576000B0F5005F15D0B0F5804F10D116E0D9F834
:105770000010D4F89C2021F4E0511143C9F8001026
:10578000E3E7B0F5004F0ED0B0F5204F0BD0012568
:105790000AE00198002103F01DFA03E000980221BD
:1057A00003F0A2FA054655B12E462078C043000703
:1057B0001ED4D4F88400B0F5805F0AD00FE0D9F889
:1057C0000010D4F8A02021F460411143C9F8001062
:1057D000EBE70098022103F087FA00B10126DAF81E
:1057E0000010D4F8842021F440511143CAF800106D
:1057F0002078C043C00613D4D4F89800B0F5807F59
:1058000005D10098022103F06FFA00B10126D9F802
:105810000010D4F8982021F440711143C9F8001009
:105820002068C043000316D4D4F8A40038B1B0F502
:10583000803F09D0B0F5003F0BD001250AE0019868
:10584000002103F0C7F903E00098022103F04CFAAD
:1058500005468DB12E462068C043400322D4D4F8BB
:105860008800B0F5801F11D0B0F5001F13D0B0F53F
:10587000401F15D0012514E0D9F80010D4F8A42059
:1058800021F440311143C9F80010E4E7386840F4CE
:105890000030386004E00098012103F025FA054645
:1058A0005DB12E462068C043C0031CD4206D70B18A
:1058B000B0F5803F10D0012514E0DAF80010D4F8DC
:1058C000882021F440111143CAF80010EAE7386833
:1058D00040F40030386004E00198022103F07AF9C6
:1058E00005462DB32E462068C043800005D400989D
:1058F000022103F0F9F900B101262068C0438003BA
:1059000024D4D4F8800007E00048025870440258BC
:1059100054440258CFFFFF00B0B1B0F5807F0FD0E4
:10592000B0F5007F10D0B0F5407F0DD001250CE020
:105930005A480168226D21F4803111430160D2E799
:10594000386840F400303860F5B32E462068C04314
:10595000C00207D4D8F80010626F21F00041114353
:10596000C8F800102068C043C00008D4DBF800105D
:10597000D4F8B82021F480411143CBF800102068FE
:10598000C043800207D4D8F80010E26E21F0807185
:105990001143C8F800102068C04340000CD4DBF865
:1059A000001021F40041CBF80010DBF80010D4F80F
:1059B000BC201143CBF800102068C04308D43748FE
:1059C000016821F0405100E017E0626D1143016071
:1059D0002068C043000208D4DAF80010D4F88C2004
:1059E00021F440011143CAF8001020790025C0437A
:1059F00000F0010028430AD00FE0DAF80010D4F8D4
:105A0000802021F440711143CAF800109EE70198EC
:105A1000002103F0DFF800B106462079C04300F012
:105A20000200284305D10198012103F0D3F800B109
:105A300006462079C04300F00400284305D10198B0
:105A4000022103F0C7F800B106462079C04300F0F8
:105A50000800284305D10098002103F045F900B162
:105A600006462079C04300F01000284305D1009875
:105A7000012103F039F900B106462079C04300F056
:105A80002000054304D10098022103F02DF900B94C
:105A900016B10120BDE8FC9F0020FBE74C440258F2
:105AA0002DE9F05F04000D467ED0DFF84492D9F86E
:105AB000000000F00F00A8420CD2D9F8001021F02D
:105AC0000F012943C9F80010D9F8000000F00F00B9
:105AD000A84269D12078874E40070AD520693168ED
